:020000040020DA
:20200000703100208D22200047AE200045AE200045AE200045AE200045AE200000000000CF
:2020200000000000000000000000000045AE200045AE20000000000045AE2000DFAE2000BA
:20204000F1AE2000F7AE2000FDAE200003AF200000000000E5AE2000EBAE200045AE2000E0
:2020600045AE2000000000000000000000000000000000000000000045AE2000000000003A
:20208000000000000000000045AE200045AE200045AE200045AE200045AE200045AE2000CE
:2020A00045AE200045AE200045AE200045AE200045AE200045AE200045AE200045AE200088
:2020C00045AE200045AE200045AE200045AE200045AE2000000000000000000000000000A1
:2020E000000000000000000000000000000000000000000000000000C1352000D1352000A4
:202100000000000000000000000000000000000000000000000000000000000000000000BF
:2021200000000000000000000000000000000000000000000000000000000000000000009F
:2021400000000000000000000000000000000000000000000000000000000000000000007F
:2021600000000000000000000000000000000000000000000000000000000000000000005F
:2021800000000000000000000000000000000000000000000000000000000000000000003F
:2021A00000000000000000000000000000000000000000000000000000000000000000001F
:2021C0000000000000000000000000000000000000000000000000000000000000000000FF
:2021E0000000000000000000000000000000000000000000000000000000000000000000DF
:202200000000000000000000000000000000000000000000000000000000000000000000BE
:2022200000000000000000000000000000000000000000000000000000000000000000009E
:2022400000000000000000000000000000000000000000000000000000000000000000007E
:202260000000000000000000000000000000000045AE2000A5342000C9342000712A20007A
:20228000353720003126200045AE2000FF22482408B5084B08481A60084AE369121A0849A6
:2022A00098470848084AA369121A0021984701F083FAFEE7B4200D4040000020600200200F
:2022C000A4C02000600200206F29002008B5002000F006FA012000F003FA0D49002000F0FF
:2022E000CBFA02F06DF8002002F01AF901F000F900F0E2FB00F0FEFB0821064801F02EFA6D
:2023000001F070FF62B6BDE80840012008F09EBD794320004E29002073B51A4B1B68022B34
:2023200008DD1949194A1A4803F0E4F919491A4803F0E0F96846082101F010FA174E9DF865
:2023400006309DF80750F46A45EA03254AF6CD310220A04729460320A0471A210120A047A3
:20236000736B082269460B20984700F091F800F035FB00210A4801F0E7FD002008F066FD40
:2023800002B070BDD00000200BBD200002BD200010BD20001FBD2000DDBD2000A0BB200089
:2023A000400000202DE9F04104880646772C20D07E2C3DD0002C4ED101F030FD284D294B02
:2023C000294FDFF8B08018702C602B6857F823202AB9264A13707723338001203EE008F8E3
:2023E000034093680021802098472B6801332B60EBE700231E4A1360194A1360184B1B4A3F
:202400001B6812789A4204DC194B1B68002BF0D1E1E7184AD256002A19DA134A002052F8EA
:202420002320104B197801F067FD28B97E23D3E70C4B1B788B42D0D1094B0E491A688B5C70
:2024400003F07F038B540A4A136801331360044A13680133D1E7002303800320BDE8F0811E
:20246000740200206629002050000020301400207002002067290020044B1868C0F3072058
:20248000030904BF1030C0B2704700BF1C300D4008B5FFF7F1FF014B1B6808BD1C300D40DC
:2024A0002DE9F04800F086F8114B4FF0000BD3E900673A46B04238BF7A1C15464BEA000404
:2024C000C3E900450B49D1E900BCBBEB06026CEB0703161943EB0507C1E9006701F00EFBBE
:2024E00018B1BDE8F04801F08DBABDE8F08800BF6802002060020020E0210D4B0D4A5A60AC
:202500000D4A82F82310002207219A6019600B490B6843F001030B60094B1A60042243F862
:202520000C2C012243F8082C0F22DA62704700BF10E000E047E8010000ED00E008200D40AC
:202540000C000340034BD3E90023100A40EA0360704700BF68020020034BD3E90023D00B50
:2025600040EA4340704700BF60020020054B18601C3B1A6842F001021A601A68D207FCD43B
:20258000704700BF2800034010B5064C236823F001032360FFF784FF236843F00103236060
:2025A00010BD00BF10E000E0014B1868704700BF78020020064B18685A6808331B681B0473
:2025C00043EA0223034A0343106843EA0060704740500D404C500D40014608B5104A1368BB
:2025E000DB07FCD572B6FFF7E5FF0B1A062BD8BFC11D0C4B0A0E1A60C1F3074243F8042C0A
:20260000C1F3072243F8082CCAB243F80C2C62B64FF40032044B1960044B1A6108BD00BFDC
:2026200050500D404C500D407802002000E100E008B500F0E9FF0022064B1A604FF4003272
:20264000054BC3F89021C3F89020BDE8084001F09FBC00BF7802002000E100E0064B1B682C
:202660001B075FBF054B186880F00800C0F3C00048BF0020704700BF18C0004018D0004082
:202680002C23154A70B503FB00234FF6BF72DC680546236C626413F050020DD00F4EA36951
:2026A000DB0600D570BD56F825301BB12068C0B29847F4E72368F2E713F4D06FF2D04FF465
:2026C00040732363FF236360E36AE262E362236B43F001032363E5E748BB20007C0200202E
:2026E00001282DE9F74F064600F2B4802C2545435A4F7C1994F92080B8F1000FC0F2AA800B
:2027000094F92290B9F1000FC0F2A480544800F0EFFF544A79591368E5680B4313605368BD
:20272000616894F921A00B4353609368A1685FFA89FB0B4393600023C5F8C83F23690AEBF7
:20274000C8021A6094F92330227D00939DF8003058461946019300F037F9019B0822194688
:20276000584600F027F901233F494FEA0939009A59F8010003FA02F2024349F801204FEAC7
:20278000083858F8010003FA0AF2024348F801205022AA63AA6B94F9240042F4D062AA634F
:2027A00002226A634FF440722A63A26900286A62E269AA624FF07002EA620D4614DB94F984
:2027C00025102A4A41EAC0041460020354598B4023435351C9B20022C0B200F0EBF8244A16
:2027E000136843F4004313602C2303FB067393F92640002C1BDB93F927A05FFA84F85FFA16
:202800008AF901224946404600F0DEF801232403625903FA0AF313436351082249464046EE
:2028200000F0C8F8124A136843F4804313602C2303FB0676F268136B43F001031363012233
:2028400096F82830590903F01F0302FA03F3094A42F8213003B0BDE8F08F00BF48BB200092
:202860005D26200028200D4020940D4004410D4030D0004000E100E001289CBF014B43F881
:20288000201070477C020020012808D82C22044B02FB0030C3689A699206FCD4196070471A
:2028A00048BB20000022014B1A60704700500D400822014B1A60704700500D40A022024B66
:2028C0001A6050221A60704700500D40014A024B9A6070470020200000ED00E038B5164D98
:2028E000164C2B68012223F040032B602368062123F040032360032000F05CF82B68012237
:2029000023F080032B602368072123F080032360032000F04FF80A4B0A4A0B491A600B4AA4
:20292000134610680842FCD11A685101FCD41A685201FCD538BD00BF20C40D4000C40D406F
:2029400000200D40010102000000010104200D402DE9F84305464FEA0538DFF8389008F1E9
:20296000804606F5592600F04FFED6F8187458F80940ED00EC4047EA0400C0B2E4B2A840A9
:20298000FFB2AC4001F0A2FDC6F81C7448F80940BDE8F88318970D40034B044A1A60044BB2
:2029A000803A1A60704700BF8402002080400D4088020020034B01EBC0011B6843F8212016
:2029C000704700BF84020020034B01EBC0011B6843F82120704700BF88020020024A1368FA
:2029E00043F030031360704700700D400E2870B50BD1154B154E1C6844F002051D603568B7
:202A000025F03F0343F001033360114E336823F0FF031A43114301430E4A316013681B060C
:202A2000FCD50D4B0D4A1B6812680E2803F0FC0343EA022308BF054A1BB204BF1560024A38
:202A4000184608BF146070BD34000144F486084008700D4000700D400C700D4010700D405D
:202A6000024B1868B0FA80F04009704700B708404FF40042064B10B5064CC3F89021C3F85C
:202A80009020206818B101F077FA0023236010BD00E100E08C020020064A136843F00203EE
:202AA0001360536843F002035360936843F002039360704748200D4007B50C4800F018FE55
:202AC000FFF7EAFF0A4B1A6842F002021A6000220192019A0F2A06DD1A6822F002021A6012
:202AE00003B05DF804FB019A0132F1E7612A200054200D40064A136823F0020313605368AC
:202B000023F002035360936823F002039360704748200D402DE9F04188460126C7083C032E
:202B200000F0070104F180448E4018F00C0304F559246FEA060522D1D4F810342B40C4F8FB
:202B4000103418F0030249D13846FFF733FFD4F8103418F0800F1FBF1E43012303FA07F75F
:202B6000214B0BBF2B40C4F81064C4F810341F60D4F820341D40C4F82054BDE8F081042B13
:202B80000FD1D4F804342B40C4F80434D4F808342B40C4F80834D4F80C343343C4F80C3409
:202BA000CFE7082B0DD1D4F804342B40C4F80434D4F808342B40C4F80834D4F80C342B4009
:202BC000ECE70C2BBDD1D4F804342B40C4F80434D4F808343343C4F80834B2E7022AB3D03C
:202BE000012AB4D10422AFE700E100E00B4B1A689207FCD41B685B065FBFED22084B1A6089
:202C00001A60084B1B6813B1EF22054B1A60064A0120137803F07F03137070474C86084000
:202C2000388808402C86084033140020044B186800F02200A0F1200358425841704700BFED
:202C40004C860840024B186800F04000704700BF4C860840204B1870002832D01F4A1368CC
:202C60001B03FCD51E4B1A6842F002021A601A6842F001021A601A685007FCD51A6822F05B
:202C800001021A601A685107FCD41A6842F002021A601A6842F001021A601A685207FCD5FE
:202CA000104A136823F004031360D2F8A83123F00403C2F8A8314FF400520B4BC3F890200C
:202CC0007047084A136843F0040313604FF40052054B1A61704700BF3214002004200D4016
:202CE000048808408C86084000E100E0084B93F90020002A09DBED21064A11601160E32194
:202D000011601A7862F07F021A700120704700BF3314002038880840A0F10B01CBB20F2BF9
:202D200010B5044613D80B4B1B6813F03F0302D0FFF75CFF012301EB8101074A0B311160C8
:202D40000BB1FFF7D3FF054B60B21C7010BD4FF0FF30FBE7488608403C8608405E02002044
:202D600010B50C46002900F08680102800F28580DFE800F009101B22243B44575C72768320
:202D8000837B7D547F003E4B1B68003318BF0123236024E005223B4B1B6803F07F030B3B39
:202DA00093FBF2F30B33DBB2F2E7374B1A68043B1B6843EA0223EBE7344BF7E700230B6027
:202DC000334B344A1B6803F001030B601268900644BF43F002030B602F4B1B780BB900206B
:202DE0000BE00B6843F00403D2E700202B4B08601B78002BF3D001230B6010BD284B2949C2
:202E00001A680023D2B201EBC3000079904202D851F83330BCE701330E2BF4D16FF01703BB
:202E2000B6E7214B1B685BB2493BB1E71F4B1B6899060FD1FFF75AFF01231D490A68D2074D
:202E4000FCD51C4A1168493949B20BB1FFF7CEFE2160C4E70023F0E7174B93F9003097E705
:202E6000164B1B7803F07F0392E70B2390E71A238EE707238CE70220BFE70120BDE700BF30
:202E80002C8608403C860840CC850840D48508400086084024860840321400205F0200204D
:202EA00040860840D8BB2000588608404886084064860840608608403414002031140020E8
:202EC00008B50B4B1B6899060FD1FFF70FFF012308490A68D207FCD5074A1168C1F30011B9
:202EE0000BB1FFF783FE084608BD0023F0E700BF48860840648608404C86084010B507287D
:202F000061D8DFE800F0040F1A212541475B012903D1FFF7EBFE00203BE0002955D1FFF70E
:202F200065FEF8E7A1F10B030F2B4ED8C8B2FFF7F3FE0130EFD103202BE089B2244BCAB2A9
:202F4000090A1A605960E6E789B2CAB2214BF7E731F0070339D1204B11F0010F1A68C1F376
:202F6000800014BF42F0010222F001021A601B4B11F0020F1A6814BF42F0200222F02002E5
:202F80001A60FFF767FEC6E731F001001DD1144B197010BD01F118031F2B16D80D23114A1A
:202FA00052F83340D800A14204DC024412790E4B1A60B0E713F1FF33F2D2ACE7C9B20B4B20
:202FC00049311960A7E70120E3E70220E1E700BFC8850840D08508400086084024860840EA
:202FE0005F020020D8BB2000408608405886084038B505460C46134A13689B07FCD4124B38
:2030000093F90030002B01DBFFF770FEEE220F4B691E1A601A60A21C43F8102C21440220E8
:2030200000F080FA0A49013C41EA0411022000F08BFA022000F092FA022000F0A7FA00204E
:2030400038BD00BF4C860840331400203888084002C001C0F8B5224B93F90030002B18DBBC
:20306000FFF7A8FA0446FFF741FEC4F1FF2404F57F04F634FFF79EFAC442FBD40126194BCD
:203080001B7843B9184C2368990609D502210846F8BD0026F3E7FFF713FF0028F2D1F5E740
:2030A000E9230427114D2B6023689A0703D4013F17F0FF070BD123689B070CD4EE23012184
:2030C0002B602B60002EE2D0FFF790FDDFE70620FFF74CFAE8E7216811F00201FBD1F1E74F
:2030E000331400205F0200204C860840388808400B280DD1082A0DD161B1074B074A0831B7
:2031000011F8010D43F8040B9342F9D1002070470120704702207047A8850840C88508401D
:2031200070B5304E336813F0400358D02E4D2C68230605D5ED2200202C4B1A601A6070BD0A
:20314000E4B2042CF6D9023C8C42F3DCE4B2032C1ED12B6803702B6843702B6883702968E8
:20316000234B493949B219702B68224D18062B70E0D589B2042001F0E1FC2978032001F089
:203180007F0101F0DBFC1C4B1B78CBB12046D6E701190139032000F0CDF9184B611E43EA12
:2031A0000111032000F0D0F9032000F0D7F9032000F0ECF9032000F0F5F90028FAD1CEE79D
:2031C00033685A06E2D533681B0603D50C4800F0D3FEDBE7ED22054B1A601A60D6E7184664
:2031E000ADE700BF4C860840288808403888084034140020311400203214002002C0010C60
:20320000B0000020F8B5294F3D7815F001054BD10124F822264B7F261C605C609C60A3F5BC
:203220009323A3F514731A600922C3F89021152270331A600B2203F59B2303F59E731A60EE
:203240004022A3F59B23A3F5F0731A601A6842F020021A60D52243F81C5CDE62DA61154B6C
:203260001878FFF759FD4FF48042134B02201E60124B1A6100F07EF91149022000F05AF971
:20328000032000F077F90E49032000F04BF90D4B1878FFF7DFFC0C48294600F055FE2046D8
:2032A0003B7823433B70F8BD0020FCE733140020A8200D405E0200209486084000E100E073
:2032C0002888084032140020B000002038B50388044653B340F2F732934233D11B4B1878CE
:2032E0001A4638BB822923D1137873B901F0DCFB01F06EFB8021FFF713FF002805DD80B21E
:2033000001F04AFB124BDB689847124B1A7852060BD500221A70104B1D68FFF767FCFFF7F6
:2033200071FFAB0601D0FFF7E1FC40F2F733238001200AE01B78002BFAD0064B1B785806F4
:20334000F6D5CFE700230380032038BD3214002074BC200033140020488608400B282DE9B2
:20336000F74F8A4613D1082A40F08680002900F08380424B424A01F1FF3A53F8041993424E
:203380000AF8011FF9D1002003B0BDE8F08F0C2870D1042A70D100296ED03A4A3A4913687D
:2033A000DFF8F09023F0070313600B68DFF8E88043F008030B60D9F80030D8F80040106842
:2033C000DFF8D8E0DFF8D8C020F070001060DEF80000DCF80050DBB2240243EA0563A4B267
:2033E0000004234300F47F00034328480668F4B2019400240094DDE9006746EA03061368F8
:2034000023F0070343F0010313600B6843F008030B60D9F80030D8F800101568DBB225F0C9
:20342000700545F010051560DEF80020DCF80050090243EA056389B212040B4302F47F0288
:20344000134302680098D1B2894640EA0308FFF7B1F8B6EB080667EB0907F90305460C4A40
:203460000023F00341EA564107F016FA281ACAF8000088E7012087E7022085E7C48508404C
:20348000A485084010880840048808401C8808400048E8011488084018880840248808402A
:2034A0002088084008B5054B1B7813B9044800F063FD0022034B1A6008BD00BF3214002040
:2034C000B000002034880840064B07481A68042A1FBF06490A7842F040020A7000221A608F
:2034E00000F04ABD2C880840B00000203314002010B5094C40220021204607F059FC012230
:20350000064B1A604FF480425C60054B5A604FF400425A6010BD00BF0000002004F00F40E7
:2035200000E100E003289EBF014B0001195070470000002003289EBF024B03EB0010416041
:20354000704700BF0000002003289EBF024B03EB00108160704700BF00000020032806D882
:203560000123034A03FA00F0116808431060704728F00F40032806D80123034A03FA00F034
:20358000116808431060704720F00F40032806D80123034A03FA00F011680843106070478F
:2035A00014F00F4003289FBF044B03EB0010806800F0070088BF0020704700BF0000002006
:2035C0004FF0FF32014B1A60704700BF04F50F400122014B1A6070474CF00F40084B19461A
:2035E0001A68D002FCD4074B1A6822F480321A600A68D203FCD41A6842F400321A6070475F
:2036000004200D4000200D4010B50A4C236898070ED0094B1A4619684901FCD413685B0183
:20362000FCD5FEF7B1FFFFF7D9FF23680023236010BD00BF58200D4004200D4038B5264BF5
:203640001C6814F03F0414D1244D55F8243023B1984770B10134052CF7D1214D2B7843B1A1
:20366000FEF7A2FF0446FEF7A5FF201A092800D90CB930BF27E01B4B1A6822F400321A6028
:20368000194A11461068C002FCD41A6842F480321A600B68DB03FCD5FEF78CFF201A092875
:2036A00003D8BDE83840FFF799BF63280F4C0BD92B78022B08D1236000F014FC30B1FFF7F7
:2036C0008DFF0023236038BD0123F4E7FEF76CFF0028F4D02368CCE7488608409002002072
:2036E0003514002000200D4004200D4058200D400023064A52F82310814206D011B942F831
:20370000230070470133052BF4D17047900200200022054B1A60054A136943F004031361D8
:203720000122034B1A70704758200D4000ED00E0351400204FF48032064B10B5064CC3F8C4
:203740009021C3F89020206818B100F015FC0023236010BD00E100E0A402002010B5134BDE
:203760001B780BBB124A1278122A03D1114A12784B2A0FD001F52012273212E003F5201224
:20378000032BD4BF2C3224321478CA1A024402F8014C01338B42F1DB10BDD41A2478C4547B
:2037A00001338B42F9DBF7E70023E3E72B0028002A0028002900280038B5624C07F072FB74
:2037C000FEF79AFE07F02EFC00F030FB00215E4800F0BAFB00F022FAFFF764F807F004FC5F
:2037E00000F0F6FBFEF772FD01F0F2F900F0E4FB2368022B07DD554A5549564801F07AFFF8
:20380000554801F077FF2368022B09DD50494F4A504801F06FFF514B5148196801F06AFFCD
:203820002368022B09DD4A49484A4A4801F062FF4C4B4D48196801F05DFF2368022B09DD49
:203840004349424A434801F055FF484B4848196801F050FF2368022B09DD3D493B4A3D486E
:2038600001F048FF4AF6CD31424801F043FF2368022B08DD3649354A364801F03BFF1A2196
:203880003D4801F037FF2368022B09DD30492F4A304801F02FFF394B3948198801F02AFF95
:2038A0002368022B07DD294A29492A4801F022FF344801F01FFF2368022B02DD324800F077
:2038C0004FF92368022B02DD304801F013FF08222D492F4807F094F900212E4800F034FB3D
:2038E0004FF0FF3002F0BAFC23680546022B07DD164A1749174801F0FDFE274801F0FAFE68
:203900002368022B03DDD5B1A81C00F019F92368022B02DD1D4801F0EDFEFEF7FDFC1F4896
:2039200007F058FBFEF7C4FF00F098FA0446FEF7C5FF14F0FF0FF7D107F0BEFAF4E728462E
:20394000E3E700BFD0000020C000002080BD20000BBD200010BD200085BD20009CBC200002
:20396000BCBD20008CBC2000CBBD200074BC2000D6BD2000E1BD2000FBBD2000680D002070
:203980001BBE200028BE20004E290020DFBD2000A4210020B80100203DBE2000ECBC200034
:2039A00010B50446FEF7D8FDD4E900321344C01A024B98428CBF0020012010BDFEFFFF7F13
:2039C00010B50E4C236813B90D4A136010BDFEF7B9FD2168D1E9002313448A681B1A1AB978
:2039E0001844074B1860F1E7D2E900142144091A8B4228BF0B469268F1E700BFAC0200200E
:203A0000A8020020014800F0B7BA00BFC00000202DE9F8430388054653B1592B47D187291C
:203A200020D1002024490B6863B918B10B6001E0214A1360592301202B80BDE8F8830120FD
:203A40003346F1E7D3E902649442F8D000B10B6099680029EED0C86890420ABF89680B4644
:203A60009960F5E78229E5D1134F4FF00009B84600263C68002CDDD0204607F0E1FA98B144
:203A800022468821E06800F037FA58B9E060A3682EB1B360C4F80890FFF792FFE8E7C8F8F4
:203AA0000030F7E7FFF7AEFF2646A468E2E7002303800320C1E700BFAC02002010B5044607
:203AC000FFF7A0FFE3680B4A0BB1136833B90A4B1B68E36013681460A36004E0A34206D1E1
:203AE000054A1268DA60BDE81040FFF769BF9B68ECE700BFAC02002034040020024B186828
:203B0000003018BF01207047AC02002010B50B4A04461368834208D183681360FFF750FFD8
:203B20000023C4E9023310BD1346002BF8D09A68A242F9D1A2689A60F0E700BFAC0200204F
:203B400000B58BB002462821684604F003FE6946024801F0CFFD0BB05DF804FB6DBE200031
:203B6000F8B5054688B9BDE8F8400A4801F0C2BDE30702D4384601F0BDFD295D3046013453
:203B800001F0B8FD082CF3D1F8BD0024024E034FF3E700BF70BE200081BE20007FBE200069
:203BA000F8B5038806461546CBB14A2B2BD188291FD1174807F069FA0446C4B1231D9D4201
:203BC0001FD12146124807F06AFA124D62692F682A60A2690AB1E06990472F6007E00C48DE
:203BE00007F053FA044634B901220B4B1A704A23338001200AE0A168201D07F0F6F9246864
:203C0000F1E72468D9E7002303800320F8BD00BFB0020020340400203614002010B50024C6
:203C2000054B06481C7007F02DFA2146BDE81040034800F089B900BF36140020B002002068
:203C4000D400002070B50446E3610B4B049D1B78C4E905526BB1094D094B2E68201D2B600B
:203C600007F0C3F92E602146BDE87040054807F029BAA160F7E700BF3614002034040020C0
:203C8000D4000020B002002013B5034C24680094FFF7D8FF02B010BD3404002070B5094B0A
:203CA00005461B783BB1084C084B26680430236007F0A4F926602946BDE87040044807F02D
:203CC00001BA00BF3614002034040020D4000020B002002010B5084B04461B7843B10430C5
:203CE000FFF714FF2146BDE81040044807F0D7B9C0E90333F6E700BF36140020B0020020D5
:203D000010B50A4B04461B7823B1BDE81040043007F07DB9064807F0B8F908B9012010BDDD
:203D2000A04201D00068F8E70020F8E736140020B002002038B5836804460D469BB10A483B
:203D400004600220A07304F10C0098470238012801D9832D05D121462046BDE8384000F04D
:203D600005B80123A37338BD340400202DE9F8431C4F89463D682C46844204D00CB9BDE859
:203D8000F8832468F8E7002CF9D0174EA37BD6F8008063B10023A3738DB9A3683BB14C455C
:203DA00005D034602A46832104F10C0098473B68A3420ED123683B60C6F80080DFE7AC4227
:203DC00004D022468721284607F026F92D68E3E71346002BF0D01A68A242F9D122681A60A4
:203DE000EAE700BF3804002034040020002238B50125084B1A70084B1C6804B938BDE37B86
:203E00002BB1E581002282212046FFF793FF2468F3E700BF3A14002038040020024B1878E1
:203E2000421C1A70704700BF381400208A22064B1A700023054A1370054A1370054A1360A8
:203E4000054A1360704700BF38140020371400203914002038040020340400202DE9F041EB
:203E60001B4D2B780BB1FFF7C1FF1A4C22789AB10C21194E194F3378013A59430133781838
:203E800003F01F0317F801803370D0E90170227090B9134B1E6826B92B7820781844BDE8D6
:203EA000F0812B780BB1FFF7A1FF30463A46414607F0B2F83668EEE7B8F1810F08BF0123E7
:203EC0003A4608BF8373414607F0A6F8E4E700BF3A1400203914002037140020B4020020E3
:203EE00038040020024A034B10781B7818447047391400203A140020F0B50B4E3378202BCF
:203F00000FD00C25094C0A4F24781C4404F01F046C433D19C5E90120002001333955337077
:203F2000F0BD0120FCE700BF3914002037140020B402002038B5034C256807F06DF82560B9
:203F400038BD00BF3404002030B40A4C0A4625682B4683420CD04BB950B1012105608173AC
:203F600020608381812130BCFFF7E4BF1B68F0E730BC70473804002038B1837B013B012BEE
:203F80009FBF0123014AC373137070473A14002010B5084C206858B100232360D0E901313B
:203FA0009847236823B1BDE810401868FEF714BB10BD00BF3C040020034A9179D379034AAE
:203FC00003EB0123138070474E290020680D0020CD2182B0064B02AA42F8043D934204D315
:203FE0000021044802B0FFF7AFBF03F8011BF5E76F290020E400002038B5FEF75FFC0C4CFA
:204000000C4D2378CD2B0DD0AC4208D3FEF756FCAC423ABF2C1BA0B24FF6FF7038BD013469
:20402000EFE701342378CD2BF0D1AC42F9D3EDE76F2900207031002070B50388054603B369
:20404000902B27D1154806F0E2FF08B3FFF7D4FF134C144B0646E41AA3B298420DD9124B7B
:204060001B68002B09DD114A1149124801F042FBA2B23146104801F03DFB084806F0BEFF20
:2040800004E04FF4A061054806F0AFFF90232B80012002E000230380032070BD400400204C
:2040A000703100206F290020D000002095BE20009BBE200010BD20009FBE200010B5044632
:2040C00090F84730084A013380F84730802103462030FFF7D9FD054B2246BDE81040197828
:2040E0000020FFF709BF00BFBD4020006B2900202DE9F04103880446B3B1CB2B29D1822937
:2041000014D106F00AFFBFF35F8F0022134B1E681A60BFF35F8F06F004FF0127104DDFF8A6
:20412000448055F8040F18B9CB232380012013E090F8453007FA03F33342F2D0FFF7E0FDE7
:204140000028EED02B68424602211846FFF79CFDE7E7002303800320BDE8F0815C04002021
:204160005800002081412000034A1368184310600248FFF701BF00BF5C040020F4000020FF
:2041800070B50446FFF7BCFD20B304F120063046FFF7B6FD0546204606F060FF012811D1E3
:2041A000C5B1002523460C4A84F847507E213046FFF76AFD2246094B2846BDE87040197810
:2041C000FFF79ABE30B92DB93046FFF783FD2246034BF1E770BD00BFBD4020006C2900208A
:2041E0006A2900202DE9F843FFF718FE314B324E1870FFF713FE314B314D1870FFF70EFEA0
:20420000304B314F18700023B360304BDFF8C880DFF8C890736055F8041F39B92C48FFF77D
:2042200093FEBDE8F843244800F04AB9012491F8453091F84620D9080903C85903F0070391
:2042400004FA03F320EA0303CB512B6893F84530D908090351F8080003F0070304FA03F37C
:2042600020EA030341F808302B6842F08C0193F84500FEF74FFC2B6893F84530DA081203D1
:2042800052F8091003F0070304FA03F30B4342F809302B680F4A93F84530DB0804FA03F346
:2042A00013602B6893F845309C40B3681C43B460B1E700BF6C290020500400206A2900205B
:2042C000580000206B29002020940D4069412000F400002000E100E000940D4010940D4040
:2042E00070B5058804466C2D09D07E2D2FD0002D33D1FFF793FD1B4B18701B4B1D601B4EB5
:20430000194D08E00A282B680ED07E2B03DC5A1C2A60174AD054304606F063FF431CF1D1B0
:204320006C23238001201BE05A1C2A600025104A2846D5540B4B1978FFF7DEFD0D4B2A4699
:2043400085211868FFF7D8FD18B97E23E9E78529E8D10022044B1A60D1E700230380032057
:2043600070BD00BF6D29002060040020640400203B140020340400200D2810B5014616D0A1
:204380000C4C237853B90C4806F018FF08B9012323700A48FFF7F0FD012010BD0A28F8D127
:2043A000054806F00BFF0028F3D00023F0E70020F3E700BFBB140020640400200401002076
:2043C00008B505490548802206F0F1FEBDE8084000210348FFF7B8BDBC14002064040020C2
:2043E000040100200022F0B594460126FF270F4D40FA02F3DB0711D515F8121005EB4204F2
:20440000CB081B03647803F1804301F0070103F5592306FA01F12CB143F821C00132032A60
:20442000E6D1F0BD43F82170F8E700BFFCBC2000F0B500210126FF270E4D40FA01F3DB0758
:2044400011D515F8112005EB4104D3081B03647803F1804302F0070203F5592306FA02F214
:204460002CB143F8227001310329E6D1F0BD43F82240F8E7FCBC2000F0B4002101260D4F34
:204480000D4D0E4C17F811300131DA081203505903F0070306FA03F320EA0300505110593C
:2044A000032943EA00031351ECD1F0BC0720FFF7BFBF00BFFCBC200020940D4000940D40BF
:2044C0000146014806F0FEBD6C04002038B50546064806F0DAFD044604B938BDA06828404C
:2044E00002D0636803B198472468F5E76C040020014806F0C7BD00BF6C040020064A1368B7
:2045000043F004031360054B186804331B6840EA032080B2704700BF00700D4014700D40E1
:2045200010B5174A136823F00C0313600122154B1A601A68012AFCD10822134B13491A6070
:20454000E32203F505731A601A460B68DB07FCD50F4C102100232068013900F0010043EA57
:2045600000034FEA43039BB2F5D1002BF1D00949180A03F0FE0308600B60EF23136010BD2D
:2045800000700D40A8200D4024860840648608409C86084014700D4008B5044806F0B1FD3D
:2045A000BDE80840024806F0ACBD00BF2001002014010020014806F0ECBD00BF1401002054
:2045C00038B50E4806F0ADFD054650B10C4806F0A8FD0446286030B92946084806F0B5FD9B
:2045E0002546284638BD00F0FBF904F19C01A4F8800004F1820000F07DFAF2E7140100206F
:204600002001002010B501460446074806F0B3FD48B12168054806F098FD2146BDE8104058
:20462000014806F092BD10BD140100202001002010B501460446094806F09DFD68B12468CD
:20464000B4F88010204600F03FFA04F19C0104F18200BDE8104000F05FBA10BD1401002086
:2046600030B1054B9B68C01A044B8010584370474FF0FF30704700BF2C010020ABAAAAAA21
:2046800038B50D4D002818BF05460C4806F0FDFC044610B94FF0FF3038BD211D284606F02E
:2046A00004FE20B12046BDE83840FFF7D9BF204606F024FDECE700BFF4BC2000B004002063
:2046C00008B5024606F0B3FD42B1431C06D0044B1268185C104100F0010008BD0020FCE7C0
:2046E0006C15002050B10368072B06D8044A52F823301B1A5842584170470020704700BFFD
:204700009004002010B50446FFF7ECFF10B1A160012010BD054A1368072BFAD8581C106093
:20472000034A2360A16042F82340F1E77405002090040020F8B505460C460C270E4E2146A6
:20474000284606F074FD431C16BFB368002007FB003006F0D3FCFFF783FF0146284606F0FB
:204760005CFD044628B101462846FFF7A9FF0028E5D02046F8BD00BF2C01002038B505462E
:204780000B4806F082FCFFF76BFF0146284606F044FD044601462846FFF792FF28B9214638
:2047A0002846BDE83840FFF7C5BF204638BD00BFB00400202DE9F0474B4D0646002918BFD5
:2047C0000D46284690469946FFF75AFF421C044652D1464C204606F0A4FC074600283FD136
:2047E0004946404604F072F818B900242046BDE8F087FFF745FF431C4ED0A3680C2404FBDE
:204800000034002C48D03A4B1A5C02B11F540027DFF8E8A020465AF82720FFF721FF01461D
:2048200082B1D2F80880B8F1000F0BD0104606F0F4FC014681461046FFF742FF012801D18E
:204840004846C0470137082FE4D12046FFF708FF0022284B21461A54274806F020FC2746E4
:204860003946254806F02EFC3846FFF7F9FE29460446381D06F016FD2146304606F0CDFC0E
:2048800004467268002106F093FA012322463146184806F0D7FCA9E7174806F0F6FB00242A
:2048A00002462746DFF84880DFF8489012B9002CADD19AE71046FFF7D3FE18F800304BB99E
:2048C00019F8001059B90CB1BB4203DA1446002B9DD01F46104606F011FC0246E6E7C8077A
:2048E00048BF01334910EDE7F4BC20002C0100204C1500206C150020B00400209004002089
:2049000070B50A4604460D4600230146054806F099FC064600232A462146034806F092FC2E
:20492000304670BD6C1500204C1500200A4601230146014806F086BC4C1500200A46002382
:204940000146014806F07EBC4C15002008B506F06EFC431C07D00C22044B9B6802FB003016
:2049600000B1043008BD0020FCE700BF2C01002010B507490B88834208DB064C80B2228800
:204980000244181A08800120228010BD0020FCE7CA120020CC120020014B1880704700BF30
:2049A000CA1200200048704778050020014B1888704700BFCA120020034A044B10781B784A
:2049C0001844C0B2704700BF7C150020CC12002008B5FFF7F1FF014B184408BD7805002037
:2049E00070B50D4D0D4C2A78238806461344802B0FDC0B4906F004F92B781E44FFF7E8FF30
:204A000022880146304606F0FBF828782388184470BD0020FCE700BF7C150020CA12002003
:204A20007805002008B5FFF7C7FF024B1B88184480B208BDCA12002010B50146FFF7F2FF2E
:204A40004318802B0FDC094B013800B25A18040405D5074B187808441870012010BDC45C0E
:204A600014540138F3E70020F8E700BF780500207C15002038B5094D094C1A220021094869
:204A800006F096F92946204606F00CFC294604F10800BDE8384006F005BC00BFF4BC2000EF
:204AA00024290020342900200023044A1380044A1380044A1370FFF7DDBF00BFCC12002007
:204AC000CA1200207C15002038B50C460546FFF7EBFF802C28BF802429462246034806F070
:204AE0008FF8034B20461C8038BD00BF78050020CA12002010B50C461A22054906F080F883
:204B00002046BDE810401022024906F079B800BF342900202429002010B50C461A22014653
:204B2000044806F06DF82146BDE810401022024806F066B83429002024290020024B23F890
:204B400010100120704700BF34290020014B33F8100070473429002008B5044B0D3803EB27
:204B6000C00006F09FFB012008BD00BF24290020024B0D3803EBC000704700BF24290020B0
:204B80000149024806F091BBF4BC20002C29002070B505460D480E4606F077FA044600B977
:204BA00070BD012D0AD1A3681BB9204606F0A6FAF4E7304698470028F7D0F1E7002DF4D1FB
:204BC0006368002BF1D09847F5E700BFF8050020054B10B51B689847044B5B689847BDE87A
:204BE0001040034B5B681847A0BB200074BC20008CBC200010B50848FFF750F80748FFF72A
:204C0000BDFD064C00B910BD037A01465B0803722046FFF78FFDF5E7082000203801002001
:204C20000146014806F02BBB38010020F8B531F0020307460E4615462FD10146174806F044
:204C40001EFB044650B90346092239461348FFF7B1FD044608B306F042FBA080FDF772FC3C
:204C6000237A20602B44102BA8BF10232046022E237208BF0C3506F020FB002814BF0A2268
:204C80001922ED01ADB25543A388C2F1640101FB03556423B5FBF3F5A580F8BD380100200B
:204CA00038B505460420FFF751FF294604B20E4806F0E5FA034658B9092229460A48FFF7C6
:204CC00079FD024618B1C48006F009FB908038BDB0F906200A205A21604301FB020264216E
:204CE00092FBF1F2DA80F2E73801002038B50848FFF744FD0446064D04B938BD2146284620
:204D0000FFF7FEFD21462846FFF714FD0446F3E73801002010B500210548FFF7F3FCBDE88C
:204D200010400023034A4FF4E1310348FEF7ACBF38010020F54B200008200020F8B5FDF711
:204D400001FC002504460E4F0D2007EB0516FFF70FFF314606F0A9FA68B10720FFF7F6FE12
:204D6000337B83420AD1B068201AB0F5206F8CBF00200120F8BD0135102DE5D10020F9E7F5
:204D8000BC06002070B5144D00242E460D20FFF7EFFE05EB041106F088FA013408B9102C54
:204DA000F4D12401103C0FD10720FFF7CFFE3073FDF7C8FBB0600D20FFF7DAFEBDE8704039
:204DC0000146054806F06EBA60191022A0F1100105F016FFE6E700BFBC06002030B591B036
:204DE000054600F063F84FF6FF73984204D14FF0FF34204611B030BD40220021684605F00B
:204E0000D7FF274B1A782AB901221A70FFF776FB244B18707DB10720FFF798FE58B9214C6B
:204E200023780BB90123237021780720FFF786FE237801332370FFF7A3FE6A46C1B21A48A4
:204E400006F0BFFAFFF79CFE08B34FF6FF73ADF800300D20FFF78CFE014602A806F022FA1C
:204E6000FFF7B6FD0E90FFF7A1FD0F90684606F09BFB0446002DBCD0FFF7DEFD0028B6D0FC
:204E8000FFF790FD0146684606F0D6FBB1E70E20FFF76EFE0146684606F004FAD9E700BF43
:204EA0007D1500207E1500204D4B2000014B1888704700BF5C0200202DE9F041012986B04E
:204EC00006460F46144603DC002006B0BDE8F08103A906F0F8FB0A2203A904F1100005F0A5
:204EE0008FFE9DF81130002B44D0B51C02AA01A903A806F0AAFA9DF81380B8F1000F4CD0A8
:204F0000029B23B16A7815F8023B03EB0223B8F1020FA38332D13249204606F0C3F96B7888
:204F2000237015F8023B63709DF81580B8F1000F4DD0019B002B37D06A7815F8023B03EBDA
:204F40000223029A9BB2E38302B9A383B8F1020F2DD1234904F1080006F0A4F96B782372D0
:204F600015F8023B6372A81B3B1A8742C4E90E53AADBAAE7B378F51CA376B7E7B8F1030F5F
:204F8000D2D105F108021346611E13F8010D9D4201F8010FF9D11546C6E71149204606F00D
:204FA00081F9A4F81C80BFE7A38BE383CEE7B8F1030FD8D105F10802134604F1080113F88A
:204FC000010D9D4201F8010BF9D11546CBE7044904F1080006F066F9A4F81E80C3E700BFC6
:204FE000F4BC200070B505460C460A4E102C07D874B12B68224668680649BDE870401847B9
:205000002B68102231466868984710B9103CEDE7204670BDE5BE20002DE9F04F074614466A
:2050200000258FB00791079B1B78B3B1DDF81C8000E0B046464616F8013B0BB1252BF8D1E9
:20504000079B98450ED0A8EB03094A463B6807997868984728B14FF0FF3528460FB0BDE8A4
:20506000F08F4D4498F80030002BF6D098F80130002BF2D04FF0000A314611F8012B334653
:205080002B2A16D00AD8202A16D0232A17D0A2F1310008283FD84FF0000918E02D2A04D019
:2050A000302AF4D14AF0100A01E04AF0010A0E46E2E74AF0060AFAE74AF0020AF7E74AF0B1
:2050C000080AF4E70A2303FB0929A9F13009334616F8012BA2F130010929F3D91A782E2A54
:2050E00035D159785A1CA1F13000092828D8002611781346A1F13000092802F101021AD98C
:205100001A786C2A40F092805A786C2A22D14AF0800A023321E02A2A0AD1D4F800900B46F4
:20512000B9F1000F04F10404B8BF4AF0010AD5E74FF00009D2E70A2303FB0616303ED7E7CD
:205140002A2903D1266802330434D9E713464FF0FF36D5E701334AF0600A1A78642A00F0FC
:20516000928000F28580462A00F0AF8071D8252A00F0C08066D8002A3FF46FAF0133079348
:205180000AF4E063B3F5806F00F0568200F2B580B3F5807F00F0EA80B3F5407F7FF443AF7B
:2051A000AF4B1AF4804FAF4A18BF1A460DF1330300211E462068043450EA010C40F0748202
:2051C000F61A04BF302203F8012C4FF0780208BF03F1FF3303F8012C4FF0300208BF012655
:2051E00003F8022C23220336B1458CBFA9EB06094FF000091AF0010AA3F1030803F8032CFE
:2052000006D149463846FFF7EDFE00287FF423AF3B68324641467868984700287FF41BAF96
:205220003544BAF1000F00F03682ACE1682A94D15A78682A02D14AF0200A6AE701334AF0B5
:20524000400A8AE7412A4CD0452A97D14AF4424A94E7582A33D004D8472A8FD14AF4A13AA5
:205260008CE7612A3AD0632A88D14AF4A06A85E76E2A3CD00AD8662A24D029D3672A2AD0FB
:20528000692A7FF47BAF4AF4245A77E7732A2BD007D86F2A10D0702A7FF470AF4AF4407AB0
:2052A0006CE7752A05D0782A7FF468AF4AF4C85A64E74AF4106A61E74AF4885A5EE74AF4AD
:2052C000B24A5BE74AF4007A58E74AF4844A55E74AF4024A52E74AF4813A4FE74AF4C13A26
:2052E0004CE74AF4E13A49E74AF4806A46E74AF4E06A43E74AF4C06A40E7B3F5C06F2BD08A
:20530000B3F5E06F00F0DF81B3F5A06F7FF48BAEB9F1010F38BF4FF0010923681AF001064D
:2053200004F104048DF8203009F1FF3807D141463846FFF757FE00287FF48DAE45443B6840
:20534000012208A97868984700287FF484AE002E00F0A181414617E13B68012242497868FD
:20536000984700287FF477AE01355CE6002EACBF2AF0100A01261AF400520AF0E00306924D
:2053800043D0402B3AD009D8002B3AD0202B11D000220023CDE90023002319E0602B30D07E
:2053A000802BF5D1073424F0070303F10804D3E9002303E094F90020D3170434002A73F104
:2053C0000001E7DA524263EB4303CDE90023012305930AF4C053B3F5805F00F0EB80B3F5B3
:2053E000C05F00F0EC80B3F5006F40F00381DDE900230DF1360BCDE9022348E0B4F900206F
:20540000DAE722680434D317D8E7402B1FD009D8FBB1202B14D00023002205930023CDE994
:205420000023D6E7602B14D0802BF4D1073424F0070303F10804D3E90023CDE9002304E0B8
:2054400022780023CDE900230434069BC0E72288F7E72368002219460434CDE90012F4E7C7
:2054600005BF200016BF200038BF2000DDE902010A22002305F010FADDE9020130320BF8F7
:20548000012D00230A2205F007FACDE90201DDE902231343EAD10DF13603A3EB0B0302937C
:2054A000029B41F608029E4288BFF61A41F208030AEA020298BF00269A4202D1002E08BF80
:2054C000012641F60801029B8A42334440F09680DDE900120A4300F091807D491AF4804F76
:2054E0007C4A08BF0A464FF002080092069A82B1059A002A40F087800AF00602022A00F003
:205500008780062A744A009904BF11464FF001080091434499458CBFA9EB03094FF0000972
:205520001AF00103059304D11AF0100F74D04E449946D7E90030B8F1000F05D04246009974
:20554000984700287FF487ADB246029B1D44BAF1100FD7E9003066D8BAF1000F05D0524688
:205560005E49984700287FF476AD3B68029A594678684544984700287FF46DAD059B3544F3
:20558000002B00F0888049463846FFF72BFD002800F081805FE502F0070130310BF8011DE4
:2055A000D10841EA4371D8080A46034652EA0301F1D170E7DDE900230DF1360BF6E7484BC9
:2055C0001AF4804F0DF1360B464918BF1946DDE9002352EA03003FF45EAF02F00F00085C1D
:2055E0004FEA131C0BF8010D100940EA037002466346EEE70DF1360B002350E74FF00008D6
:20560000CDF8008072E74FF00108374A009280E74FF00108354AF9E749463846FFF7E2FCA2
:20562000002886D017E510222C49984700287FF412ADAAF1100A8AE7D4F800B00434BBF18A
:20564000000F2CD0D84698F8003008F1010223BBA8EB0B08002E02DBB04528BFB046C145FE
:205660008CBFA9EB08094FF000091AF0010606D149463846FFF7B6FC00287FF4ECAC3B687F
:20568000424659467868984700287FF4E4AC4544002E7FF478AF4D44C5E49046D3E7DFF807
:2056A00050B04FF00608D5E700F00F0C12F80CC04FEA111E03F801CD4FEA101C4CEA017CB7
:2056C0006046714678E5236804341D60ABE400BF27BF20002ABF20002FBF2000F5BE200092
:2056E00005BF200016BF20002DBF20005FBE200031BF20000FB407B504AA52F8041B044896
:205700000192FFF789FC03B05DF804EB04B07047480100201FB51446074ACDE900010292E6
:2057200021461A4602A8CDF80CD0FFF775FC0022009B1A7004B010BD3DB72000014B1B6A43
:20574000184700BFA0BB2000014B5B6A184700BFA0BB200007B5FFF729F903281BD00F4BC2
:205760009B689847002816DB0E20FFF701FA0C4905F09BFD58B1FFF7E1FA60B9FFF702FB47
:20578000084B9B68019303B05DF804EB1847FFF7F7F90028EFD103B05DF804FB68BC2000B0
:2057A0004E2900208CBC200070B590F82D100546012994BFCC1C0524FEF7A0FE0121A14091
:2057C0000139B0FBF1F42B4604FB1101034A05F10C00BDE87040FEF757BA00BF5D5820003F
:2057E0002DE9F0470D4614468B688046D3E90067506B92F82C9005F052FC6868FEF702FFC9
:20580000A968124805F0A1FC2946114805F09DFC606B05F03AFC60B100232046A385FFF787
:20582000C3FF4B46424639463046BDE8F04705F077BD04F10C00FEF74DFA2146054805F0AD
:205840002EFC2146044805F080FCEAE750010020680100201C0800205C0100202DE9F7431E
:20586000044600283DD0406B05F00FFC002838D04068FEF7DDFE6D490D20FFF76DF90121F5
:205880000820FFF75BF96A4B5B68984700286ADBFFF788F8674E87787568FFF783F8804694
:2058A000FFF7C0F801464046A847FFF769F9D6F818808146C04708B101250CE0B9F1000F6E
:2058C00012D0B568FFF7AEF8A847054688B102280CBF01250425606B05F0D7FB0646002870
:2058E00043D103B0BDE8F083F36998470028E8D0E2E7B9F1000FEED1FCF75CFE0546FCF7E2
:20590000DDFFC5F1FF2505F57F05F335FCF752FEC542FBD4C047D6F81C80D8B1FCF74AFEDD
:205920000546FCF7CBFFC5F1FF2505F57F05EB35FCF740FEC542FBD4C04790B133690321D8
:2059400001A898470328B7D19DF80630BB42B3D10025C0E7C0470028E0D173699847002831
:20596000DCD00225B7E70525B5E70721706805F04EFC07460720FFF7E9F8874244D0304613
:2059800005F0BCFBAAE700202246314694F82C3084F82D00013384F82C30FFF721FFA0E791
:2059A000002384F82D3094F82C300133DBB284F82C30127A9A421CD8224631460220ECE73A
:2059C00094F82D300133DBB2052B84F82D3007D9002194F82C3084F82D10013384F82C3066
:2059E00094F82C10137A994203D3224631460120D3E72046FFF7D8FE706805F002FC70E793
:205A0000224631462846C8E7B268002A3FF469AF032DF5D801A353F825F000BF875920003B
:205A2000C1592000A1592000E35820004E29002068BC2000A0BB20002DE9F04107460E209F
:205A40008846FFF795F8454B05461A78444C22B901221A70FEF752FD207023780BB9012319
:205A60002370217807204B1C2370FFF767F801210C20FFF763F83B4805F007FB04460028F9
:205A800040D1394805F04DFB044600285BD02946201D05F007FC002304F13000C4E90C30C5
:205AA000A38505F0EFFA21462E4805F00BFB606B05F01DFB072846DC2C4805F032FB0546FE
:205AC000002834D02A4805F02CFBA86058B3FEF777FD686018B30620AE68FFF737F8C0B22A
:205AE000D0B13072C6E900782946606B05F0EAFA606B05F0CAFA85422DD12046BDE8F041C4
:205B0000FFF752BE2946201D05F0CFFB0028CED1204605F0F3FAB1E708233372E2E7A968C3
:205B2000134805F012FB2946104805F00EFB606B05F0DDFA38B921460A4805F0B0FA2146FC
:205B4000094805F002FB41463846BDE8F0410123042205F0E5BBBDE8F08100BF7F150020BF
:205B6000921500201C0800205C010020680100205001002008B5064805F0C3FA054805F0A4
:205B8000C0FA054805F0BDFABDE80840FEF704BD68010020500100205C01002005289ABFB2
:205BA000024B33F810000020704700BFCE12002010B5044C0C220021204605F0F9F80023F4
:205BC000238110BDCE1200202DE9FF476F46234C234D04F108030FCB87E80F002B7894F8DD
:205BE0000780BBB13A221F49A2710A88D21A92B20A80A2F128010812207103F128002044A8
:205C0000C3F1040361712C3A011D184405F06EF800232B70144805F038FA0646DFF844A074
:205C20003EB9104B2E701E80FFF7C2FF04B0BDE8F087D6F80490B9F1000F09D0BAF8003079
:205C40002A782C3B38329BB2224441463846C847304605F053FA0646E2E700BFAC21002091
:205C6000A61500209C210020F0080020F8B52C4B2C4C1B7904F11806E371237E04F108051A
:205C8000FF2B31D195E80F0086E80F003146284600F0D0FB244D2B78BBB13A222349A271D4
:205CA0000A8803F12800D21A92B20A80C3F10403A2F1280120440E1261712C3A011D1844CF
:205CC000267105F013F800232B7081212B782833E218E1520023538005F053FEC0432B78C0
:205CE000134A13445880F8BD2F46124A3B4603CBB342106051601F4602F10802F6D196E886
:205D00000F0085E80F000B4B0B4D03F110062A4618685968083303C2B3421546F7D1B9E7D7
:205D200030200020AC210020A61500209C210020D4210020DA120020C421002038B50446F1
:205D40000B480D4605F0A1F908B901200FE00379A34204D143799D4204D0FF2B02D005F0A7
:205D6000CDF9F1E78368002BEFD09847002038BDF40800200146014805F0A4B9F4080020A2
:205D80002DE9F84F484D82462B78894693465BB1464A9B5C3A2B0FD10023454A2B70138046
:205DA000BDE8F84FFFF704BF424B9A793A2A03D193F92830002BEFDA3F4C404B04F110066D
:205DC0003746A0461B6B98473D4A234603CBB342106051601C4602F10802F6D1344E2878DF
:205DE0003388344C30339BB2B3F5A06F88BF4FF4A063338032882146121A04EB4000303ADB
:205E0000303004F073FF60232A7823603A23002A47D084F828302B4B1B79E371238973B96C
:205E2000638963B9A38953B9E38943B9238A33B9638A23B9A38A13B9E38A002BACD0224BDE
:205E40000FCB88E80F001E4B1B78FF2B05D1BAF1040FA1D1B9F1020F9ED119491A4800F0DF
:205E6000E9FA95F80080584608F12803E21804F803A082F8019001F039F9144B43F8080007
:205E80003388283B1A122271002263712B783B445A8005F076FDC0432B781F447880BDE825
:205EA000F88FA371B7E700BFA6150020D42100209C210020AC210020C42100209CBC2000B3
:205EC000DA12002030200020B4210020D82100202DE9F0411D466023174C884623603A23FA
:205EE000A371164B04F118061B791746E3712B1D1A126371227101461022304604F080FE99
:205F000031460F4E04F1080000F094FA33782C35283303F804801A1900235770538005F067
:205F200030FDC04333781C44064B60851D80BDE8F04100F0C7BC00BFAC21002030200020EE
:205F4000A61500209C21002008B50448FFF712FFBDE808400248FFF70DBF00BF8001002020
:205F6000740100201FB50C46074B01469B696846984710222146684604F010FEB0FA80F0D9
:205F8000400904B010BD00BF9CBC200070B506460B480D4605F079F8044608B9204670BDE5
:205FA0001DB9204605F0AAF8F6E7A3689E42F8D129462046FFF7D6FF0028F2D0EEE700BF5F
:205FC000F808002030B505460C460E4B85B05B696846984721462846FFF7D8FF69460446A5
:205FE0002846FFF7D3FF11234CB1844201D0013B03D1231A5842584102E06469F4E7204633
:2060000005B030BD9CBC20002DE9F843904606460F469946FFF7BAFF414604463046FFF7D3
:20602000B5FF0546B8F1000F0DD060B902464FF0FF3341463046FFF7E7FF054618B90024E1
:206040002046BDE8F8837CB9154805F06AF804460028F4D0002301464361124805F032F814
:20606000114A1368013313600822C4E90196B91804F10C0004F0C4FD39463046FFF7A2FF22
:2060800058B1D4F81480394665613046FFF79AFF0028D5D1C4F81480D2E76561D0E700BF3A
:2060A0008C010020F80800207C0A0020002208B5044B05481A6005F024F8BDE8084003482F
:2060C00004F0E0BF7C0A00208C010020F80800202DE9F8430546184804F0D7FF0446164E46
:2060E000DFF85C80154F0CB9BDE8F883204605F005F863688146B3B9304604F0C6FF60B906
:206100002146304604F0CBFF2146404605F01DF83B68013B3B604C46E5E74369A342EFD0C5
:2061200004F0ECFFEBE75A1CF5D0AB4294BF00235B1B6360EFE700BFF80800207C0A00207C
:206140008C0100202DE9F0410D4804F09EFF04460B4E0C4F0C4D0CB9BDE8F081204604F0D9
:20616000CDFF80462146304604F099FF2146384604F0EBFF2B684446013B2B60EBE700BFEC
:20618000F80800208C0100207C0A00202DE9F341154D0446CDE900150E4690461F462022FA
:2061A00003460321114805F00DFB01282B4618D12A6804F11001107020462A68023250F80D
:2061C000044B884242F8044BF9D11868089B86744361099B80F813800777836102B0BDE82A
:2061E000F0810020FAE700BF880A00202C21002070B506460C4D0D4C256060352068A842A0
:2062000001D3002070BD03781BB9236820332360F4E7827C3146D208023004F0BFFC00287A
:20622000F3D10120EEE700BF2C210020880A0020802313B5074C0093019403462022032131
:20624000054805F0BFFA10B9206802B010BD0020FBE700BF800A00204820002030B548F261
:20626000FE040B490B4A1160603113688B4202D30023184630BD1D783DB1451C02D09D7C17
:20628000854202D15D88A542F3D020331360ECE748200020800A0020802337B50F4D00938C
:2062A000044603460195122205210D4805F08AFA01282B460FD12A6804F110011070204695
:2062C0002A68023250F8044B884242F8044BF9D1186803B030BD0020FBE700BF840A0020B5
:2062E000CC2000208023F7B5214C0093054603460E4617460194202203211E4805F062FA4C
:20630000012832D12A46236805F1100118702368023352F8040B8A4243F8040BF9D1206846
:20632000C774DEB9012303750122236812489A7440F2FF230380002343808380C380038152
:206340004FF480734381FF2303736B7B4373EB89C381FFF7A1FF206803B0F0BD002331463F
:206360000375183004F02FFEDEE70020F4E700BF800A002048200020EA120020802313B504
:20638000074C00930194034612220521054805F019FA10B9206802B010BD0020FBE700BFF9
:2063A000840A0020CC20002038B50546C8B140F2FF230C48002403804FF480734381FF2307
:2063C0000373EB7B448043732B8A8480C4800481C381FFF7D3FF044A106008B105F018FA5B
:2063E0002C7038BDEA120020840A002038B50E4D0E4C256060352068A84206D300F090F9C2
:20640000BDE838400A4804F0F9BD037843B1037D33B91830FDF7C4FA10B12068FFF7C4FF8C
:20642000236820332360E6E748200020800A00208C2100202DE9F84F48F2FE030A880546BA
:206440009A420F462ED00A78FF2A2BD000241C49A04689469B461B4A0A6002F1600AD9F84B
:20646000006056450AD314BB2C806C80AC80EC802C816C81AC81EC81BDE8F88F33786BB11E
:20648000B37C012B0AD173885B4507D0B11C384605F0D8F980459CBF344680462036C9F8CC
:2064A0000060DCE70120FFF7D9FE0446DBE7A31C123453F8042BA34245F8042BF9D1DBE763
:2064C000800A00204820002070B5094EB0684508FEF714F80446FEF711F82402B268A4B2CA
:2064E0002044B0FBF2F302FB1300284470BD00BF3020002073B5304C00F042F900F084F895
:20650000602200212D4804F053FC0021F822204604F04EFC20222A4B40261A701822294BEC
:2065200026711A704FF4A06323604EF66023A360FFF7CAFF4FF47A730025236148F2FE03D4
:20654000E0602575204C2A46238065802B46A580E5803146CDE900552046FFF717FE2046A9
:206560001A4905F059F9294601222046FFF7BAFE40F2FF264FF480732046E38126806580E9
:20658000A580E58025816581A581FFF785FE4FF40073204626806580A580E5802581658189
:2065A000A581E381FFF778FE0C21094802B0BDE8704004F01ABD00BF302000202C210020F9
:2065C0002921002028210020EA120020A42100208C21002038B5094C69B1B2F59A6F0ADC28
:2065E000074D22802860074804F080FB042000F089FB00F067F90023238038BDC0260020B6
:20660000B4260020DC21002008B5044804F079FDBDE80840024804F035BD00BF980100205B
:206620008C0A002038B505460A4804F02EFD044600B938BDAC4209D12146064804F02FFD66
:206640002146BDE83840044804F07FBD204604F055FDECE78C0A00209801002038B5054614
:2066600010B90024204638BD084804F00EFD04460028F6D010222946201D04F08FFA0028C8
:20668000F0D0204604F03AFDF1E700BF8C0A0020F8B50E46054610B900242046F8BDFFF712
:2066A000DDFF044648B9104804F03BFD04460028F2D001460D4804F012FD2B46251D03F1B5
:2066C00010072A4618685968083303C2BB421546F7D13EB1314604F1140004F074FC0023DC
:2066E0002377DAE70123FBE7980100208C0A002038B50A4804F0C9FC002504460CB9284630
:2067000038BD251D284600F073F810B1437C002BF5D1204604F0F2FC0446EFE78C0A0020EA
:2067200038B50D4804F0B1FC04460B4D04B938BD237F63B904F11400FDF732F938B12046ED
:20674000FFF770FF284604F0A0FC0446EEE7204604F0D4FCF9E700BF8C0A002010B5044629
:2067600048B1054B9B6C9847044B2146BDE810401868FEF7C5B810BD9CBC2000A401002043
:2067800008B5FEF7C7FA034B03491868BDE80840FDF7B8BFA40100205D67200070B50446FC
:2067A0000D481E469DF81020059B0068FEF702F8054670B120462B4604F1100250F8041BB3
:2067C000904243F8041BF9D1044B6E7428469B6C9847284670BD00BFA40100209CBC2000A7
:2067E000024B01461868FEF7B1B800BFA401002070B50C4D06462868FDF7C0FF044676B91D
:206800000024204670BD10223146204604F0C6F90028F6D021462868FDF78CFF0446002C25
:20682000F1D1EDE7A4010020024B0146186804F026BD00BFA401002013B504460146012014
:20684000FEF7A6F938B92046084BDB68019302B0BDE8104018470024054B1C80054B1C7031
:20686000FFF7A6F9204602B010BD00BF8CBC20009C210020A615002010B5144600F0FAF9BD
:2068800018B1024B1B68C0E9063410BD34040020002108B50846FEF77BF9024618B9022186
:2068A0000548FDF747FB0023044A1380044A1370BDE80840FFF77CB9B80100209C210020B2
:2068C000A6150020F0B5384E89B033883BB3B3F5A06F5BD8354C238B73B9638B63B9A38B53
:2068E00053B9E38B43B9238C33B9638C23B9A38C13B9E38C002B49D02D4F7B6B984728B9EC
:206900002C4B30801870FFF753F908E0237EFF2B45D02948FFF78CFC18B100F04FF809B016
:20692000F0BD3B6C04A89847002834D12248FFF75FFC90BB204804F0CAFF0546D8B9FFF74E
:20694000D7FE044610B32046FFF752FF054670B9214602A804F06BFF0623019500932A4603
:20696000012302A92046FFF719FF054670B12846FFF736FF14E004F0A8FF04460028E2D11B
:206980002846FB6C9847284604F0A3FF0023094A33801370B7E704ACD5E7074CD3E700205C
:2069A000FFF74AFFF2E700BF9C210020AC2100209CBC2000A6150020C421002010B5064CC7
:2069C000238843B1012000F09DF923881BB1BDE81040FFF777BF10BD9C21002038B50446F8
:2069E00023881046002B3BD040F24532934245D1022932D006D8012927D040F245330120D5
:206A0000238038BD872907D08829F6D11D4B98420FD104F0FCFAF0E700211B4B03F580728B
:206A20009D692033A84208BF23F8101C9342F7D3E3E7164B9842E0D104F0E9FA0028DCD005
:206A4000FFF7D4FCFFF73EFFD7E70028D5D0104B1860052000F056F9F4E7FFF7AFFFCCE749
:206A6000FDF7DCF90B4B40211870064804F0BDFA00F0B2F8084B5B689847BEE7002303209B
:206A80002380BEE7D00A0020C42600208C210020B42600206E2900209CBC2000074B1B68DF
:206AA0003BB12833186840B15A68054B1978FDF741BA044B1B681833F4E77047BC260020DB
:206AC0006E290020B426002037B5114B114D1C782B7905F10801C4EB03226B7913449BB2CC
:206AE000ADF80630BDF806302022184480B204F02CFF04F12801BDF80620294404F025FF63
:206B000018B140BA80B203B030BD4FF6FF70FAE7A6150020AC21002002200021F8B5294F1B
:206B2000294D3A78294C283253195E782070F6000736864202DA79B320702DE0131805EBD1
:206B4000030CEB5C012B11D00CD3632B13D003F0C003802B22D0C02B29D0402B2DD181B1B0
:206B600020700EE00130C0B20121E2E7831C9CF801001844F7E701B12070154B9B6B984714
:206B800008B90120F8BD22783B78124913440B445B7802321A4422700020F3E701B12070DD
:206BA000024402210420FFF7EBF80220EAE701B120702B7EFF2BE4D0F2E702309CF80130E3
:206BC000D7E700BFA6150020AC210020A71500209CBC2000D421002008B5FFF78BFCFFF7D7
:206BE000B3F900F0C9FB4FF48062094B1A800022084B1A821A86A3F85020A3F87020A3F8A0
:206C00009020A3F8B020A3F8D020A3F8F02008BD1A140020C426002070B5134B1D780DB32E
:206C2000124E05F12701328891424FF0000105DB19703180BDE87040FEF7BABF0C4C19704B
:206C400004F1280094F82830283A521B4119A37104F04CF833885B1B9BB23380283B1A12FE
:206C60002271637170BD00BFA61500209C210020AC210020F8B5204F204C3D462388013332
:206C80009BB2B3F5FA4F28BF4FF4805300261A0A42EA032292B206EB070CBCF810C0944579
:206CA000EDD02036B6F5807FF5D1238000235F01EC19268A66B92282618278B90146102226
:206CC000204604F075F80E4B3D441B792B7503E00133082BEBD100242046F8BD03462646E5
:206CE00000F1100C324618685968083303C263451646F7D1E7E700BFC42600201A1400201D
:206D00003020002004282DE9F047974E1CD0974C974B9849052823600B60A14688464AD128
:206D2000954A1268128A002A00F0078100220C3B924823600B60924B02601A8032800822D6
:206D4000904B1A70FFF7AAFE8D4B1A88002A00F0F48002F130038C4C9BB23380283B19129C
:206D60006371602300262380834B21711B680832197D52BAE1711121A285E6851A8AA17168
:206D800022855A8A04F1180562850FCB85E80F00294604F10800FFF74DFB744B04F13C027D
:206DA0001A6004F0F1FDC04380B2002800F08581E085668015E113F83C2CA3F13C0402F0AA
:206DC000F002602A40F0B98022796179120230885518854200F3B18028310A443280227A40
:206DE000FF2A00F0AA80694A363B13600023684D684F2B703B70A379924653B901233B7015
:206E0000FFF78AFE012800F0988046D3022800F0E8806148FFF70CFA002840F0CA805E483B
:206E2000FFF7ACFA002840F0C480207E2389FF2848F2FE0145D0228B8A4200F042818B4262
:206E400041D073B9638963B9A38953B9E38943B9238A33B9638A23B9A38A13B9E38A002B5A
:206E60006BD07AB9638B6BB9A38B5BB9E38B4BB9238C3BB9638C2BB9A38C1BB9E38CB3F54E
:206E8000807F5AD03388B3F5A06F12D94FF4A06200210220FEF774FFA3E02B7803F1280238
:206EA0002244CAF800205278083303EBC2032B70AFE7E379012B00F2B1800022032011465A
:206EC000E8E78B4239D1238B7BB9638B6BB9A38B5BB9E38B4BB9238C3BB9638C2BB9A38CBF
:206EE0001BB9E38CB3F5807F27D0FF2825D02A48FFF77EF9024600BB02210120CAE73B2B58
:206F00001BD03C2B24D03A2B40F08B8004F039FD4FF6FF73984210D12B782833E21851782E
:206F2000E05CFEF70BFF012804D1002333802B70FEF73EFE3388002B53D10024144B348035
:206F40001C70FEF735FE134B1C700E4B1C704BE03B78990704D5580663D443F0400338E034
:206F600043F0020335E000BF9C210020B8260020E8210020A0210020B4260020BC26002024
:206F8000C0260020AC260020AC210020B0260020A6150020A5150020C42100202B7803F1C5
:206FA00028022244CAF800205278083303EBC2032B70DAF8002013782C2BBED09FD8112BF7
:206FC00032D02B2B12D063BB3B78D80729D443F001033B70FFF7A0FD0128AED0DED30228D3
:206FE000E7D10022394B1A70BDE8F0873B78590717D443F004033B702B7803F12802224483
:20700000D1780029CED0324BDB6B9847014600287FF438AF2A782A3204203BE7013BE37121
:20702000DFE7121B0121F7E7FFF7F6FDE38D7BB9638D002B81D0274F274DDFF8ACA02F60C8
:2070400007F580772968B9420AD30022042154E704F09AFC4FF6FF7398427FF46EAFE7E7D9
:207060000B8A1BB92B6820332B60EBE7628D9A42F8D14B8A13B1228D9A42F3D10B682BB991
:207080004B681BB98B680BB9CB682BB11022504603F084FD0028E5D133880220303B33808E
:2070A00000230E4A0E49C9F800200B60C8F8002006490C4A0870138044E64FF6FF73E385D9
:2070C00077E693427FF439AF11E700BFAC2600209CBC2000C4260020B4260020DC210020E1
:2070E000BC260020C0260020B4210020054BC0F3072203EA0023000C40BA134380B240EA9F
:207100000340704700FFFF002DE9F04F8E4C87B0E3798E4FFF2BDFF858A240F00E813B786B
:2071200004F12C055A191279FF2A00F0068104F128010B445A780391002A40F0FE80844B11
:20714000844E1A6014229846DFF82892327004F1080B387833782C30BAF8002003449342EF
:20716000C0F2858020440430FFF762F87A4B18609B46002800F0E18023897BB963896BB9E9
:20718000A3895BB9E3894BB9238A3BB9638A2BB9A38A1BB9E38A002B00F0CF806F4E3046C2
:2071A000FFF746F8B046002840F0C78040F2FF23228B06F110099A4240F0AC80638B002BA4
:2071C00040F0A880A38B002B40F0A480E38B002B40F0A080238C002B40F09C80638CB3F504
:2071E000807F40F0978094F82430FF2B40F0928096E80F0089E80F003B781D44043595E826
:207200000F0086E80F006022554B0025C4E9002388232385E023DBF8001010220231514894
:2072200084F82C303D7003F0EBFC02223B784E494033E618E254B01C7270082203F0E0FC33
:207240000622294606F10A0003F0B2FD039A3B7813445D8004F095FBC0433B78039A134442
:2072600058805023AAF8003007B0BDE8F08FE1184A78002A61D0E35C012B26D12389C8F832
:20728000001073B9638963B9A38953B9E38943B9238A33B9638A23B9A38A13B9E38A002B17
:2072A0004BD00822023104A803F0AAFC5846FFF79FFA0246C9F8000080B905230190009356
:2072C00004A902235846FFF769FA32783B7813442B445B7802EBC30232703AE7FFF780FA0A
:2072E000014650B3D8F800000822023003F056FC50B104A9484604F0EDFA00281DDBD9F8CB
:20730000003002225A74E0E7D9F800305A7C002ADBD1F6E71548FEF78BFFDBF80030834256
:207320000BD198E80F0089E80F003B781D44043595E80F0088E80F0065E70023AAF80030C9
:207340003B70FEF735FC8FE7AC210020A6150020E80A0020A8150020E00A0020B421002030
:2073600000283AFFDC210020A4210020C42100209C210020E40A00200148FEF7FBBC00BF06
:20738000C80100202DE9FF470388054614462BB18B2B3AD11F4B1B788B4205D08B2301206D
:2073A0002B8004B0BDE8F087002AF7D01A4B1B789B07F3D5194BDFF870A0DFF87090BAF82B
:2073C00000201968484603F01BFCA769002FE5D01349144E0A8D236AD6F800803360130AA0
:2073E000488D43EA0222BAF8003092B2CDE90193030A43EA00239BB20093204601F1180347
:207400000831B847C6F80080C8E7002303800320C7E700BF6E290020AC260020B82600206A
:20742000AC210020340400209C210020A91500202DE9F8431B4D0E46297804461746984619
:2074400021B91948FCF780FD01232B70E682A4F814805FB13A46251D07F1100C2B4610685B
:207460005168083203C362451D46F7D1089B0F4DA36198FA98F10C4B224689B23846D5F81E
:2074800000902B60FFF7F8F9E06110B10EB176BA0682E069C5F80090003018BF0120BDE80E
:2074A000F88300BFA91A0020D401002034040020B8220C4BF0B502FB0032002340F24C5567
:2074C00053821E461A460849CC18A77827B15F5C874204BFA67001327133AB42F4D11046AB
:2074E000F0BD00BFF40A0020B51A00200122044BFD211A70002299705A70DA70FDF74CB8C2
:20750000AA1A002010B50E4C0220A179FDF716FBA379112B09D1238D618D994228BF194636
:20752000BDE810400120FDF709BB062BF3D03A2B03D1218D49BA89B2F2E70021F0E700BFD4
:20754000AC21002070B513780546087A83F0020398421FD1487A537898421BD1887A93781F
:20756000984217D1C87AD378984213D1087B137998420FD1487B537998420BD1887B9379E1
:20758000984207D1C87BD379984203D10320A840C0B270BD0E4C0B89206826467BB94B8968
:2075A000B3F57F4F0BD18B89FE2B08D102220E3103F026FB2368022002332360E7E708228F
:2075C000114403F01DFB3368012008333360DEE7640C002010B5074C01462378012B04D171
:2075E0000822A01C03F0DAFA08B1002010BD2046FCE700BFAA1A002008B501460E20FDF726
:20760000ABFA044B00219B6803489847BDE80840FBF754B974BC2000D57D2000F8B5154A6E
:20762000154D164C2B7817680E46154922680144F81803F0E5FA23682878184480B2FDF754
:20764000ABF9FCF7BDFF044608B90020F8BD3046FFF7D2FF2046FCF7EBFF2046FCF7D2FF4D
:20766000084B1B68012BF0D0043B012BEDD90120ECE700BF780C002001200020740C0020DF
:20768000AC2100206C0C002000232DE9F04F204D204F87B03B702B700446FDF705FAFDF763
:2076A00097F91D4A1D4B12681860019599460AB1FFF728FF54BB1A4904A803F0F3FD042007
:2076C000FEF76CFA01460620FDF738FA04A90E20FDF742FA134B144E1B680393984730EADF
:2076E000200028BF1520114BC0F17D001860019BD9F800101B7808440233CA1832602632EF
:20770000824215D3002007B0BDE8F08F2146D3E70120002002200020EC0A0020780C002064
:20772000F4BC200068BC2000640C0020700C00200022B948CA54FFF74DFF002800F03681B7
:207740008024336801333360B44D697828780A0942EA0012D2B2930843EA82135BB200F072
:207760000F0208075FFA83F840F028816888002840F024811AB911F0F00F00F03E81336832
:2077800003F8018B4FF070083360AB79112B06D02BB13C2B03D0A3F12B02012A01D848F0CF
:2077A000040818F0040F04BF326802F8013BEB7908BF3260402B00F02381FF2B00F0238195
:2077C000012B40F0238148F001082B89002B40F03D816B89002B40F03981AB89002B40F003
:2077E0003581EB89002B40F031812B8A002B40F02D816B8A002B40F02981AB8A002B40F00A
:207800002581EB8A002B40F0218144F040042B7EFF2B40F083816B7E44F0080A022B6A8B80
:20782000306840F04881002A40F06F81AA8B002A40F04281EA8B002A40F03E812A8C002AAD
:2078400040F03A816A8C002A40F03681AA8C002A40F0328195F82620002A40F02D8195F88B
:20786000273044F00B0400F8013B306028233B7033686B4D029300236A4F00936A4A3B6806
:2078800012687DB12E78112E00F0DA81002E00F0C8813C2E00F0CB812B2E00F0BB812C2E24
:2078A00000F06C81614D9B1A29780E2002F8018011444C7004A92B70FDF74EF9039B98472D
:2078C00030EA200028BF1520594C5A4F21783A882B78521AD618C0F17D084645264640F34C
:2078E0006282A8EB0308A8F1040828F00708C0F17805A2EB0802521B002AC8BF02F1FF3431
:2079000025F00707CABF94FBF7F402240334FCF751FEA0427FF7F6AEB8F1000FFFF6F2AE59
:207920000022454BD9F800101A60444B081DB3F800A0404C0AF101021A80019B1A7803F0F6
:20794000D5F9019B019A1B7804A9043313702388D9F800201B0A63F03F031370238882F82A
:2079600003A053704FEA1A23DFF8DCA093703078CAF80080FFF752FE00283FF4C3AE0523B1
:20798000019A307813702388D9F800201B0A63F01F03137023885370DAF8003018442388F1
:2079A00086B29E42C0F0EA810120ACE62448FFF711FE00287FF4C4AE0446C5E630688AB993
:2079C00011F0F00F0ED123F03F030B4300F8013B02221C4903F014F933684FF068080333E8
:2079E0003360D2E604220D4903F00AF9336803F8048B33604FF06008C7E64FF07808C4E655
:207A000048F00208E1E648F00308DEE6326802F8013B3260D9E600BFC4210020AC21002084
:207A2000B2210020640C0020780C002001200020022000209C2100206C0C00201C140020D7
:207A4000B4210020AE210020740C0020A348FFF7C1FDA34B186090B1019BD9F800101B784C
:207A600040780233CA5C42EA0012CA5404209D4A9A49FFF767FD60F03F00C4B2C7E648F263
:207A8000FE032A899A420DD16B8B5BB9AB8B4BB9EB8B3BB9934A91490420FFF753FD044362
:207AA000E4B2B4E610228D49306803F0A9F8336810333360ABE642BBAA8B32BBEA8B92B981
:207AC0002A8C82B96A8C72B995F824205AB900F8013B0322844903F093F8336844F00A042F
:207AE00004333360C2E6EA8B7AB92A8C6AB995F8222052B900F8013B05227C4903F080F82E
:207B0000336844F009040633EBE71022784903F077F83368544610333360A7E67448FFF7DF
:207B200059FD6F4B0146186090B1019BD9F800001B7849780233C25C44F004040A43C25482
:207B400000206B4904AAFFF7FDFC0443E4B28DE648F2FE032A8B9A4208D16B8B33B9AB8BA7
:207B600023B9EB8B13B904AA6149ECE710226049306803F045F833681033B2E702260099E1
:207B80005C4D01F1280A55445A495B4895F801B011F80A1000684FEACB0B11290BF1080B18
:207BA00002440AD049B13C2907D02B39012904D901339342BFF4A6AD3B60386800EB0B03C1
:207BC0009A427FF69FAD5A46294603F019F83A685FFA8BF3991E517000995A44594400919F
:207BE00046493A60087803440B70424B13F80A30112B23D013B33C2B20D02B3B012B8CBF1F
:207C000000230123760066F01F061E43029B02921E7033E60099374D01F1280A55440126F2
:207C2000B2E70099334D01F1280A5544ACE70099304D01F1280A55440326A5E70123E1E7CE
:207C40004FF2B00B0099DFF8ACE001F1280A3AF80E500AEB0E06290A41EA0521758889B2B3
:207C60004FEA052C4CEA152C234D581C2D6838602A4421F00F05ADB25D451FFA8CFC41D1CB
:207C80002CF00F0BAB453DD1F32102980170991C8A427FF637AD3AF80E203960100A7288AA
:207CA000120A02EB001202F5AA625A70144B124938681B680968821C0B449A42BFF422AD43
:207CC0000222B11D02F09CFF3B680C4A02333B601378002508331370D0E500BFB421002085
:207CE000F00A0020A4210020D1210020CF210020C4210020AC210020700C00200220002093
:207D0000780C00200CF47F4CBCF5704F11D1F121029D04339A4229707FF6F4AC0222314695
:207D200002F06EFF72883B68120A9A7003333B60BCE701F47F41B1F5704F11D1F221029804
:207D40000170191D8A427FF6DDAC3AF80E20120A5A7002229818B11802F052FF3B68E5E71D
:207D6000F021029D05339A4229707FF6CBAC0422314602F045FF3B680433D8E79B1B9D42B9
:207D8000B8BF3B46114AF10812683046117104A9CAF80030FFF742FC00283FF4B3ACDAF8C6
:207DA00000003044FBE50948094E00683144184402F026FF3B88287818442378C01A80B211
:207DC000FCF7EAFD04A8FFF717FCEDE5780C0020AC21002070B5124B0C461B68154613B13B
:207DE0009B68084698470F4B0E201C60FCF7C0FE0D49064603F059FA80B92A462146304630
:207E0000FCF714FF094B214630462A465B6C984729462046BDE8704003F096BD70BD00BFB9
:207E2000EC0A00206C0C0020F4BC20009CBC20002DE9F041002306467122134F02FB03F5AC
:207E40007C19A078C8B96170FCF7B0FDDFF840800E4B98F800102670401A1E68A0700E441B
:207E6000FCF7A4FD98F800200335821A3146781902F0C6FEA078BDE8F08101330C2BDDD1E5
:207E80004FF0FF30F7E700BFB51A0020780C0020012000202DE9F04115090F2D0646984638
:207EA00002F00F0434D00F2C37D01DB12A46304602F0A6FE2A190F2A274605DCC2F110029E
:207EC0000021701902F074FFD4B1DFF85880C7F110002246D8F80010304402F091FE022C2C
:207EE00005D10A2D9FBFFF23F372FE233373D8F800202244C8F80020BDE8F0811024D5E78D
:207F0000002DF9D041463046BDE8F04103F084BC0F2C00D110241025C8E7002DEED110271E
:207F20003C46D2E7640C00202DE9F8438046894617464B4D002A57D02B8A83420AD16B8A00
:207F400043B10D20FCF714FE0146284603F0ADF9002840D1B5F8C83043453ED1B5F8CA3091
:207F6000002B3AD00D20FCF703FE01463D4803F09CF990B301245FFA84F839464046FFF71F
:207F800057FF00281DDA6E8A4EB15CB3364803F057F8064618B10020FFF78AFA0646B5F8FE
:207FA000CA3043B13CB9314803F04AF818B10120FFF77EFA0644002E0FDD39464046FFF779
:207FC00037FF002809DDB82303FB0455AB8A64B21844A88203E00024CDE74FF0FF342046C7
:207FE000BDE8F8832646DAE76B8A33BB0024B5F8CA308BB31D4803F023F810B10120FFF7FD
:2080000057FA631C2AD1B5F8CA30002BE7D10124B8266643AF19A7F81290A7F810800D20FA
:20802000FCF7A6FD0146384603F03CF906F118004021284402F0F8FFD1E705F1180002F040
:20804000FFFF28B96B8A002BD0D04FF0FF34CEE73846FFF72DFAF5E70134D8D00024D7E724
:20806000F40A0020AC0B00200C0B0020C40B00202DE9F04F002489B0904F0D20904EFCF756
:2080800077FDFCF70DFE3C703470FCF7A1FC8D4D2860FCF78BFCA8460197002800F04A8347
:2080A0000420FCF753FD884B00B218602B681D886DBAADB22A1202F0F802C02A07D0E02AAB
:2080C00000F01481A14625464F46804C16E058883378C5F30A0540BA04332246294680B2E6
:2080E0003370FFF721FFB0F1FF3F814600F02283B8240127764B04FB003422340022754B5C
:20810000D8F800C01A7032781CF8021001F0F000F02804BF01F00F0119701B7804BF0132A6
:208120003270012B00F2068332781CF8023003F0E001602940F0E682901C624492F80180B4
:2081400065494FFA88FB6044BBF1000F0860BCBF01300860DA068A4603F0080000F1678146
:208160000A680293511C002840F04D810322601C02F046FDDAF8002012F8040BCAF80020A2
:20818000820802F00F0141F060012170617802F0300242EA801201F00F010A436270029BB8
:2081A00013F00402049205D14B490A6812F8010BA0710A6013F003030BBF474A474A136843
:2081C000D35C09BF13F8011BE3711360E17118F0400FC8F3011300F05A81BBF1000FBDBF40
:2081E000384A317812680022BEBF521892781209002B40F03C8104F1080A002B40F043816E
:208200001946374A0D20D25C03910292FCF7B0FCDDE9022103465046FFF73CFE08F0030267
:2082200008F0040318F0080800F03D81ABB92D4B1B88ADF81C30531E012B06D826490B68AC
:2082400013F8010B8DF81D000B60002326498A5C07A904F11800FFF71DFE019B019A1B78EA
:20826000DFF874A028331370A31D02930023D34604F128080393049BDAF80010002B00F04D
:20828000F3810B7803F0F002E02A00F03D8103F0F803F02B40F0E8811123029A13700B78D2
:2082A00003F0040A03F0F303F03B032B00F2E680DFE813F07501A001F10103020220002009
:2082C00001200020780C0020680C0020AC210020F40A0020B41A0020640C00206EBF20004F
:2082E00072BF20005FBF20007ABF2000588893F804A0337840BAC5F30A05053352462946DC
:2083000080B23370FFF710FEB0F1FF3F814600F01182B823AB4AA34603FB0023B3F8148042
:208320000127A84534BF4FF000084FF00108FCF73DFB3378834200F2FD81FCF737FB019BDA
:2083400031781B78421A03EBCA0A9F4E9244BAF5A06F326000F2EE812CB19C4800680144E1
:20836000E01802F04DFC002D00F0DF81BBF1000F0AD0019B32681B7892491344B82202FBE6
:2083800009129BB293821384B8F1000F00F0D581B82303FB09F38B498D48CA1822339582FF
:2083A0001944128C02F02CFC0024DFF84482DFF820B208F1030A08EB04039A7852B114F81D
:2083C0000810894506D158780AEB04010BEBC00002F016FC40F24C5371349C42EBD15FFAF3
:2083E00089F0FFF765F8002F00F0A981794B1D80794C236823B1FFF785F823685B68984743
:20840000FEF746FA96E1602020701078820802F0300200F00F00024362700222A01802F086
:20842000EFFBDAF800200332CAF80020B7E698B90A681178C1F3830141F06001217012F8FB
:2084400001CB60804FEA9C0101F0300141EA8C116170CAF80020A3E660222280002262804C
:208460009EE690F801C0944506D10860C3E65B48017801295A49F4D000230B604FF00008EC
:20848000BB46C24653E7564A11680231B9E6554A0D2012F803A0FCF76BFB52460346524960
:2084A00004F10800B8E62BB3BBF1000F07DA474B31781B680B4493F8028008F00F08DFF8A7
:2084C0001CA19AF80030012B454B03D19AF80110414502D000221A60D0E7C3F800A0434B56
:2084E0000E2013F80280FCF743FB424603460AF10201AEE63B4B0E2013F80280FCF738FBC6
:20850000424603463849A4E6C3F3420213F0010301F1010004BF91F801C00231CAF8000089
:2085200008BFCAF80010DAF80010049311F8013B18BF4FF0000CCAF80010032A9ED8DFE886
:2085400002F0032C022A2C220298059302709A1CD210013A88F8012088F800C01A4608F1CF
:208560000200CDF8088002F04BFBDAF80020059B01991344CAF8003098F801300978013389
:20858000DB00DAB29844039B114401981A44D3B2017003936FE63C22D6E72B22D4E7022286
:2085A0000131404602F02CFB0222DBF8001008EB0200033102F024FBDBF800300533CBF8AB
:2085C00000302AE0F40A0020740C0020780C0020AC2100209C210020EC0A0020AA1A00203B
:2085E000F00A002076BF200061BF200072BF2000B51A002002220131404602F001FBDBF8EF
:208600000020D3780432A3F580539BB21B0243F0F003A8F80230CBF80020BAF1000F0BD173
:208620000222DBF8001008F1060002F0E9FADBF800300233CBF80030FCF7B8F9434ADBF830
:2086400000301268002D52D0039BA5F12800C01A80B203021BB2000A1843019B019A1B78B8
:20866000A8F8040008331370384ADBF8003012689B1A3370002D3FD1FCF798F93378BB46D4
:20868000C01A019BA8461B78AA46184428380312237160714BE6404602224B781144A3F532
:2086A00080539BB21B0243F0F00320F8023B02F0A7FADBF80030043381E74B7802311B09B3
:2086C000A3F575639BB21B0243F0F003A8F8003011F8013CCBF8001003F00F03A3F575633C
:2086E0009BB21B0243F0F003A8F8023095E79B1AC3F108031844ABE7A5F128031A122271BA
:208700006371BBE6412B15D10132D1B2317028226144204602F074FA3378019A2833337042
:20872000019B1B7828331370A8E647B1B8F1000F7FF45CAE09B0BDE8F08F002FFAD1019BFE
:2087400032681B781344024A138051E6780C00209C2100202DE9F04F814687B01546884682
:20876000002965D02AB9334A07B0BDE8F04F02F0F9BF1488DCB95388D3B99488BCB9D38872
:20878000B3B914894CBB4FF6FF7352899A420FD1EA7B2B7B0292AA7B01926A7B0092264A3D
:2087A00002F0E0FF0446204607B0BDE8F08F002427462646DFF888A0DFF888B0AB19AA5D87
:2087C0005B7803EB02239BB2ABB9002F15DB06D001370236102EF1D1E5E71C46E8E7A8EB0D
:2087E000040109EB04005A4602F0BCFF0444A045D9D90127EDE7002F17DC09EB0400A8EBA7
:2088000004013EB15246059302F0ACFF0444A045059BC8D9A8EB040109EB0400074A02F056
:20882000A1FF0444A045D4D8BDE74FF0FF37F1E70C46B8E77EBF20008DBF2000A3BF200092
:20884000A1BF2000A0BF20002DE9F84F00231A4E1A4CDFF870801A4D30682380C8F8003072
:208860002B60FBF78BFF0746DFF85CA00FB9BDE8F88F39463068FCF769F8834600F06CF855
:20888000814628B100F0C8F810B12B6801332B60484600F069F8DAF844304B4505D0238840
:2088A00083423CBF2080C8F800B039463068FBF741FF0746DAE700BFA40100201E140020BB
:2088C0007C0C0020800C0020C4270020032810B50C4618D0062816D0012817D1FFF7B4FF41
:2088E0000B4B187B70B1597B227E91420ED1D88A084B628A1B880244A3EB50039A4205DA22
:20890000054B186810BDFFF79FFFF9E70020F9E7C42700201E140020800C002008B50C4B29
