:020000040024D6
:20000000002E00208D02240093992400919924009199240091992400919924000000000057
:20002000000000000000000000000000919924009199240000000000919924002F9A2400E9
:20004000419A2400479A24004D9A2400539A240000000000359A24003B9A24009199240046
:200060009199240000000000000000000000000000000000000000009199240000000000E4
:2000800000000000000000009199240091992400919924009199240091992400919924008C
:2000A0009199240091992400919924009199240091992400919924009199240091992400D0
:2000C00091992400919924009199240091992400919924000000000000000000000000009A
:2000E00000000000000000000000000000000000000000000000000039162400491624000A
:200100000000000000000000000000000000000000000000000000000000000000000000DF
:200120000000000000000000000000000000000000000000000000000000000000000000BF
:2001400000000000000000000000000000000000000000000000000000000000000000009F
:2001600000000000000000000000000000000000000000000000000000000000000000007F
:2001800000000000000000000000000000000000000000000000000000000000000000005F
:2001A00000000000000000000000000000000000000000000000000000000000000000003F
:2001C00000000000000000000000000000000000000000000000000000000000000000001F
:2001E0000000000000000000000000000000000000000000000000000000000000000000FF
:200200000000000000000000000000000000000000000000000000000000000000000000DE
:200220000000000000000000000000000000000000000000000000000000000000000000BE
:2002400000000000000000000000000000000000000000000000000000000000000000009E
:2002600000000000000000000000000000000000919924001D15240041152400E90A240049
:20028000AD172400A906240091992400FF22482408B5084B08481A60084AE369121A0849D3
:2002A00098470848084AA369121A0021984701F0D9FFFEE7B4200D4040000020940300209F
:2002C00004B02400980300200026002008B5002000F042FA012000F03FFA0D49002000F08C
:2002E00007FB02F0C3FD002002F070FE01F03CF900F01EFC00F03AFC0821064801F06AFAA8
:2003000002F0C6FC62B6BDE80840022009F044BB252E2400DE25002073B51A4B1B68022B33
:2003200008DD1949194A1A4803F03AFF19491A4803F036FF6846082101F04CFA174E9DF891
:2003400006309DF80750F46A45EA03254AF6CD310220A04729460320A0471A210120A047C3
:20036000736B082269460B20984700F0CDF800F071FB00210A4802F03DFB042009F00CFBEA
:2003800002B070BD1402002075AB24006CAB24007AAB240089AB240062AC240008AA240020
:2003A000400000202DE9F04104880646772C20D07E2C3DD0002C4ED102F086FA284D294BCE
:2003C000294FDFF8B08018702C602B6857F823202AB9264A13707723338001203EE008F803
:2003E000034093680021802098472B6801332B60EBE700231E4A1360194A1360184B1B4A5F
:200400001B6812789A4204DC194B1B68002BF0D1E1E7184AD256002A19DA134A002052F80A
:200420002320104B197802F0BDFA28B97E23D3E70C4B1B788B42D0D1094B0E491A688B5C3C
:2004400003F07F038B540A4A136801331360044A13680133D1E7002303800320BDE8F0813E
:20046000AC030020F625002050000020C0150020A8030020F7250020FF2310B5064C4FF48A
:20048000FA60236000F0AEF830220021062000F0E9FA0023236010BD00920D40802870B55E
:2004A0001ED100240F4E104D3368224623F0800333602B68072143F080032B600B4B20468B
:2004C0001C6000F0B3FA3368012223F0400333602B68062123F040032B60204600F0A6FACB
:2004E000002070BD20940D4000940D4000920D40044B1868C0F30720030904BF1030C0B2C4
:20050000704700BF1C300D4008B5FFF7F1FF014B1B6808BD1C300D402DE9F04800F086F840
:20052000114B4FF0000BD3E900673A46B04238BF7A1C15464BEA0004C3E900450B49D1E960
:2005400000BCBBEB06026CEB0703161943EB0507C1E9006702F028F818B1BDE8F04801F0AD
:20056000A7BFBDE8F08800BFA003002098030020E0210D4B0D4A5A600D4A82F8231000222B
:2005800007219A6019600B490B6843F001030B60094B1A60042243F80C2C012243F8082C5E
:2005A0000F22DA62704700BF10E000E047E8010000ED00E008200D400C000340034BD3E9BD
:2005C0000023100A40EA0360704700BFA0030020034BD3E90023D00B40EA4340704700BFED
:2005E00098030020054B18601C3B1A6842F001021A601A68D207FCD4704700BF28000340E4
:2006000010B5064C236823F001032360FFF784FF236843F00103236010BD00BF10E000E084
:20062000014B1868704700BFB0030020064B18685A6808331B681B0443EA0223034A034350
:20064000106843EA0060704740500D404C500D40014608B5104A1368DB07FCD572B6FFF76E
:20066000E5FF0B1A062BD8BFC11D0C4B0A0E1A60C1F3074243F8042CC1F3072243F8082C2E
:20068000CAB243F80C2C62B64FF40032044B1960044B1A6108BD00BF50500D404C500D40F2
:2006A000B003002000E100E008B500F0E9FF0022064B1A604FF40032054BC3F89021C3F838
:2006C0009020BDE8084002F0B9B900BFB003002000E100E0064B1B681B075FBF054B1868E2
:2006E00080F00800C0F3C00048BF0020704700BF18C0004018D000402C23154A70B503FB61
:2007000000234FF6BF72DC680546236C626413F050020DD00F4EA369DB0600D570BD56F890
:2007200025301BB12068C0B29847F4E72368F2E713F4D06FF2D04FF440732363FF23636017
:20074000E36AE262E362236B43F001032363E5E7B0A92400B403002001282DE9F74F064687
:2007600000F2B4802C2545435A4F7C1994F92080B8F1000FC0F2AA8094F92290B9F1000F83
:20078000C0F2A480544800F0EFFF544A79591368E5680B4313605368616894F921A00B43F0
:2007A00053609368A1685FFA89FB0B4393600023C5F8C83F23690AEBC8021A6094F92330D8
:2007C000227D00939DF8003058461946019300F037F9019B08221946584600F027F901237A
:2007E0003F494FEA0939009A59F8010003FA02F2024349F801204FEA083858F8010003FAAB
:200800000AF2024348F801205022AA63AA6B94F9240042F4D062AA6302226A634FF4407296
:200820002A63A26900286A62E269AA624FF07002EA620D4614DB94F925102A4A41EAC00471
:200840001460020354598B4023435351C9B20022C0B200F0EBF8244A136843F400431360E5
:200860002C2303FB067393F92640002C1BDB93F927A05FFA84F85FFA8AF901224946404662
:2008800000F0DEF801232403625903FA0AF31343635108224946404600F0C8F8124A1368C2
:2008A00043F4804313602C2303FB0676F268136B43F001031363012296F82830590903F01F
:2008C0001F0302FA03F3094A42F8213003B0BDE8F08F00BFB0A92400D506240028200D407F
:2008E00020940D4004410D4030D0004000E100E001289CBF014B43F820107047B40300209B
:20090000012808D82C22044B02FB0030C3689A699206FCD419607047B0A924000022014B53
:200920001A60704700500D400822014B1A60704700500D40A022024B1A6050221A60704779
:2009400000500D40014A024B9A6070470000240000ED00E038B5164D164C2B68012223F045
:2009600040032B602368062123F040032360032000F05CF82B68012223F080032B60236855
:20098000072123F080032360032000F04FF80A4B0A4A0B491A600B4A134610680842FCD108
:2009A0001A685101FCD41A685201FCD538BD00BF20C40D4000C40D4000200D400101020086
:2009C0000000010104200D402DE9F84305464FEA0538DFF8389008F1804606F5592600F0CA
:2009E0004FFED6F8187458F80940ED00EC4047EA0400C0B2E4B2A840FFB2AC4002F0BCFA34
:200A0000C6F81C7448F80940BDE8F88318970D40034B044A1A60044B803A1A60704700BFD4
:200A2000BC03002080400D40C0030020034B01EBC0011B6843F82120704700BFBC03002098
:200A4000034B01EBC0011B6843F82120704700BFC0030020024A136843F0300313607047EC
:200A600000700D400E2870B50BD1154B154E1C6844F002051D60356825F03F0343F0010358
:200A80003360114E336823F0FF031A43114301430E4A316013681B06FCD50D4B0D4A1B6837
:200AA00012680E2803F0FC0343EA022308BF054A1BB204BF1560024A184608BF146070BD15
:200AC00034000144F486084008700D4000700D400C700D4010700D40024B1868B0FA80F0DC
:200AE0004009704700B708404FF40042064B10B5064CC3F89021C3F89020206818B101F0F1
:200B000091FF0023236010BD00E100E0C4030020064A136843F002031360536843F00203C1
:200B20005360936843F002039360704748200D4007B50C4800F018FEFFF7EAFF0A4B1A68A4
:200B400042F002021A6000220192019A0F2A06DD1A6822F002021A6003B05DF804FB019AC5
:200B60000132F1E7D90A240054200D40064A136823F002031360536823F0020353609368CB
:200B800023F002039360704748200D402DE9F04188460126C7083C0300F0070104F18044E3
:200BA0008E4018F00C0304F559246FEA060522D1D4F810342B40C4F8103418F0030249D1E1
:200BC0003846FFF733FFD4F8103418F0800F1FBF1E43012303FA07F7214B0BBF2B40C4F80D
:200BE0001064C4F810341F60D4F820341D40C4F82054BDE8F081042B0FD1D4F804342B40C1
:200C0000C4F80434D4F808342B40C4F80834D4F80C343343C4F80C34CFE7082B0DD1D4F864
:200C200004342B40C4F80434D4F808342B40C4F80834D4F80C342B40ECE70C2BBDD1D4F8D7
:200C400004342B40C4F80434D4F808343343C4F80834B2E7022AB3D0012AB4D10422AFE7D3
:200C600000E100E00B4B1A689207FCD41B685B065FBFED22084B1A601A60084B1B6813B180
:200C8000EF22054B1A60064A0120137803F07F03137070474C860840388808402C860840B2
:200CA000C3150020044B186800F02200A0F1200358425841704700BF4C860840024B186817
:200CC00000F04000704700BF4C860840204B1870002832D01F4A13681B03FCD51E4B1A6879
:200CE00042F002021A601A6842F001021A601A685007FCD51A6822F001021A601A6851077E
:200D0000FCD41A6842F002021A601A6842F001021A601A685207FCD5104A136823F0040305
:200D20001360D2F8A83123F00403C2F8A8314FF400520B4BC3F890207047084A136843F0E3
:200D4000040313604FF40052054B1A61704700BFC215002004200D40048808408C860840AD
:200D600000E100E0084B93F90020002A09DBED21064A11601160E32111601A7862F07F028B
:200D80001A700120704700BFC315002038880840A0F10B01CBB20F2B10B5044613D80B4B8E
:200DA0001B6813F03F0302D0FFF75CFF012301EB8101074A0B3111600BB1FFF7D3FF054BE4
:200DC00060B21C7010BD4FF0FF30FBE7488608403C8608409203002010B50C46002900F053
:200DE0008680102800F28580DFE800F009101B22243B44575C727683837B7D547F003E4B19
:200E00001B68003318BF0123236024E005223B4B1B6803F07F030B3B93FBF2F30B33DBB271
:200E2000F2E7374B1A68043B1B6843EA0223EBE7344BF7E700230B60334B344A1B6803F092
:200E400001030B601268900644BF43F002030B602F4B1B780BB900200BE00B6843F00403E4
:200E6000D2E700202B4B08601B78002BF3D001230B6010BD284B29491A680023D2B201EBE4
:200E8000C3000079904202D851F83330BCE701330E2BF4D16FF01703B6E7214B1B685BB2D7
:200EA000493BB1E71F4B1B6899060FD1FFF75AFF01231D490A68D207FCD51C4A1168493954
:200EC00049B20BB1FFF7CEFE2160C4E70023F0E7174B93F9003097E7164B1B7803F07F036E
:200EE00092E70B2390E71A238EE707238CE70220BFE70120BDE700BF2C8608403C86084035
:200F0000CC850840D48508400086084024860840C2150020930300204086084040AA24000E
:200F200058860840488608406486084060860840C4150020C115002008B50B4B1B689906F1
:200F40000FD1FFF70FFF012308490A68D207FCD5074A1168C1F300110BB1FFF783FE08460C
:200F600008BD0023F0E700BF48860840648608404C86084010B5072861D8DFE800F0040F9A
:200F80001A212541475B012903D1FFF7EBFE00203BE0002955D1FFF765FEF8E7A1F10B03CF
:200FA0000F2B4ED8C8B2FFF7F3FE0130EFD103202BE089B2244BCAB2090A1A605960E6E718
:200FC00089B2CAB2214BF7E731F0070339D1204B11F0010F1A68C1F3800014BF42F00102A1
:200FE00022F001021A601B4B11F0020F1A6814BF42F0200222F020021A60FFF767FEC6E78B
:2010000031F001001DD1144B197010BD01F118031F2B16D80D23114A52F83340D800A142C3
:2010200004DC024412790E4B1A60B0E713F1FF33F2D2ACE7C9B20B4B49311960A7E7012095
:20104000E3E70220E1E700BFC8850840D085084000860840248608409303002040AA240067
:20106000408608405886084038B505460C46134A13689B07FCD4124B93F90030002B01DB48
:20108000FFF770FEEE220F4B691E1A601A60A21C43F8102C2144022000F080FA0A49013C51
:2010A00041EA0411022000F08BFA022000F092FA022000F0A7FA002038BD00BF4C8608401A
:2010C000C31500203888084002C001C0F8B5224B93F90030002B18DBFFF7A8FA0446FFF7C1
:2010E00041FEC4F1FF2404F57F04F634FFF79EFAC442FBD40126194B1B7843B9184C2368C7
:20110000990609D502210846F8BD0026F3E7FFF713FF0028F2D1F5E7E9230427114D2B603D
:2011200023689A0703D4013F17F0FF070BD123689B070CD4EE2301212B602B60002EE2D04D
:20114000FFF790FDDFE70620FFF74CFAE8E7216811F00201FBD1F1E7C31500209303002036
:201160004C860840388808400B280DD1082A0DD161B1074B074A083111F8010D43F8040BDD
:201180009342F9D1002070470120704702207047A8850840C885084070B5304E336813F0DD
:2011A000400358D02E4D2C68230605D5ED2200202C4B1A601A6070BDE4B2042CF6D9023C18
:2011C0008C42F3DCE4B2032C1ED12B6803702B6843702B6883702968234B493949B21970E7
:2011E0002B68224D18062B70E0D589B2042002F0FBF92978032001F07F0102F0F5F91C4BBE
:201200001B78CBB12046D6E701190139032000F0CDF9184B611E43EA0111032000F0D0F972
:20122000032000F0D7F9032000F0ECF9032000F0F5F90028FAD1CEE733685A06E2D53368DD
:201240001B0603D50C4801F0EDFBDBE7ED22054B1A601A60D6E71846ADE700BF4C860840CB
:201260002888084038880840C4150020C1150020C215002002C0010CF4010020F8B5294F7F
:201280003D7815F001054BD10124F822264B7F261C605C609C60A3F59323A3F514731A6002
:2012A0000922C3F89021152270331A600B2203F59B2303F59E731A604022A3F59B23A3F58D
:2012C000F0731A601A6842F020021A60D52243F81C5CDE62DA61154B1878FFF759FD4FF43D
:2012E0008042134B02201E60124B1A6100F07EF91149022000F05AF9032000F077F90E4956
:20130000032000F04BF90D4B1878FFF7DFFC0C48294601F06FFB20463B7823433B70F8BDC0
:201320000020FCE7C3150020A8200D40920300209486084000E100E028880840C2150020D6
:20134000F401002038B50388044653B340F2F732934233D11B4B18781A4638BB822923D194
:20136000137873B902F0F6F802F088F88021FFF713FF002805DD80B202F064F8124BDB6891
:201380009847124B1A7852060BD500221A70104B1D68FFF767FCFFF771FFAB0601D0FFF784
:2013A000E1FC40F2F733238001200AE01B78002BFAD0064B1B785806F6D5CFE70023038055
:2013C000032038BDC2150020DCAA2400C3150020488608400B282DE9F74F8A4613D1082AD1
:2013E00040F08680002900F08380424B424A01F1FF3A53F8041993420AF8011FF9D100200E
:2014000003B0BDE8F08F0C2870D1042A70D100296ED03A4A3A491368DFF8F09023F00703B4
:2014200013600B68DFF8E88043F008030B60D9F80030D8F800401068DFF8D8E0DFF8D8C057
:2014400020F070001060DEF80000DCF80050DBB2240243EA0563A4B20004234300F47F0027
:20146000034328480668F4B2019400240094DDE9006746EA0306136823F0070343F0010320
:2014800013600B6843F008030B60D9F80030D8F800101568DBB225F0700545F01005156089
:2014A000DEF80020DCF80050090243EA056389B212040B4302F47F02134302680098D1B281
:2014C000894640EA0308FFF7B1F8B6EB080667EB0907F90305460C4A0023F00341EA5641E3
:2014E00007F070FE281ACAF8000088E7012087E7022085E7C4850840A48508401088084015
:20150000048808401C8808400048E8011488084018880840248808402088084008B5054B1D
:201520001B7813B9044801F07DFA0022034B1A6008BD00BFC2150020F4010020348808401A
:20154000064B07481A68042A1FBF06490A7842F040020A7000221A6001F064BA2C880840F7
:20156000F4010020C315002010B5094C40220021204608F0B3F80122064B1A604FF48042C5
:201580005C60054B5A604FF400425A6010BD00BF0000002004F00F4000E100E003289EBF0E
:2015A000014B0001195070470000002003289EBF024B03EB00104160704700BF0000002094
:2015C00003289EBF024B03EB00108160704700BF00000020032806D80123034A03FA00F05A
:2015E000116808431060704728F00F40032806D80123034A03FA00F0116808431060704747
:2016000020F00F40032806D80123034A03FA00F0116808431060704714F00F4003289FBF3D
:20162000044B03EB0010806800F0070088BF0020704700BF000000204FF0FF32014B1A604B
:20164000704700BF04F50F400122014B1A6070474CF00F40084B19461A68D002FCD4074B79
:201660001A6822F480321A600A68D203FCD41A6842F400321A60704704200D4000200D4096
:2016800010B50A4C236898070ED0094B1A4619684901FCD413685B01FCD5FEF7B1FFFFF795
:2016A000D9FF23680023236010BD00BF58200D4004200D4038B5264B1C6814F03F0414D151
:2016C000244D55F8243023B1984770B10134052CF7D1214D2B7843B1FEF7A2FF0446FEF71C
:2016E000A5FF201A092800D90CB930BF27E01B4B1A6822F400321A60194A11461068C002A9
:20170000FCD41A6842F480321A600B68DB03FCD5FEF78CFF201A092803D8BDE83840FFF71A
:2017200099BF63280F4C0BD92B78022B08D1236001F02EF930B1FFF78DFF0023236038BD45
:201740000123F4E7FEF76CFF0028F4D02368CCE748860840C8030020C515002000200D4098
:2017600004200D4058200D400023064A52F82310814206D011B942F8230070470133052B68
:20178000F4D17047C80300200022054B1A60054A136943F0040313610122034B1A707047CB
:2017A00058200D4000ED00E0C51500204FF48032064B10B5064CC3F89021C3F890202068E1
:2017C00018B101F02FF90023236010BD00E100E0DC03002010B5134B1B780BBB124A127892
:2017E000122A03D1114A12784B2A0FD001F52012273212E003F52012032BD4BF2C3224328E
:201800001478CA1A024402F8014C01338B42F1DB10BDD41A2478C45401338B42F9DBF7E7DC
:201820000023E3E72B0028002A00280029002800134A70B500234FF0FF341546B2F9066042
:2018400066B1967A0C32002E08BF1C460133052BF4D1631C01D100230FE023460C225A430C
:20186000AB1898804FF0FF30A850B1F90620DA804A7A1881C2F3C002DA72184670BD00BF93
:201880001C0400202DE9F041064600254FF00C08204F8EB008FB0574B4F9063083B1B4F910
:2018A000041001A808F037F99DF80D3003F03603022B05D10DF10E01304607F059FFC0B1FF
:2018C0000135052DE6D10024214601A808F023F99DF80D3003F03603022B0ED10DF10E018A
:2018E000304607F045FF40B9204601A9FFF7A0FF044620460EB0BDE8F08120469DF80D20ED
:20190000BDF90A1008F045F9B0F5806F0446DBDB0024EEE71C040020F0B50746194E8FB05C
:20192000B6F900404FF0FF35B4F5806F0DDA214601A808F0F0F89DF80D2091071AD46B1C07
:2019400009D1E319B3F5806F04DB4FF0FF3528460FB0F0BD25462046BDF90A1008F019F943
:20196000EB1983420446DFDCB6F90020AA42EED13380ECE72046BDF90A1008F00AF904461E
:20198000D0E700BFF40E002070B58EB004460E46014601A8154608F0BEF89DF80D3003F0F0
:2019A0000602022A2DD113F020022AD106BB9DF80D30214643F0040301A88DF80D3008F03E
:2019C000E0F80023174A1370F5B900234FF6FF7519461548C218B2F904600C33A64202BF11
:2019E00095809172D1803C2BF4D100200EB070BD1B07DCD51146BDF90400FFF7C5FF002881
:201A0000D5DA4FF0FF30F1E71D460848C218516821B1B1F90410A14208BF15720C333C2B24
:201A2000F4D1D2E7C61500201C040020E00300202DE9F04F97B002908B4603931AB35846EA
:201A4000FFF76AFF0446013025D03222002109A807F044FE272202990DF12E0007F066FFEC
:201A6000039B214643F0020309A8ADF82AB08DF82D3008F086F809A92046FFF7D9FE38B1D3
:201A80000023036004E0FFF7FDFE0028D7D0002017B0BDE8F08F684B1F78002FF7D14FF091
:201AA0000808DFF89C91DFF89CA10622002107A807F014FE1FB9A9F800708AF80070BBB2B5
:201AC0000193B9F90050DB009AF800209BB20093ACB24AB1072D4EDD0822083CADF81C20FC
:201AE000A9F8004000240BE0072D51DD0822083CADF81E20A2B214B2072AA9F80040F1D84E
:201B0000BDF91C20002A24DCBDF91E20002A20DD4A4ABDF90010B2F900008842C8BF1180A7
:201B2000002C13DD3222002109A807F0D7FD22220025009E8DF82D200836711909B209A88B
:201B4000013508F01EF82BB2A342F6DB019808F014F9013708F10808802F1FFA88F8A4D112
:201B60005846FFF7D9FE431C04467FF46EAF0122314B1A708BE70026009B1C440FFA88F381
:201B800024B20493049BAAB2A34204DC002131E02E461546F0E7214609A8059207F0BBFFE0
:201BA00000219DF82D008AF8001000F006010229A4B2059A0BD1810609D40121BDF82A5008
:201BC0008AF800102C44154424B22DB2DAE78306B1B204D5013424B24E1C36B2D2E7400712
:201BE00005D5BDF82A20144424B25618F5E7A8EB040421B2B0B2A2F1080404440C4424B2B7
:201C0000002CA9F800409AF8003003DD7BB1C0F108052DB2ADF81C50ADF81E60ADF8201043
:201C2000002B7FF45FAF072C7FF76AAF5AE7C2F1080636B2EEE700BFC6150020F40E00209B
:201C4000F60E0020C7150020234A2DE9F8430E46814600240C21904601FB04273B7A83B154
:201C60000134052CF8D14FF0FF342046BDE8F8832B6801331BD1B5F9040007F050FF28600A
:201C800015E03B814846FFF7FDFD054678600028EED106F00303012BE5D02B460122082171
:201CA0004846FFF7C5FE78600028DCD005600C2303FB0482117A6343314316F004061172E1
:201CC0001CBF5268166808EB0302526848F80360937A01339372C8E7E003002004280CD894
:201CE0000C22064B02FB0030037A33B10022416802728B7A013B8B7242607047E0030020FE
:201D0000042870B525D80C244443134B1E19357AFDB122B1022A18D1726812681144002912
:201D200017DB0C2202FB00325268B2F90640B1EB042F0EDC14688C4202DAAC0709D51160C8
:201D40000C2250431950084670BD012A01D11A59E4E74FF0FF31F6E7E00300202DE9F0430B
:201D6000042891B081460E46144662D80C224243314DAB18197A00295BD0C80759D5597A9C
:201D8000D3F80480490724D5002730191A68841BD8F8001022448A4218D898F80B30B8F99C
:201DA0000410DB0727461CD40C2404FB09F42B593046323303EB0122394608F056F82B59EB
:201DC0003B442B51384611B0BDE8F08300F8017DDCE7AB58D8F800201919914288BFD41A4B
:201DE000DBE703A807F097FE0C2303FB0955002CE8D02B68ADF808406A46B8F9081003A8D7
:201E0000CDE9003607F0D2FE00280CDA2B68B8F904203233304603EB0222BDF8081008F0E7
:201E200024F8BDF808002B68064403442B60241ADDE74FF0FF37C5E7E00300202DE9F047A7
:201E40009AB000AF81460C460146384607F063FE012107F10A00FFF7F7FE061E2CDBB7F969
:201E600006100023A140012209B207F10A00FFF7DFFD044618B93046FFF730FF1CE04FF0A5
:201E80000008BA88EA46002A08BF4FF48072D31D23F00703ADEB030D69463046FFF75EFF75
:201EA000051E0CDA0022B4F904001146FFF76CFD3046FFF713FFD5464FF0FF3544E009D087
:201EC000B4F90420294608EB02223232684607F063FFA844D546002DD3D12B461D48C218B8
:201EE000117A41B15168B1F90410494501BF5460A27A0132A2720C333C2BF0D100220121DE
:201F00004846FFF741FD0028B4F9040004DA00221146FFF739FDAEE7014607F1340007F0A4
:201F2000FAFDBB8807F134003B877B88B4F90410FB8607F026FEE37AC4F8008023F0010369
:201F4000E3723046FFF7CAFE28466837BD46BDE8F08700BFE0030020FF232DE9F04F9FB044
:201F6000042800AF81463962934687F8343005D94FF0FF307C37BD46BDE8F08F0C23B84E0D
:201F800003FB00631A7A002AF2D09507F0D55A7A5D6894070AD41C460BF132082368B5F91C
:201FA00006204344B3EB022F00F292800C2303FB09F3F218527AF358D00700F14181EA7A69
:201FC000D10703D42A689A4240F33A8100230C227B61A34BC7F82CB002FB0933FB61FB6947
:201FE0001C68FB6A002B56DDB5F9041007F1440007F091FDB7F84860B7F84680002E08BF56
:202000004FF48076B8F1000F03D14FF4806898FBF6F894FBF6F39AB206FB1343BB61B969F6
:20202000BB8D701A97F84D408342C8BF83B214F008047B62FA8676D0B5F90840B7F9443064
:20204000002CBB6218DA4346102BA8BF10233B615B00083323F00703C7F808D0ADEB030D59
:202060006B4644464FF0000ABA6A12023232FA60D04537DCD7F808D024B2A0457DDC0021E2
:20208000B5F90400FFF7DAFE002880F2C380FB6A5B453FF46DAF7B6973B10C2303FB09F35E
:2020A0006F4A0121D358B5F90420313303EB022207F1340007F070FE0C2303FB09F9684B5F
:2020C0002A6853F8093058469342C8BF2B6051E70121B5F90400FFF7B1FE0028FFF648AFA0
:2020E00065685BE73A69A8EB0A049442A8BF1446A2B214467A60FA68184602EB4A02610014
:202100003B6007F0B2FE00223B68944204D033F8121031B90AEB02047A6852441FFA82FACF
:20212000A6E70132F1E7B11C08FB01F101F231111023012241F30F2107F14E00FFF778FCA6
:2021400082460028A3D097F84D3043F0080387F84D308388B5F9041007F14400A7F84430BA
:2021600007F00FFDEB7A43F00103EB72BAF904305A1CBB628BD0A7F84430F31D23F007034E
:20218000C7F810D0ADEB030DFB8EBA697343002AEA46BB63C7F83CD0A7F8406002DC7A6A52
:2021A000964213D007F13802214607F14400FB6007F0FCFC0028FB6808DAB5F9042031468F
:2021C00003EB02223232504607F04FFED7E90812BB695344184607F0A9F9BB6AFA8E1B0259
:2021E000323307F17800013220F8422D022103EB4402BB6207F0D0FDBB6A504603EB480225
:2022000006FB04223146013407F0C6FD2C81D7F810D0786A10B9FB695D68E0E6FB6AFA6973
:202220001B1AFB62FB691B68034413603A6A02443A622A689342C2BF2B6001237B61CEE6BE
:20224000B5F90420323303EB02225946386A07F0A3FD0C2303FB09F3F2585A44F2502BE7F8
:20226000E003002038B5624C07F0C2FBFEF780F907F03CFE00F030FB00215E4800F0BAFBE6
:2022800000F022FAFEF74AFB07F012FE00F0F6FBFEF71CF801F0F2F900F0E4FB2368022BA4
:2022A00007DD554A5549564801F07AFF554801F077FF2368022B09DD50494F4A504801F098
:2022C0006FFF514B5148196801F06AFF2368022B09DD4A49484A4A4801F062FF4C4B4D48AD
:2022E000196801F05DFF2368022B09DD4349424A434801F055FF484B4848196801F050FFA6
:202300002368022B09DD3D493B4A3D4801F048FF4AF6CD31424801F043FF2368022B08DDBF
:202320003649354A364801F03BFF1A213D4801F037FF2368022B09DD30492F4A304801F016
:202340002FFF394B3948198801F02AFF2368022B07DD294A29492A4801F022FF344801F01D
:202360001FFF2368022B02DD324800F04FF92368022B02DD304801F013FF08222D492F48CD
:2023800007F0D4F800212E4800F034FB4FF0FF3002F0BAFC23680546022B07DD164A174907
:2023A000174801F0FDFE274801F0FAFE2368022B03DDD5B1A81C00F019F92368022B02DDFF
:2023C0001D4801F0EDFEFDF7A7FF1F4807F066FDFEF7AAFA00F098FA0446FEF7ABFA14F05E
:2023E000FF0FF7D107F00EFBF4E72846E3E700BF140200200402002005AC240075AB2400C0
:202400007AAB24000AAC240004AB240041AC2400F4AA240050AC2400DCAA24005BAC2400FE
:2024200066AC240080AC2400F80E0020A0AC2400ADAC2400DE250020F1AF2400341E0020AA
:20244000FC020020C2AC240054AB240010B50446FEF7BEF8D4E900321344C01A024B9842A8
:202460008CBF0020012010BDFEFFFF7F10B50E4C236813B90D4A136010BDFEF79FF8216866
:20248000D1E9002313448A681B1A1AB91844074B1860F1E7D2E900142144091A8B4228BF05
:2024A0000B469268F1E700BF5C04002058040020014800F0B7BA00BF040200202DE9F8435E
:2024C0000388054653B1592B47D1872920D1002024490B6863B918B10B6001E0214A1360D6
:2024E000592301202B80BDE8F88301203346F1E7D3E902649442F8D000B10B6099680029FC
:20250000EED0C86890420ABF89680B469960F5E78229E5D1134F4FF00009B84600263C6848
:20252000002CDDD0204607F0EFFC98B122468821E06800F037FA58B9E060A3682EB1B36069
:20254000C4F80890FFF792FFE8E7C8F80030F7E7FFF7AEFF2646A468E2E700230380032056
:20256000C1E700BF5C04002010B50446FFF7A0FFE3680B4A0BB1136833B90A4B1B68E360F2
:2025800013681460A36004E0A34206D1054A1268DA60BDE81040FFF769BF9B68ECE700BFFE
:2025A0005C040020E4050020024B1868003018BF012070475C04002010B50B4A0446136887
:2025C000834208D183681360FFF750FF0023C4E9023310BD1346002BF8D09A68A242F9D1EC
:2025E000A2689A60F0E700BF5C04002000B58BB002462821684604F0FFFC6946024801F0B9
:20260000CFFD0BB05DF804FBF2AC2400F8B5054688B9BDE8F8400A4801F0C2BDE30702D485
:20262000384601F0BDFD295D3046013401F0B8FD082CF3D1F8BD0024024E034FF3E700BF8E
:20264000F5AC240006AD240004AD2400F8B5038806461546CBB14A2B2BD188291FD117483D
:2026600007F077FC0446C4B1231D9D421FD12146124807F078FC124D62692F682A60A269A0
:202680000AB1E06990472F6007E00C4807F061FC044634B901220B4B1A704A2333800120C6
:2026A0000AE0A168201D07F004FC2468F1E72468D9E7002303800320F8BD00BF6004002082
:2026C000E4050020C815002010B50024054B06481C7007F03BFC2146BDE81040034800F01C
:2026E00089B900BFC8150020600400201802002070B50446E3610B4B049D1B78C4E90552DD
:202700006BB1094D094B2E68201D2B6007F0D1FB2E602146BDE87040054807F037BCA16050
:20272000F7E700BFC8150020E4050020180200206004002013B5034C24680094FFF7D8FF34
:2027400002B010BDE405002070B5094B05461B783BB1084C084B26680430236007F0B2FB1E
:2027600026602946BDE87040044807F00FBC00BFC8150020E405002018020020600400207E
:2027800010B5084B04461B7843B10430FFF714FF2146BDE81040044807F0E5BBC0E90333F5
:2027A000F6E700BFC81500206004002010B50A4B04461B7823B1BDE81040043007F08BBBCB
:2027C000064807F0C6FB08B9012010BDA04201D00068F8E70020F8E7C815002060040020CA
:2027E00038B5836804460D469BB10A4804600220A07304F10C0098470238012801D9832D60
:2028000005D121462046BDE8384000F005B80123A37338BDE40500202DE9F8431C4F894688
:202820003D682C46844204D00CB9BDE8F8832468F8E7002CF9D0174EA37BD6F8008063B1BD
:202840000023A3738DB9A3683BB14C4505D034602A46832104F10C0098473B68A3420ED1AD
:2028600023683B60C6F80080DFE7AC4204D022468721284607F034FB2D68E3E71346002BE5
:20288000F0D01A68A242F9D122681A60EAE700BFE8050020E4050020002238B50125084B16
:2028A0001A70084B1C6804B938BDE37B2BB1E581002282212046FFF793FF2468F3E700BF8D
:2028C000CC150020E8050020024B1878421C1A70704700BFCA1500208A22064B1A70002306
:2028E000054A1370054A1370054A1360054A1360704700BFCA150020C9150020CB1500203D
:20290000E8050020E40500202DE9F0411B4D2B780BB1FFF7C1FF1A4C22789AB10C21194EFE
:20292000194F3378013A59430133781803F01F0317F801803370D0E90170227090B9134B3E
:202940001E6826B92B7820781844BDE8F0812B780BB1FFF7A1FF30463A46414607F0C0FA42
:202960003668EEE7B8F1810F08BF01233A4608BF8373414607F0B4FAE4E700BFCC150020CC
:20298000CB150020C915002064040020E8050020024A034B10781B7818447047CB150020DC
:2029A000CC150020F0B50B4E3378202B0FD00C25094C0A4F24781C4404F01F046C433D194C
:2029C000C5E901200020013339553370F0BD0120FCE700BFCB150020C915002064040020AD
:2029E00038B5034C256807F07BFA256038BD00BFE405002030B40A4C0A4625682B46834213
:202A00000CD04BB950B101210560817320608381812130BCFFF7E4BF1B68F0E730BC7047B2
:202A2000E805002038B1837B013B012B9FBF0123014AC37313707047CC15002010B5084CE3
:202A4000206858B100232360D0E901319847236823B1BDE810401868FDF7FABD10BD00BF6A
:202A6000EC050020034A9179D379034A03EB012313807047DE250020F80E0020CD2182B090
:202A8000064B02AA42F8043D934204D30021044802B0FFF7AFBF03F8011BF5E70026002056
:202AA0002802002038B5FDF745FF0C4C0C4D2378CD2B0DD0AC4208D3FDF73CFFAC423ABFA7
:202AC0002C1BA0B24FF6FF7038BD0134EFE701342378CD2BF0D1AC42F9D3EDE7002600204C
:202AE000002E002070B50388054603B3902B27D1154807F0F0F908B3FFF7D4FF134C144BA5
:202B00000646E41AA3B298420DD9124B1B68002B09DD114A1149124801F042FBA2B231465D
:202B2000104801F03DFB084807F0CCF904E04FF4A061054807F0BDF990232B80012002E085
:202B400000230380032070BDF0050020002E002000260020140200201AAD240020AD2400C4
:202B60007AAB240024AD240010B5044690F84730084A013380F84730802103462030FFF764
:202B8000D9FD054B2246BDE8104019780020FFF709BF00BF692B2400FC2500202DE9F04144
:202BA00003880446B3B1CB2B29D1822914D106F05CFFBFF35F8F0022134B1E681A60BFF339
:202BC0005F8F06F056FF0127104DDFF8448055F8040F18B9CB232380012013E090F84530C9
:202BE00007FA03F33342F2D0FFF7E0FD0028EED02B68424602211846FFF79CFDE7E70023D2
:202C000003800320BDE8F0810C0600205C0000202D2C2400034A1368184310600248FFF7FA
:202C200001BF00BF0C0600203802002070B50446FFF7BCFD20B304F120063046FFF7B6FD5E
:202C40000546204607F06EF9012811D1C5B1002523460C4A84F847507E213046FFF76AFD7B
:202C60002246094B2846BDE870401978FFF79ABE30B92DB93046FFF783FD2246034BF1E7AD
:202C800070BD00BF692B2400FD250020FB2500202DE9F843FFF718FE314B324E1870FFF737
:202CA00013FE314B314D1870FFF70EFE304B314F18700023B360304BDFF8C880DFF8C890FD
:202CC000736055F8041F39B92C48FFF793FEBDE8F843244800F04AB9012491F8453091F8D9
:202CE0004620D9080903C85903F0070304FA03F320EA0303CB512B6893F84530D9080903C3
:202D000051F8080003F0070304FA03F320EA030341F808302B6842F08C0193F84500FDF7DA
:202D200035FF2B6893F84530DA08120352F8091003F0070304FA03F30B4342F809302B682D
:202D40000F4A93F84530DB0804FA03F313602B6893F845309C40B3681C43B460B1E700BF7C
:202D6000FD25002000060020FB2500205C000020FC25002020940D40152C2400380200202E
:202D800000E100E000940D4010940D4070B5058804466C2D09D07E2D2FD0002D33D1FFF761
:202DA00093FD1B4B18701B4B1D601B4E194D08E00A282B680ED07E2B03DC5A1C2A60174A6F
:202DC000D054304607F071F9431CF1D16C23238001201BE05A1C2A600025104A2846D55473
:202DE0000B4B1978FFF7DEFD0D4B2A4685211868FFF7D8FD18B97E23E9E78529E8D1002297
:202E0000044B1A60D1E700230380032070BD00BFFE2500201006002014060020CD150020C7
:202E2000E40500200D2810B5014616D00C4C237853B90C4807F026F908B9012323700A482F
:202E4000FFF7F0FD012010BD0A28F8D1054807F019F90028F3D00023F0E70020F3E700BFB2
:202E60004D160020140600204802002008B505490548802207F0FFF8BDE8084000210348EA
:202E8000FFF7B8BD4E16002014060020480200200022F0B594460126FF270F4D40FA02F326
:202EA000DB0711D515F8121005EB4204CB081B03647803F1804301F0070103F5592306FAF4
:202EC00001F12CB143F821C00132042AE6D1F0BD43F82170F8E700BF64AB2400F0B50021DF
:202EE0000126FF270E4D40FA01F3DB0711D515F8112005EB4104D3081B03647803F1804335
:202F000002F0070203F5592306FA02F22CB143F8227001310429E6D1F0BD43F82240F8E765
:202F200064AB2400F0B4002101260D4F0D4D0E4C17F811300131DA081203505903F0070343
:202F400006FA03F320EA030050511059042943EA00031351ECD1F0BC0F20FFF7BFBF00BFD8
:202F600064AB240020940D4000940D400146014807F00CB81C06002038B50546064806F033
:202F8000E8FF044604B938BDA068284002D0636803B198472468F5E71C060020014806F0C5
:202FA000D5BF00BF1C060020064A136843F004031360054B186804331B6840EA032080B2FB
:202FC000704700BF00700D4014700D4010B5174A136823F00C0313600122154B1A601A6838
:202FE000012AFCD10822134B13491A60E32203F505731A601A460B68DB07FCD50F4C10217A
:2030000000232068013900F0010043EA00034FEA43039BB2F5D1002BF1D00949180A03F0C5
:20302000FE0308600B60EF23136010BD00700D40A8200D4024860840648608409C8608400A
:2030400014700D4008B5044806F0BFFFBDE80840024806F0BABF00BF64020020580200207D
:20306000014806F0FABF00BF5802002038B50E4806F0BBFF054650B10C4806F0B6FF044697
:20308000286030B92946084806F0C3FF2546284638BD00F0FBF904F19C01A4F8800004F1F3
:2030A000820000F07DFAF2E7580200206402002010B501460446074806F0C1FF48B1216871
:2030C000054806F0A6FF2146BDE81040014806F0A0BF10BD580200206402002010B5014635
:2030E0000446094806F0ABFF68B12468B4F88010204600F03FFA04F19C0104F18200BDE877
:20310000104000F05FBA10BD5802002030B1054B9B68C01A044B8010584370474FF0FF3062
:20312000704700BF70020020ABAAAAAA38B50D4D002818BF05460C4806F00BFF044610B9E6
:203140004FF0FF3038BD211D284607F012F820B12046BDE83840FFF7D9BF204606F032FFF0
:20316000ECE700BF5CAB24006006002008B5024606F0C1FF42B1431C06D0044B1268185CEC
:20318000104100F0010008BD0020FCE7FE16002050B10368072B06D8044A52F823301B1A55
:2031A0005842584170470020704700BF4006002010B50446FFF7ECFF10B1A160012010BD89
:2031C000054A1368072BFAD8581C1060034A2360A16042F82340F1E7240700204006002046
:2031E000F8B505460C460C270E4E2146284606F082FF431C16BFB368002007FB003006F013
:20320000E1FEFFF783FF0146284606F06AFF044628B101462846FFF7A9FF0028E5D020468A
:20322000F8BD00BF7002002038B505460B4806F090FEFFF76BFF0146284606F052FF0446D3
:2032400001462846FFF792FF28B921462846BDE83840FFF7C5BF204638BD00BF6006002045
:203260002DE9F0474B4D0646002918BF0D46284690469946FFF75AFF421C044652D1464CFB
:20328000204606F0B2FE074600283FD14946404603F06EFF18B900242046BDE8F087FFF7BB
:2032A00045FF431C4ED0A3680C2404FB0034002C48D03A4B1A5C02B11F540027DFF8E8A0F4
:2032C00020465AF82720FFF721FF014682B1D2F80880B8F1000F0BD0104606F002FF0146E6
:2032E00081461046FFF742FF012801D14846C0470137082FE4D12046FFF708FF0022284BCE
:2033000021461A54274806F02EFE27463946254806F03CFE3846FFF7F9FE29460446381D45
:2033200006F024FF2146304606F0DBFE04467268002106F0D3F9012322463146184806F068
:20334000E5FEA9E7174806F004FE002402462746DFF84880DFF8489012B9002CADD19AE786
:203360001046FFF7D3FE18F800304BB919F8001059B90CB1BB4203DA1446002B9DD01F46CB
:20338000104606F01FFE0246E6E7C80748BF01334910EDE75CAB240070020020DE160020A7
:2033A000FE160020600600204006002070B50A4604460D4600230146054806F0A7FE06463D
:2033C00000232A462146034806F0A0FE304670BDFE160020DE1600200A4601230146014825
:2033E00006F094BEDE1600200A4600230146014806F08CBEDE16002008B506F07CFE431C8E
:2034000007D00C22044B9B6802FB003000B1043008BD0020FCE700BF7002002010B5074915
:203420000B88834208DB064C80B222880244181A08800120228010BD0020FCE75A14002002
:203440005C140020014B1880704700BF5A1400200048704728070020014B1888704700BF44
:203460005A140020034A044B10781B781844C0B2704700BF0E1700205C14002008B5FFF73B
:20348000F1FF014B184408BD2807002070B50D4D0D4C2A78238806461344802B0FDC0B49CE
:2034A00006F044F82B781E44FFF7E8FF22880146304606F03BF828782388184470BD002074
:2034C000FCE700BF0E1700205A1400202807002008B5FFF7C7FF024B1B88184480B208BD6C
:2034E0005A14002010B50146FFF7F2FF4318802B0FDC094B013800B25A18040405D5074B75
:20350000187808441870012010BDC45C14540138F3E70020F8E700BF280700200E1700206C
:2035200038B5094D094C1A220021094806F0D6F82946204606F01AFE294604F10800BDE88D
:20354000384006F013BE00BF5CAB2400B4250020C42500200023044A1380044A1380044A0D
:203560001370FFF7DDBF00BF5C1400205A1400200E17002038B50C460546FFF7EBFF802CFE
:2035800028BF802429462246034805F0CFFF034B20461C8038BD00BF280700205A140020DA
:2035A00010B50C461A22054905F0C0FF2046BDE810401022024905F0B9BF00BFC4250020A9
:2035C000B425002010B50C461A220146044805F0ADFF2146BDE810401022024805F0A6BF39
:2035E000C4250020B4250020024B23F810100120704700BFC4250020014B33F81000704763
:20360000C425002008B5044B0D3803EBC00006F0ADFD012008BD00BFB4250020024B0D38D2
:2036200003EBC000704700BFB42500200149024806F09FBD5CAB2400BC25002070B50546EB
:203640000D480E4606F085FC044600B970BD012D0AD1A3681BB9204606F0B4FCF4E73046D5
:2036600098470028F7D0F1E7002DF4D16368002BF1D09847F5E700BFA8070020054B10B59D
:203680001B689847044B5B689847BDE81040034B5B68184708AA2400DCAA2400F4AA240030
:2036A00010B50848FFF750F80748FFF7BDFD064C00B910BD037A01465B0803722046FFF7E8
:2036C0008FFDF5E7981C00207C0200200146014806F039BD7C020020F8B531F002030746D6
:2036E0000E4615462FD10146174806F02CFD044650B90346092239461348FFF7B1FD0446C7
:2037000008B306F050FDA080FCF758FF237A20602B44102BA8BF10232046022E237208BFEE
:203720000C3506F02EFD002814BF0A221922ED01ADB25543A388C2F1640101FB03556423C2
:20374000B5FBF3F5A580F8BD7C02002038B505460420FFF751FF294604B20E4806F0F3FC57
:20376000034658B9092229460A48FFF779FD024618B1C48006F017FD908038BDB0F9062064
:203780000A205A21604301FB0202642192FBF1F2DA80F2E77C02002038B50848FFF744FDA7
:2037A0000446064D04B938BD21462846FFF7FEFD21462846FFF714FD0446F3E77C02002056
:2037C00010B500210548FFF7F3FCBDE810400023034A4FF4E1310348FEF7ACBF7C020020CE
:2037E000A1362400981C0020F8B5FCF7E7FE002504460E4F0D2007EB0516FFF70FFF3146F4
:2038000006F0B7FC68B10720FFF7F6FE337B83420AD1B068201AB0F5206F8CBF0020012075
:20382000F8BD0135102DE5D10020F9E76C08002070B5144D00242E460D20FFF7EFFE05EBF8
:20384000041106F096FC013408B9102CF4D12401103C0FD10720FFF7CFFE3073FCF7AEFE57
:20386000B0600D20FFF7DAFEBDE870400146054806F07CBC60191022A0F1100105F056FE90
:20388000E6E700BF6C08002030B591B0054600F063F84FF6FF73984204D14FF0FF3420460E
:2038A00011B030BD40220021684605F017FF274B1A782AB901221A70FFF776FB244B18702C
:2038C0007DB10720FFF798FE58B9214C23780BB90123237021780720FFF786FE237801336A
:2038E0002370FFF7A3FE6A46C1B21A4806F0CDFCFFF79CFE08B34FF6FF73ADF800300D2056
:20390000FFF78CFE014602A806F030FCFFF7B6FD0E90FFF7A1FD0F90684606F0A9FD044606
:20392000002DBCD0FFF7DEFD0028B6D0FFF790FD0146684606F0E4FDB1E70E20FFF76EFED8
:203940000146684606F012FCD9E700BF0F17002010170020F9352400014B1888704700BFAE
:20396000900300202DE9F041012986B006460F46144603DC002006B0BDE8F08103A906F085
:2039800006FE0A2203A904F1100005F0CFFD9DF81130002B44D0B51C02AA01A903A806F0A8
:2039A000B8FC9DF81380B8F1000F4CD0029B23B16A7815F8023B03EB0223B8F1020FA383C7
:2039C00032D13249204606F0D1FB6B78237015F8023B63709DF81580B8F1000F4DD0019B13
:2039E000002B37D06A7815F8023B03EB0223029A9BB2E38302B9A383B8F1020F2DD1234902
:203A000004F1080006F0B2FB6B78237215F8023B6372A81B3B1A8742C4E90E53AADBAAE76A
:203A2000B378F51CA376B7E7B8F1030FD2D105F108021346611E13F8010D9D4201F8010F5C
:203A4000F9D11546C6E71149204606F08FFBA4F81C80BFE7A38BE383CEE7B8F1030FD8D1C9
:203A600005F10802134604F1080113F8010D9D4201F8010BF9D11546CBE7044904F10800D1
:203A800006F074FBA4F81E80C3E700BF5CAB240070B505460C460A4E102C07D874B12B6806
:203AA000224668680649BDE8704018472B68102231466868984710B9103CEDE7204670BD64
:203AC0006AAD24002DE9F04F0746144600258FB00791079B1B78B3B1DDF81C8000E0B046D3
:203AE000464616F8013B0BB1252BF8D1079B98450ED0A8EB03094A463B680799786898478D
:203B000028B14FF0FF3528460FB0BDE8F08F4D4498F80030002BF6D098F80130002BF2D018
:203B20004FF0000A314611F8012B33462B2A16D00AD8202A16D0232A17D0A2F131000828A2
:203B40003FD84FF0000918E02D2A04D0302AF4D14AF0100A01E04AF0010A0E46E2E74AF0F3
:203B6000060AFAE74AF0020AF7E74AF0080AF4E70A2303FB0929A9F13009334616F8012B26
:203B8000A2F130010929F3D91A782E2A35D159785A1CA1F13000092828D800261178134631
:203BA000A1F13000092802F101021AD91A786C2A40F092805A786C2A22D14AF0800A02336B
:203BC00021E02A2A0AD1D4F800900B46B9F1000F04F10404B8BF4AF0010AD5E74FF0000992
:203BE000D2E70A2303FB0616303ED7E72A2903D1266802330434D9E713464FF0FF36D5E72E
:203C000001334AF0600A1A78642A00F0928000F28580462A00F0AF8071D8252A00F0C0805C
:203C200066D8002A3FF46FAF013307930AF4E063B3F5806F00F0568200F2B580B3F5807F8F
:203C400000F0EA80B3F5407F7FF443AFAF4B1AF4804FAF4A18BF1A460DF1330300211E467E
:203C60002068043450EA010C40F07482F61A04BF302203F8012C4FF0780208BF03F1FF3324
:203C800003F8012C4FF0300208BF012603F8022C23220336B1458CBFA9EB06094FF00009CA
:203CA0001AF0010AA3F1030803F8032C06D149463846FFF7EDFE00287FF423AF3B683246D9
:203CC00041467868984700287FF41BAF3544BAF1000F00F03682ACE1682A94D15A78682A76
:203CE00002D14AF0200A6AE701334AF0400A8AE7412A4CD0452A97D14AF4424A94E7582AEE
:203D000033D004D8472A8FD14AF4A13A8CE7612A3AD0632A88D14AF4A06A85E76E2A3CD094
:203D20000AD8662A24D029D3672A2AD0692A7FF47BAF4AF4245A77E7732A2BD007D86F2A3C
:203D400010D0702A7FF470AF4AF4407A6CE7752A05D0782A7FF468AF4AF4C85A64E74AF483
:203D6000106A61E74AF4885A5EE74AF4B24A5BE74AF4007A58E74AF4844A55E74AF4024AD7
:203D800052E74AF4813A4FE74AF4C13A4CE74AF4E13A49E74AF4806A46E74AF4E06A43E7BF
:203DA0004AF4C06A40E7B3F5C06F2BD0B3F5E06F00F0DF81B3F5A06F7FF48BAEB9F1010F3E
:203DC00038BF4FF0010923681AF0010604F104048DF8203009F1FF3807D141463846FFF731
:203DE00057FE00287FF48DAE45443B68012208A97868984700287FF484AE002E00F0A181CC
:203E0000414617E13B68012242497868984700287FF477AE01355CE6002EACBF2AF0100A0E
:203E200001261AF400520AF0E003069243D0402B3AD009D8002B3AD0202B11D00022002377
:203E4000CDE90023002319E0602B30D0802BF5D1073424F0070303F10804D3E9002303E056
:203E600094F90020D3170434002A73F10001E7DA524263EB4303CDE90023012305930AF468
:203E8000C053B3F5805F00F0EB80B3F5C05F00F0EC80B3F5006F40F00381DDE900230DF158
:203EA000360BCDE9022348E0B4F90020DAE722680434D317D8E7402B1FD009D8FBB1202B93
:203EC00014D00023002205930023CDE90023D6E7602B14D0802BF4D1073424F0070303F13C
:203EE0000804D3E90023CDE9002304E022780023CDE900230434069BC0E72288F7E72368F1
:203F0000002219460434CDE90012F4E78AAD24009BAD2400BDAD2400DDE902010A220023D8
:203F200005F050F9DDE9020130320BF8012D00230A2205F047F9CDE90201DDE90223134369
:203F4000EAD10DF13603A3EB0B030293029B41F608029E4288BFF61A41F208030AEA0202F3
:203F600098BF00269A4202D1002E08BF012641F60801029B8A42334440F09680DDE90012BB
:203F80000A4300F091807D491AF4804F7C4A08BF0A464FF002080092069A82B1059A002ADC
:203FA00040F087800AF00602022A00F08780062A744A009904BF11464FF0010800914344A4
:203FC00099458CBFA9EB03094FF000091AF00103059304D11AF0100F74D04E449946D7E9B7
:203FE0000030B8F1000F05D042460099984700287FF487ADB246029B1D44BAF1100FD7E9B5
:20400000003066D8BAF1000F05D052465E49984700287FF476AD3B68029A59467868454480
:20402000984700287FF46DAD059B3544002B00F0888049463846FFF72BFD002800F081806C
:204040005FE502F0070130310BF8011DD10841EA4371D8080A46034652EA0301F1D170E716
:20406000DDE900230DF1360BF6E7484B1AF4804F0DF1360B464918BF1946DDE9002352EAA2
:2040800003003FF45EAF02F00F00085C4FEA131C0BF8010D100940EA037002466346EEE783
:2040A0000DF1360B002350E74FF00008CDF8008072E74FF00108374A009280E74FF0010878
:2040C000354AF9E749463846FFF7E2FC002886D017E510222C49984700287FF412ADAAF1AB
:2040E000100A8AE7D4F800B00434BBF1000F2CD0D84698F8003008F1010223BBA8EB0B086C
:20410000002E02DBB04528BFB046C1458CBFA9EB08094FF000091AF0010606D1494638468F
:20412000FFF7B6FC00287FF4ECAC3B68424659467868984700287FF4E4AC4544002E7FF4C6
:2041400078AF4D44C5E49046D3E7DFF850B04FF00608D5E700F00F0C12F80CC04FEA111E45
:2041600003F801CD4FEA101C4CEA017C6046714678E5236804341D60ABE400BFACAD240099
:20418000AFAD2400B4AD24007AAD24008AAD24009BAD2400B2AD2400E4AC2400B6AD24004A
:2041A0000FB407B504AA52F8041B04480192FFF789FC03B05DF804EB04B070478C020020FF
:2041C0001FB51446074ACDE90001029221461A4602A8CDF80CD0FFF775FC0022009B1A7055
:2041E00004B010BD05A62400014B1B6A184700BF08AA2400014B5B6A184700BF08AA2400A5
:2042000007B5FFF729F903281BD00F4B9B689847002816DB0E20FFF701FA0C4905F0A9FF4E
:2042200058B1FFF7E1FA60B9FFF702FB084B9B68019303B05DF804EB1847FFF7F7F900284A
:20424000EFD103B05DF804FBD0AA2400DE250020F4AA240070B590F82D100546012994BF62
:20426000CC1C0524FEF7A0FE0121A1400139B0FBF1F42B4604FB1101034A05F10C00BDE857
:204280007040FEF757BA00BF094324002DE9F0470D4614468B688046D3E90067506B92F81E
:2042A0002C9005F060FE6868FEF702FFA968124805F0AFFE2946114805F0ABFE606B05F0F6
:2042C00048FE60B100232046A385FFF7C3FF4B46424639463046BDE8F04705F085BF04F106
:2042E0000C00FEF74DFA2146054805F03CFE2146044805F08EFEEAE794020020AC0200200A
:20430000CC090020A00200202DE9F743044600283DD0406B05F01DFE002838D04068FEF78F
:20432000DDFE6D490D20FFF76DF901210820FFF75BF96A4B5B68984700286ADBFFF788F895
:20434000674E87787568FFF783F88046FFF7C0F801464046A847FFF769F9D6F818808146A6
:20436000C04708B101250CE0B9F1000F12D0B568FFF7AEF8A847054688B102280CBF012589
:204380000425606B05F0E5FD0646002843D103B0BDE8F083F36998470028E8D0E2E7B9F171
:2043A000000FEED1FCF742F90546FCF7C3FAC5F1FF2505F57F05F335FCF738F9C542FBD48C
:2043C000C047D6F81C80D8B1FCF730F90546FCF7B1FAC5F1FF2505F57F05EB35FCF726F954
:2043E000C542FBD4C04790B13369032101A898470328B7D19DF80630BB42B3D10025C0E78C
:20440000C0470028E0D1736998470028DCD00225B7E70525B5E70721706805F05CFE074606
:204420000720FFF7E9F8874244D0304605F0CAFDAAE700202246314694F82C3084F82D004E
:20444000013384F82C30FFF721FFA0E7002384F82D3094F82C300133DBB284F82C30127AAA
:204460009A421CD8224631460220ECE794F82D300133DBB2052B84F82D3007D9002194F858
:204480002C3084F82D10013384F82C3094F82C10137A994203D3224631460120D3E72046D5
:2044A000FFF7D8FE706805F010FE70E7224631462846C8E7B268002A3FF469AF032DF5D876
:2044C00001A353F825F000BF334424006D4424004D4424008F432400DE250020D0AA24003D
:2044E00008AA24002DE9F04107460E208846FFF795F8454B05461A78444C22B901221A704E
:20450000FEF752FD207023780BB901232370217807204B1C2370FFF767F801210C20FFF75E
:2045200063F83B4805F015FD0446002840D1394805F05BFD044600285BD02946201D05F007
:2045400015FE002304F13000C4E90C30A38505F0FDFC21462E4805F019FD606B05F02BFD31
:20456000072846DC2C4805F040FD0546002834D02A4805F03AFDA86058B3FEF777FD6860EB
:2045800018B30620AE68FFF737F8C0B2D0B13072C6E900782946606B05F0F8FC606B05F050
:2045A000D8FC85422DD12046BDE8F041FFF752BE2946201D05F0DDFD0028CED1204605F083
:2045C00001FDB1E708233372E2E7A968134805F020FD2946104805F01CFD606B05F0EBFCB2
:2045E00038B921460A4805F0BEFC2146094805F010FD41463846BDE8F0410123042205F08E
:20460000F3BDBDE8F08100BF1117002024170020CC090020A0020020AC0200209402002037
:2046200008B5064805F0D1FC054805F0CEFC054805F0CBFCBDE80840FEF704BDAC02002027
:2046400094020020A002002005289ABF024B33F810000020704700BF5E14002010B5044C97
:204660000C220021204605F039F80023238110BD5E1400202DE9FF476F46234C234D04F154
:2046800008030FCB87E80F002B7894F80780BBB13A221F49A2710A88D21A92B20A80A2F1DF
:2046A00028010812207103F128002044C3F1040361712C3A011D184404F0AEFF00232B70DA
:2046C000144805F046FC0646DFF844A03EB9104B2E701E80FFF7C2FF04B0BDE8F087D6F85D
:2046E0000490B9F1000F09D0BAF800302A782C3B38329BB2224441463846C847304605F00D
:2047000061FC0646E2E700BF3C1E0020381700202C1E0020A00A0020F8B52C4B2C4C1B791B
:2047200004F11806E371237E04F10805FF2B31D195E80F0086E80F003146284600F0D0FB9A
:20474000244D2B78BBB13A222349A2710A8803F12800D21A92B20A80C3F10403A2F128011F
:2047600020440E1261712C3A011D1844267104F053FF00232B7081212B782833E218E1529B
:204780000023538006F039F8C0432B78134A13445880F8BD2F46124A3B4603CBB342106090
:2047A00051601F4602F10802F6D196E80F0085E80F000B4B0B4D03F110062A4618685968AD
:2047C000083303C2B3421546F7D1B9E7C01C00203C1E0020381700202C1E0020641E002030
:2047E0006A140020541E002038B504460B480D4605F0AFFB08B901200FE00379A34204D106
:2048000043799D4204D0FF2B02D005F0DBFBF1E78368002BEFD09847002038BDA40A0020F3
:204820000146014805F0B2BBA40A00202DE9F84F484D82462B78894693465BB1464A9B5C20
:204840003A2B0FD10023454A2B701380BDE8F84FFFF704BF424B9A793A2A03D193F92830D2
:20486000002BEFDA3F4C404B04F110063746A0461B6B98473D4A234603CBB3421060516087
:204880001C4602F10802F6D1344E28783388344C30339BB2B3F5A06F88BF4FF4A0633380EE
:2048A00032882146121A04EB4000303A303004F0B3FE60232A7823603A23002A47D084F84B
:2048C00028302B4B1B79E371238973B9638963B9A38953B9E38943B9238A33B9638A23B940
:2048E000A38A13B9E38A002BACD0224B0FCB88E80F001E4B1B78FF2B05D1BAF1040FA1D1B9
:20490000B9F1020F9ED119491A4800F0E9FA95F80080584608F12803E21804F803A082F8F4
:20492000019001F0CBF8144B43F808003388283B1A122271002263712B783B445A8005F0CC
:204940005CFFC0432B781F447880BDE8F88FA371B7E700BF38170020641E00202C1E0020E3
:204960003C1E0020541E002004AB24006A140020C01C0020441E0020681E00202DE9F0414F
:204980001D466023174C884623603A23A371164B04F118061B791746E3712B1D1A1263710B
:2049A000227101461022304604F0C0FD31460F4E04F1080000F094FA33782C35283303F813
:2049C00004801A1900235770538005F016FFC04333781C44064B60851D80BDE8F04100F0B2
:2049E000A1BC00BF3C1E0020C01C0020381700202C1E002008B50448FFF712FFBDE808404F
:204A00000248FFF70DBF00BFC4020020B80200201FB50C46074B01469B6968469847102289
:204A20002146684604F050FDB0FA80F0400904B010BD00BF04AB240070B506460B480D4693
:204A400005F087FA044608B9204670BD1DB9204605F0B8FAF6E7A3689E42F8D129462046F9
:204A6000FFF7D6FF0028F2D0EEE700BFA80A002030B505460C460E4B85B05B6968469847BA
:204A800021462846FFF7D8FF694604462846FFF7D3FF11234CB1844201D0013B03D1231A30
:204AA0005842584102E06469F4E7204605B030BD04AB24002DE9F843904606460F469946B7
:204AC000FFF7BAFF414604463046FFF7B5FF0546B8F1000F0DD060B902464FF0FF334146FD
:204AE0003046FFF7E7FF054618B900242046BDE8F8837CB9154805F078FA04460028F4D06F
:204B0000002301464361124805F040FA114A1368013313600822C4E90196B91804F10C0041
:204B200004F004FD39463046FFF7A2FF58B1D4F81480394665613046FFF79AFF0028D5D173
:204B4000C4F81480D2E76561D0E700BFD0020020A80A00202C0C0020002208B5044B054879
:204B60001A6005F032FABDE80840034805F0EEB92C0C0020D0020020A80A00202DE9F84359
:204B80000546184805F0E5F90446164EDFF85C80154F0CB9BDE8F883204605F013FA6368BA
:204BA0008146B3B9304605F0D4F960B92146304605F0D9F92146404605F02BFA3B68013BE7
:204BC0003B604C46E5E74369A342EFD005F0FAF9EBE75A1CF5D0AB4294BF00235B1B6360FB
:204BE000EFE700BFA80A00202C0C0020D00200202DE9F0410D4805F0ACF904460B4E0C4FD0
:204C00000C4D0CB9BDE8F081204605F0DBF980462146304605F0A7F92146384605F0F9F92D
:204C20002B684446013B2B60EBE700BFA80A0020D00200202C0C00202DE9F341154D0446ED
:204C4000CDE900150E4690461F46202203460321114805F01BFD01282B4618D12A6804F1DB
:204C60001001107020462A68023250F8044B884242F8044BF9D11868089B86744361099B5E
:204C800080F813800777836102B0BDE8F0810020FAE700BF380C0020BC1D002070B5064651
:204CA0000C4D0D4C256060352068A84201D3002070BD03781BB9236820332360F4E7827C0C
:204CC0003146D208023004F0FFFB0028F3D10120EEE700BFBC1D0020380C0020802313B5FA
:204CE000074C00930194034620220321054805F0CDFC10B9206802B010BD0020FBE700BFEE
:204D0000300C0020D81C002030B548F2FE040B490B4A1160603113688B4202D300231846B9
:204D200030BD1D783DB1451C02D09D7C854202D15D88A542F3D020331360ECE7D81C0020E1
:204D4000300C0020802337B50F4D0093044603460195122205210D4805F098FC01282B467E
:204D60000FD12A6804F11001107020462A68023250F8044B884242F8044BF9D1186803B028
:204D800030BD0020FBE700BF340C00205C1D00208023F7B5214C0093054603460E461746D8
:204DA0000194202203211E4805F070FC012832D12A46236805F1100118702368023352F871
:204DC000040B8A4243F8040BF9D12068C774DEB9012303750122236812489A7440F2FF2384
:204DE0000380002343808380C38003814FF480734381FF2303736B7B4373EB89C381FFF7A4
:204E0000A1FF206803B0F0BD002331460375183005F03DF8DEE70020F4E700BF300C0020AB
:204E2000D81C00207A140020802313B5074C00930194034612220521054805F027FC10B9F9
:204E4000206802B010BD0020FBE700BF340C00205C1D002038B50546C8B140F2FF230C4838
:204E6000002403804FF480734381FF230373EB7B448043732B8A8480C4800481C381FFF75D
:204E8000D3FF044A106008B105F026FC2C7038BD7A140020340C002038B50E4D0E4C2560EC
:204EA00060352068A84206D300F076F9BDE838400A4805F007B8037843B1037D33B918306D
:204EC000FDF7C4FA10B12068FFF7C4FF236820332360E6E7D81C0020300C00201C1E002026
:204EE0002DE9F84F48F2FE030A8805469A420F462ED00A78FF2A2BD000241C49A04689462A
:204F00009B461B4A0A6002F1600AD9F8006056450AD314BB2C806C80AC80EC802C816C8142
:204F2000AC81EC81BDE8F88F33786BB1B37C012B0AD173885B4507D0B11C384605F0E6FB1B
:204F400080459CBF344680462036C9F80060DCE70120FFF7D9FE0446DBE7A31C123453F86D
:204F6000042BA34245F8042BF9D1DBE7300C0020D81C002070B5094EB0684508FEF714F8D3
:204F80000446FEF711F82402B268A4B22044B0FBF2F302FB1300284470BD00BFC01C0020DB
:204FA00073B5304C00F028F900F06AF8602200212D4804F093FB0021F822204604F08EFB32
:204FC00020222A4B40261A701822294B26711A704FF4A06323604EF66023A360FFF7CAFF09
:204FE0004FF47A730025236148F2FE03E0602575204C2A46238065802B46A580E5803146ED
:20500000CDE900552046FFF717FE20461A4905F067FB294601222046FFF7BAFE40F2FF26F7
:205020004FF480732046E38126806580A580E58025816581A581FFF785FE4FF40073204614
:2050400026806580A580E58025816581A581E381FFF778FE0C21094802B0BDE8704004F040
:2050600028BF00BFC01C0020BC1D0020B91D0020B81D00207A140020341E00201C1E002030
:2050800008B5044804F0A1FFBDE80840024804F05DBF00BFDC0200203C0C002038B50546CF
:2050A0000A4804F056FF044600B938BDAC4209D12146064804F057FF2146BDE838400448C6
:2050C00004F0A7BF204604F07DFFECE73C0C0020DC02002038B5054610B90024204638BDE7
:2050E000084804F036FF04460028F6D010222946201D04F0E9F90028F0D0204604F062FFA8
:20510000F1E700BF3C0C0020F8B50E46054610B900242046F8BDFFF7DDFF044648B91048C7
:2051200004F063FF04460028F2D001460D4804F03AFF2B46251D03F110072A4618685968AD
:20514000083303C2BB421546F7D13EB1314604F1140004F09CFE00232377DAE70123FBE7AE
:20516000DC0200203C0C002038B50A4804F0F1FE002504460CB9284638BD251D284600F070
:2051800073F810B1437C002BF5D1204604F01AFF0446EFE73C0C002038B50D4804F0D9FE2B
:2051A00004460B4D04B938BD237F63B904F11400FDF74CF938B12046FFF770FF284604F085
:2051C000C8FE0446EEE7204604F0FCFEF9E700BF3C0C002010B5044648B1054B9B6C984751
:2051E000044B2146BDE810401868FEF7DFB810BD04AB2400E802002008B5FEF7E1FA034B73
:2052000003491868BDE80840FDF7D2BFE8020020D551240070B504460D481E469DF810200F
:20522000059B0068FEF71CF8054670B120462B4604F1100250F8041B904243F8041BF9D1B6
:20524000044B6E7428469B6C9847284670BD00BFE802002004AB2400024B01461868FEF789
:20526000CBB800BFE802002070B50C4D06462868FDF7DAFF044676B90024204670BD102259
:205280003146204604F020F90028F6D021462868FDF7A6FF0446002CF1D1EDE7E802002090
:2052A000024B0146186804F04EBF00BFE802002013B5044601460120FEF7C0F938B9204691
:2052C000084BDB68019302B0BDE8104018470024054B1C80054B1C70FFF7C0F9204602B0EB
:2052E00010BD00BFF4AA24002C1E002038170020002108B50846FEF7A1F9024618B9022190
:205300000548FDF76DFB0023044A1380044A1370BDE80840FFF7A2B9FC0200202C1E002049
:2053200038170020F0B5384E89B033883BB3B3F5A06F5BD8354C238B73B9638B63B9A38B74
:2053400053B9E38B43B9238C33B9638C23B9A38C13B9E38C002B49D02D4F7B6B984728B9A1
:205360002C4B30801870FFF779F908E0237EFF2B45D02948FFF7B2FC18B100F04FF809B080
:20538000F0BD3B6C04A89847002834D12248FFF785FC90BB204805F0D6F90546D8B9FFF7D7
:2053A000E3FE044610B32046FFF75EFF054670B9214602A805F09FF90623019500932A4672
:2053C000012302A92046FFF725FF054670B12846FFF742FF14E005F0B4F904460028E2D1B2
:2053E0002846FB6C9847284605F0AFF90023094A33801370B7E704ACD5E7074CD3E700200B
:20540000FFF756FFF2E700BF2C1E00203C1E002004AB240038170020541E002010B5064CDA
:20542000238843B1012000F055F923881BB1BDE81040FFF777BF10BD2C1E002038B5044668
:2054400023881046002B3BD040F24532934245D1022932D006D8012927D040F2453301208A
:20546000238038BD872907D08829F6D11D4B98420FD104F030FDF0E700211B4B03F580720A
:205480009D692033A84208BF23F8101C9342F7D3E3E7164B9842E0D104F01DFD0028DCD084
:2054A000FFF7FAFCFFF73EFFD7E70028D5D0104B1860052000F00EF9F4E7FFF7AFFFCCE721
:2054C000FDF702FA0B4B40211870064804F0F1FC00F0B2F8084B5B689847BEE700230320F4
:2054E0002380BEE7800C0020542300201C1E002044230020FF25002004AB2400074B1B6854
:205500003BB12833186840B15A68054B1978FDF767BA044B1B681833F4E770474C230020DD
:20552000FF2500204423002037B5114B114D1C782B7905F10801C4EB03226B7913449BB267
:20554000ADF80630BDF806302022184480B205F038F904F12801BDF80620294405F031F90A
:2055600018B140BA80B203B030BD4FF6FF70FAE7381700203C1E002002200021F8B5294FB0
:20558000294D3A78294C283253195E782070F6000736864202DA79B320702DE0131805EB87
:2055A000030CEB5C012B11D00CD3632B13D003F0C003802B22D0C02B29D0402B2DD181B166
:2055C00020700EE00130C0B20121E2E7831C9CF801001844F7E701B12070154B9B6B9847CA
:2055E00008B90120F8BD22783B78124913440B445B7802321A4422700020F3E701B1207093
:20560000024402210420FFF711F90220EAE701B120702B7EFF2BE4D0F2E702309CF8013071
:20562000D7E700BF381700203C1E00203917002004AB2400641E002008B5FFF7B1FCFFF7C9
:20564000D9F900F081FB4FF48062094B1A800022084B1A821A86A3F85020A3F87020A3F877
:205660009020A3F8B020A3F8D020A3F8F02008BDAA1500205423002070B5134B1D780DB3C6
:20568000124E05F12701328891424FF0000105DB19703180BDE87040FEF7E0BF0C4C1970DB
:2056A00004F1280094F82830283A521B4119A37103F0B2FF33885B1B9BB23380283B1A1248
:2056C0002271637170BD00BF381700202C1E00203C1E002004282DE9F047974E1CD0974CF7
:2056E000974B9849052823600B60A14688464AD1954A1268128A002A00F0078100220C3BFC
:20570000924823600B60924B02601A8032800822904B1A70FFF7F2FE8D4B1A88002A00F02D
:20572000F48002F130038C4C9BB23380283B19126371602300262380834B21711B6808322C
:20574000197D52BAE1711121A285E6851A8AA17122855A8A04F1180562850FCB85E80F0001
:20576000294604F10800FFF7BBFB744B04F13C021A6005F045F8C04380B2002800F0858120
:20578000E085668015E113F83C2CA3F13C0402F0F002602A40F0B980227961791202308869
:2057A0005518854200F3B18028310A443280227AFF2A00F0AA80694A363B13600023684DEA
:2057C000684F2B703B70A379924653B901233B70FFF7D2FE012800F0988046D3022800F0D3
:2057E000E8806148FFF77AFA002840F0CA805E48FFF71AFB002840F0C480207E2389FF28CE
:2058000048F2FE0145D0228B8A4200F042818B4241D073B9638963B9A38953B9E38943B95C
:20582000238A33B9638A23B9A38A13B9E38A002B6BD07AB9638B6BB9A38B5BB9E38B4BB941
:20584000238C3BB9638C2BB9A38C1BB9E38CB3F5807F5AD03388B3F5A06F12D94FF4A062ED
:2058600000210220FEF7E2FFA3E02B7803F128022244CAF800205278083303EBC2032B7030
:20588000AFE7E379012B00F2B180002203201146E8E78B4239D1238B7BB9638B6BB9A38B63
:2058A0005BB9E38B4BB9238C3BB9638C2BB9A38C1BB9E38CB3F5807F27D0FF2825D02A484E
:2058C000FFF7ECF9024600BB02210120CAE73B2B1BD03C2B24D03A2B40F08B8004F08DFF29
:2058E0004FF6FF73984210D12B782833E2185178E05CFEF779FF012804D1002333802B705D
:20590000FEF7ACFE3388002B53D10024144B34801C70FEF7A3FE134B1C700E4B1C704BE08B
:205920003B78990704D5580663D443F0400338E043F0020335E000BF2C1E00204823002017
:20594000781E0020301E0020442300204C230020502300203C2300203C1E002040230020FE
:205960003817002037170020541E00202B7803F128022244CAF800205278083303EBC203F7
:205980002B70DAF8002013782C2BBED09FD8112B32D02B2B12D063BB3B78D80729D443F03D
:2059A00001033B70FFF7E8FD0128AED0DED30228E7D10022394B1A70BDE8F0873B785907C4
:2059C00017D443F004033B702B7803F128022244D1780029CED0324BDB6B984701460028AF
:2059E0007FF438AF2A782A3204203BE7013BE371DFE7121B0121F7E7FFF73EFEE38D7BB9B0
:205A0000638D002B81D0274F274DDFF8ACA02F6007F580772968B9420AD30022042154E7A0
:205A200004F0EEFE4FF6FF7398427FF46EAFE7E70B8A1BB92B6820332B60EBE7628D9A4220
:205A4000F8D14B8A13B1228D9A42F3D10B682BB94B681BB98B680BB9CB682BB11022504629
:205A600003F032FD0028E5D133880220303B338000230E4A0E49C9F800200B60C8F800202D
:205A800006490C4A0870138044E64FF6FF73E38577E693427FF439AF11E700BF3C2300204A
:205AA00004AB240054230020442300206C1E00204C23002050230020441E0020054BC0F3A4
:205AC000072203EA0023000C40BA134380B240EA0340704700FFFF002DE9F04F8E4C87B077
:205AE000E3798E4FFF2BDFF858A240F00E813B7804F12C055A191279FF2A00F0068104F147
:205B000028010B445A780391002A40F0FE80844B844E1A6014229846DFF82892327004F178
:205B2000080B387833782C30BAF8002003449342C0F2858020440430FFF7D0F87A4B186063
:205B40009B46002800F0E18023897BB963896BB9A3895BB9E3894BB9238A3BB9638A2BB9D9
:205B6000A38A1BB9E38A002B00F0CF806F4E3046FFF7B4F8B046002840F0C78040F2FF238F
:205B8000228B06F110099A4240F0AC80638B002B40F0A880A38B002B40F0A480E38B002B59
:205BA00040F0A080238C002B40F09C80638CB3F5807F40F0978094F82430FF2B40F0928046
:205BC00096E80F0089E80F003B781D44043595E80F0086E80F006022554B0025C4E900234B
:205BE00088232385E023DBF8001010220231514884F82C303D7003F099FC02223B784E49F3
:205C00004033E618E254B01C7270082203F08EFC0622294606F10A0003F060FD039A3B7850
:205C200013445D8004F0E9FDC0433B78039A134458805023AAF8003007B0BDE8F08FE118BB
:205C40004A78002A61D0E35C012B26D12389C8F8001073B9638963B9A38953B9E38943B975
:205C6000238A33B9638A23B9A38A13B9E38A002B4BD00822023104A803F058FC5846FFF732
:205C8000F3FA0246C9F8000080B905230190009304A902235846FFF7BDFA32783B781344B8
:205CA0002B445B7802EBC30232703AE7FFF7D4FA014650B3D8F800000822023003F004FC00
:205CC00050B104A9484604F041FD00281DDBD9F8003002225A74E0E7D9F800305A7C002A7B
:205CE000DBD1F6E71548FEF7F9FFDBF8003083420BD198E80F0089E80F003B781D440435D1
:205D000095E80F0088E80F0065E70023AAF800303B70FEF7A3FC8FE73C1E00203817002099
:205D2000980C00203A170020900C0020441E002000283AFF6C1E0020341E0020541E0020E1
:205D40002C1E0020940C00200148FEF769BD00BF0C030020B8220C4BF0B502FB003200239F
:205D600040F24C5553821E461A460849CC18A77827B15F5C874204BFA67001327133AB426A
:205D8000F4D11046F0BD00BFA40C0020461700200122044BFD211A70002299705A70DA70D6
:205DA000FDF750B93B17002010B50E4C0220A179FDF71AFCA379112B09D1238D618D994264
:205DC00028BF1946BDE810400120FDF70DBC062BF3D03A2B03D1218D49BA89B2F2E7002197
:205DE000F0E700BF3C1E002070B513780546087A83F0020398421FD1487A537898421BD181
:205E0000887A9378984217D1C87AD378984213D1087B137998420FD1487B537998420BD15A
:205E2000887B9379984207D1C87BD379984203D10320A840C0B270BD0E4C0B8920682646D8
:205E40007BB94B89B3F57F4F0BD18B89FE2B08D102220E3103F06AFB2368022002332360B2
:205E6000E7E70822114403F061FB3368012008333360DEE7140E002010B5074C01462378FB
:205E8000012B04D10822A01C03F01EFB08B1002010BD2046FCE700BF3B17002008B50146EB
:205EA0000E20FDF7AFFB044B00219B6803489847BDE80840FAF73EBDDCAA240079662400F3
:205EC000F8B5154A154D164C2B7817680E46154922680144F81803F029FB236828781844A1
:205EE00080B2FDF7AFFAFDF7C1F8044608B90020F8BD3046FFF7D2FF2046FDF7EFF8204662
:205F0000FDF7D6F8084B1B68012BF0D0043B012BEDD90120ECE700BF280E0020921C0020F5
:205F2000240E00203C1E00201C0E002000232DE9F04F204D204F87B03B702B700446FDF73C
:205F400009FBFDF79BFA1D4A1D4B12681860019599460AB1FFF728FF54BB1A4904A804F094
:205F600005F90420FEF770FB01460620FDF73CFB04A90E20FDF746FB134B144E1B6803931E
:205F8000984730EA200028BF1520114BC0F17D001860019BD9F800101B7808440233CA1857
:205FA00032602632824215D3002007B0BDE8F08F2146D3E7921C0020931C00209C0C0020CA
:205FC000280E00205CAB2400D0AA2400140E0020200E00200022B948CA54FFF74DFF002867
:205FE00000F036818024336801333360B44D697828780A0942EA0012D2B2930843EA821340
:206000005BB200F00F0208075FFA83F840F028816888002840F024811AB911F0F00F00F006
:206020003E81336803F8018B4FF070083360AB79112B06D02BB13C2B03D0A3F12B02012AFD
:2060400001D848F0040818F0040F04BF326802F8013BEB7908BF3260402B00F02381FF2B8F
:2060600000F02381012B40F0238148F001082B89002B40F03D816B89002B40F03981AB8941
:20608000002B40F03581EB89002B40F031812B8A002B40F02D816B8A002B40F02981AB8A81
:2060A000002B40F02581EB8A002B40F0218144F040042B7EFF2B40F083816B7E44F0080ABF
:2060C000022B6A8B306840F04881002A40F06F81AA8B002A40F04281EA8B002A40F03E81E3
:2060E0002A8C002A40F03A816A8C002A40F03681AA8C002A40F0328195F82620002A40F05E
:206100002D8195F8273044F00B0400F8013B306028233B7033686B4D029300236A4F009399
:206120006A4A3B6812687DB12E78112E00F0DA81002E00F0C8813C2E00F0CB812B2E00F0DA
:20614000BB812C2E00F06C81614D9B1A29780E2002F8018011444C7004A92B70FDF752FA86
:20616000039B984730EA200028BF1520594C5A4F21783A882B78521AD618C0F17D084645E5
:20618000264640F36282A8EB0308A8F1040828F00708C0F17805A2EB0802521B002AC8BF2F
:2061A00002F1FF3425F00707CABF94FBF7F402240334FCF755FFA0427FF7F6AEB8F1000F3B
:2061C000FFF6F2AE0022454BD9F800101A60444B081DB3F800A0404C0AF101021A80019B5E
:2061E0001A7803F019FA019B019A1B7804A9043313702388D9F800201B0A63F03F031370FD
:20620000238882F803A053704FEA1A23DFF8DCA093703078CAF80080FFF752FE00283FF49C
:20622000C3AE0523019A307813702388D9F800201B0A63F01F03137023885370DAF80030D6
:206240001844238886B29E42C0F0EA810120ACE62448FFF711FE00287FF4C4AE0446C5E6DE
:2062600030688AB911F0F00F0ED123F03F030B4300F8013B02221C4903F058F933684FF0E6
:20628000680803333360D2E604220D4903F04EF9336803F8048B33604FF06008C7E64FF00C
:2062A0007808C4E648F00208E1E648F00308DEE6326802F8013B3260D9E600BF541E002032
:2062C0003C1E0020421E0020140E0020280E0020921C0020931C00202C1E00201C0E0020DB
:2062E000AC150020441E00203E1E0020240E0020A348FFF7C1FDA34B186090B1019BD9F8BA
:2063000000101B7840780233CA5C42EA0012CA5404209D4A9A49FFF767FD60F03F00C4B21E
:20632000C7E648F2FE032A899A420DD16B8B5BB9AB8B4BB9EB8B3BB9934A91490420FFF789
:2063400053FD0443E4B2B4E610228D49306803F0EDF8336810333360ABE642BBAA8B32BBDD
:20636000EA8B92B92A8C82B96A8C72B995F824205AB900F8013B0322844903F0D7F83368E4
:2063800044F00A0404333360C2E6EA8B7AB92A8C6AB995F8222052B900F8013B05227C49CE
:2063A00003F0C4F8336844F009040633EBE71022784903F0BBF83368544610333360A7E616
:2063C0007448FFF759FD6F4B0146186090B1019BD9F800001B7849780233C25C44F00404AB
:2063E0000A43C25400206B4904AAFFF7FDFC0443E4B28DE648F2FE032A8B9A4208D16B8BDE
:2064000033B9AB8B23B9EB8B13B904AA6149ECE710226049306803F089F833681033B2E7B3
:20642000022600995C4D01F1280A55445A495B4895F801B011F80A1000684FEACB0B1129DD
:206440000BF1080B02440AD049B13C2907D02B39012904D901339342BFF4A6AD3B60386822
:2064600000EB0B039A427FF69FAD5A46294603F05DF83A685FFA8BF3991E517000995A4407
:206480005944009146493A60087803440B70424B13F80A30112B23D013B33C2B20D02B3BDF
:2064A000012B8CBF00230123760066F01F061E43029B02921E7033E60099374D01F1280AB3
:2064C00055440126B2E70099334D01F1280A5544ACE70099304D01F1280A55440326A5E772
:2064E0000123E1E74FF2B00B0099DFF8ACE001F1280A3AF80E500AEB0E06290A41EA052177
:20650000758889B24FEA052C4CEA152C234D581C2D6838602A4421F00F05ADB25D451FFAA4
:206520008CFC41D12CF00F0BAB453DD1F32102980170991C8A427FF637AD3AF80E2039609B
:20654000100A7288120A02EB001202F5AA625A70144B124938681B680968821C0B449A4228
:20656000BFF422AD0222B11D02F0E0FF3B680C4A02333B601378002508331370D0E500BF2B
:20658000441E0020A00C0020341E0020611E00205F1E0020541E00203C1E0020200E0020A5
:2065A000931C0020280E00200CF47F4CBCF5704F11D1F121029D04339A4229707FF6F4AC27
:2065C0000222314602F0B2FF72883B68120A9A7003333B60BCE701F47F41B1F5704F11D14A
:2065E000F22102980170191D8A427FF6DDAC3AF80E20120A5A7002229818B11802F096FF13
:206600003B68E5E7F021029D05339A4229707FF6CBAC0422314602F089FF3B680433D8E712
:206620009B1B9D42B8BF3B46114AF10812683046117104A9CAF80030FFF742FC00283FF4D9
:20664000B3ACDAF800003044FBE50948094E00683144184402F06AFF3B882878184423781F
:20666000C01A80B2FCF7EEFE04A8FFF717FCEDE5280E00203C1E002070B5124B0C461B6881
:20668000154613B19B68084698470F4B0E201C60FCF7C4FF0D49064603F06BFD80B92A464B
:2066A00021463046FDF718F8094B214630462A465B6C984729462046BDE8704004F080B85C
:2066C00070BD00BF9C0C00201C0E00205CAB240004AB24002DE9F041002306467122134F13
:2066E00002FB03F57C19A078C8B96170FCF7B4FEDFF840800E4B98F800102670401A1E68FB
:20670000A0700E44FCF7A8FE98F800200335821A3146781902F00AFFA078BDE8F081013395
:206720000C2BDDD14FF0FF30F7E700BF46170020280E0020921C00202DE9F04115090F2D27
:206740000646984602F00F0434D00F2C37D01DB12A46304602F0EAFE2A190F2A274605DC6C
:20676000C2F110020021701902F0B8FFD4B1DFF85880C7F110002246D8F80010304402F057
:20678000D5FE022C05D10A2D9FBFFF23F372FE233373D8F800202244C8F80020BDE8F081F3
:2067A0001024D5E7002DF9D041463046BDE8F04103F096BF0F2C00D110241025C8E7002D87
:2067C000EED110273C46D2E7140E00202DE9F8438046894617464B4D002A57D02B8A8342A0
:2067E0000AD16B8A43B10D20FCF718FF0146284603F0BFFC002840D1B5F8C83043453ED1C6
:20680000B5F8CA30002B3AD00D20FCF707FF01463D4803F0AEFC90B301245FFA84F8394651
:206820004046FFF757FF00281DDA6E8A4EB15CB3364803F069FB064618B10020FFF78AFADD
:206840000646B5F8CA3043B13CB9314803F05CFB18B10120FFF77EFA0644002E0FDD39465E
:206860004046FFF737FF002809DDB82303FB0455AB8A64B21844A88203E00024CDE74FF05B
:20688000FF342046BDE8F8832646DAE76B8A33BB0024B5F8CA308BB31D4803F035FB10B1DD
:2068A0000120FFF757FA631C2AD1B5F8CA30002BE7D10124B8266643AF19A7F81290A7F818
:2068C00010800D20FCF7AAFE0146384603F04EFC06F118004021284403F00AFBD1E705F1DC
:2068E000180003F011FB28B96B8A002BD0D04FF0FF34CEE73846FFF72DFAF5E70134D8D065
:206900000024D7E7A40C00205C0D0020BC0C0020740D00202DE9F04F002489B0904F0D20F5
