:020000040020DA
:20200000204100208D2220003BE0200039E0200039E0200039E0200039E020000000000051
:2020200000000000000000000000000039E0200039E020000000000039E02000D7E020001E
:20204000E9E02000EFE02000F5E02000FBE0200000000000DDE02000E3E0200039E02000BF
:2020600039E02000000000000000000000000000000000000000000039E0200000000000EE
:20208000000000000000000039E0200039E0200039E0200039E0200039E0200039E02000EA
:2020A00039E0200039E0200039E0200039E0200039E0200039E0200039E0200039E0200058
:2020C00039E0200039E0200039E0200039E0200039E02000000000000000000000000000E3
:2020E0000000000000000000000000000000000000000000000000003936200049362000B2
:202100000000000000000000000000000000000000000000000000000000000000000000BF
:2021200000000000000000000000000000000000000000000000000000000000000000009F
:2021400000000000000000000000000000000000000000000000000000000000000000007F
:2021600000000000000000000000000000000000000000000000000000000000000000005F
:2021800000000000000000000000000000000000000000000000000000000000000000003F
:2021A00000000000000000000000000000000000000000000000000000000000000000001F
:2021C0000000000000000000000000000000000000000000000000000000000000000000FF
:2021E0000000000000000000000000000000000000000000000000000000000000000000DF
:202200000000000000000000000000000000000000000000000000000000000000000000BE
:2022200000000000000000000000000000000000000000000000000000000000000000009E
:2022400000000000000000000000000000000000000000000000000000000000000000007E
:202260000000000000000000000000000000000039E020001D35200041352000E92A2000EA
:20228000AD372000A926200039E02000FF22482408B5084B08481A60084AE369121A084990
:2022A00098470848084AA369121A0021984704F0DFF8FEE7B4200D4040000020BA09002051
:2022C000F0042100C00900202039002008B5002000F042FA012000F03FFA0D49002000F0CE
:2022E00007FB04F0C9FE002004F076FF01F03CF900F01EFC00F03AFC0821064801F06AFA76
:2023000004F0CCFD62B6BDE8084002200BF098BE31702000FE38002073B51A4B1B68022B34
:2023200008DD1949194A1A4806F040F819491A4806F03CF86846082101F04CFA174E9DF86D
:2023400006309DF80750F46A45EA03254AF6CD310220A04729460320A0471A210120A047A3
:20236000736B082269460B20984700F0CDF800F071FB00210A4804F043FC04200BF060FE68
:2023800002B070BDC006002087FE20007EFE20008CFE20009BFE2000220221003CFA200039
:2023A000680400202DE9F04104880646772C20D07E2C3DD0002C4ED104F08CFB284D294B79
:2023C000294FDFF8B08018702C602B6857F823202AB9264A13707723338001203EE008F8E3
:2023E000034093680021802098472B6801332B60EBE700231E4A1360194A1360184B1B4A3F
:202400001B6812789A4204DC194B1B68002BF0D1E1E7184AD256002A19DA134A002052F8EA
:202420002320104B197804F0C3FB28B97E23D3E70C4B1B788B42D0D1094B0E491A688B5C13
:2024400003F07F038B540A4A136801331360044A13680133D1E7002303800320BDE8F0811E
:20246000D4090020163900207804002064260020D009002017390020FF2310B5064C4FF4C5
:20248000FA60236000F0AEF830220021062000F0E9FA0023236010BD00920D40802870B53E
:2024A0001ED100240F4E104D3368224623F0800333602B68072143F080032B600B4B20466B
:2024C0001C6000F0B3FA3368012223F0400333602B68062123F040032B60204600F0A6FAAB
:2024E000002070BD20940D4000940D4000920D40044B1868C0F30720030904BF1030C0B2A4
:20250000704700BF1C300D4008B5FFF7F1FF014B1B6808BD1C300D402DE9F04800F086F820
:20252000114B4FF0000BD3E900673A46B04238BF7A1C15464BEA0004C3E900450B49D1E940
:2025400000BCBBEB06026CEB0703161943EB0507C1E9006704F02EF918B1BDE8F04804F081
:20256000ADB8BDE8F08800BFC8090020C0090020E0210D4B0D4A5A600D4A82F823100022B0
:2025800007219A6019600B490B6843F001030B60094B1A60042243F80C2C012243F8082C3E
:2025A0000F22DA62704700BF10E000E047E8010000ED00E008200D400C000340034BD3E99D
:2025C0000023100A40EA0360704700BFC8090020034BD3E90023D00B40EA4340704700BF9F
:2025E000C0090020054B18601C3B1A6842F001021A601A68D207FCD4704700BF2800034096
:2026000010B5064C236823F001032360FFF784FF236843F00103236010BD00BF10E000E064
:20262000014B1868704700BFD8090020064B18685A6808331B681B0443EA0223034A034302
:20264000106843EA0060704740500D404C500D40014608B5104A1368DB07FCD572B6FFF74E
:20266000E5FF0B1A062BD8BFC11D0C4B0A0E1A60C1F3074243F8042CC1F3072243F8082C0E
:20268000CAB243F80C2C62B64FF40032044B1960044B1A6108BD00BF50500D404C500D40D2
:2026A000D809002000E100E008B500F0E9FF0022064B1A604FF40032054BC3F89021C3F8EA
:2026C0009020BDE8084004F0BFBA00BFD809002000E100E0064B1B681B075FBF054B18688B
:2026E00080F00800C0F3C00048BF0020704700BF18C0004018D000402C23154A70B503FB41
:2027000000234FF6BF72DC680546236C626413F050020DD00F4EA369DB0600D570BD56F870
:2027200025301BB12068C0B29847F4E72368F2E713F4D06FF2D04FF440732363FF236360F7
:20274000E36AE262E362236B43F001032363E5E7E4F92000DC09002001282DE9F74F0646B9
:2027600000F2B4802C2545435A4F7C1994F92080B8F1000FC0F2AA8094F92290B9F1000F63
:20278000C0F2A480544800F0EFFF544A79591368E5680B4313605368616894F921A00B43D0
:2027A00053609368A1685FFA89FB0B4393600023C5F8C83F23690AEBC8021A6094F92330B8
:2027C000227D00939DF8003058461946019300F037F9019B08221946584600F027F901235A
:2027E0003F494FEA0939009A59F8010003FA02F2024349F801204FEA083858F8010003FA8B
:202800000AF2024348F801205022AA63AA6B94F9240042F4D062AA6302226A634FF4407276
:202820002A63A26900286A62E269AA624FF07002EA620D4614DB94F925102A4A41EAC00451
:202840001460020354598B4023435351C9B20022C0B200F0EBF8244A136843F400431360C5
:202860002C2303FB067393F92640002C1BDB93F927A05FFA84F85FFA8AF901224946404642
:2028800000F0DEF801232403625903FA0AF31343635108224946404600F0C8F8124A1368A2
:2028A00043F4804313602C2303FB0676F268136B43F001031363012296F82830590903F0FF
:2028C0001F0302FA03F3094A42F8213003B0BDE8F08F00BFE4F92000D526200028200D40C3
:2028E00020940D4004410D4030D0004000E100E001289CBF014B43F820107047DC0900204D
:20290000012808D82C22044B02FB0030C3689A699206FCD419607047E4F920000022014BB3
:202920001A60704700500D400822014B1A60704700500D40A022024B1A6050221A60704759
:2029400000500D40014A024B9A6070470020200000ED00E038B5164D164C2B68012223F009
:2029600040032B602368062123F040032360032000F05CF82B68012223F080032B60236835
:20298000072123F080032360032000F04FF80A4B0A4A0B491A600B4A134610680842FCD1E8
:2029A0001A685101FCD41A685201FCD538BD00BF20C40D4000C40D4000200D400101020066
:2029C0000000010104200D402DE9F84305464FEA0538DFF8389008F1804606F5592600F0AA
:2029E0004FFED6F8187458F80940ED00EC4047EA0400C0B2E4B2A840FFB2AC4004F0C2FB0B
:202A0000C6F81C7448F80940BDE8F88318970D40034B044A1A60044B803A1A60704700BFB4
:202A2000E409002080400D40E8090020034B01EBC0011B6843F82120704700BFE4090020EE
:202A4000034B01EBC0011B6843F82120704700BFE8090020024A136843F03003136070479E
:202A600000700D400E2870B50BD1154B154E1C6844F002051D60356825F03F0343F0010338
:202A80003360114E336823F0FF031A43114301430E4A316013681B06FCD50D4B0D4A1B6817
:202AA00012680E2803F0FC0343EA022308BF054A1BB204BF1560024A184608BF146070BDF5
:202AC00034000144F486084008700D4000700D400C700D4010700D40024B1868B0FA80F0BC
:202AE0004009704700B708404FF40042064B10B5064CC3F89021C3F89020206818B104F0CE
:202B000097F80023236010BD00E100E0EC090020064A136843F002031360536843F0020374
:202B20005360936843F002039360704748200D4007B50C4800F018FEFFF7EAFF0A4B1A6884
:202B400042F002021A6000220192019A0F2A06DD1A6822F002021A6003B05DF804FB019AA5
:202B60000132F1E7D92A200054200D40064A136823F002031360536823F00203536093688F
:202B800023F002039360704748200D402DE9F04188460126C7083C0300F0070104F18044C3
:202BA0008E4018F00C0304F559246FEA060522D1D4F810342B40C4F8103418F0030249D1C1
:202BC0003846FFF733FFD4F8103418F0800F1FBF1E43012303FA07F7214B0BBF2B40C4F8ED
:202BE0001064C4F810341F60D4F820341D40C4F82054BDE8F081042B0FD1D4F804342B40A1
:202C0000C4F80434D4F808342B40C4F80834D4F80C343343C4F80C34CFE7082B0DD1D4F844
:202C200004342B40C4F80434D4F808342B40C4F80834D4F80C342B40ECE70C2BBDD1D4F8B7
:202C400004342B40C4F80434D4F808343343C4F80834B2E7022AB3D0012AB4D10422AFE7B3
:202C600000E100E00B4B1A689207FCD41B685B065FBFED22084B1A601A60084B1B6813B160
:202C8000EF22054B1A60064A0120137803F07F03137070474C860840388808402C86084092
:202CA00067260020044B186800F02200A0F1200358425841704700BF4C860840024B186842
:202CC00000F04000704700BF4C860840204B1870002832D01F4A13681B03FCD51E4B1A6859
:202CE00042F002021A601A6842F001021A601A685007FCD51A6822F001021A601A6851075E
:202D0000FCD41A6842F002021A601A6842F001021A601A685207FCD5104A136823F00403E5
:202D20001360D2F8A83123F00403C2F8A8314FF400520B4BC3F890207047084A136843F0C3
:202D4000040313604FF40052054B1A61704700BF6626002004200D40048808408C860840D8
:202D600000E100E0084B93F90020002A09DBED21064A11601160E32111601A7862F07F026B
:202D80001A700120704700BF6726002038880840A0F10B01CBB20F2B10B5044613D80B4BB9
:202DA0001B6813F03F0302D0FFF75CFF012301EB8101074A0B3111600BB1FFF7D3FF054BC4
:202DC00060B21C7010BD4FF0FF30FBE7488608403C860840AE09002010B50C46002900F011
:202DE0008680102800F28580DFE800F009101B22243B44575C727683837B7D547F003E4BF9
:202E00001B68003318BF0123236024E005223B4B1B6803F07F030B3B93FBF2F30B33DBB251
:202E2000F2E7374B1A68043B1B6843EA0223EBE7344BF7E700230B60334B344A1B6803F072
:202E400001030B601268900644BF43F002030B602F4B1B780BB900200BE00B6843F00403C4
:202E6000D2E700202B4B08601B78002BF3D001230B6010BD284B29491A680023D2B201EBC4
:202E8000C3000079904202D851F83330BCE701330E2BF4D16FF01703B6E7214B1B685BB2B7
:202EA000493BB1E71F4B1B6899060FD1FFF75AFF01231D490A68D207FCD51C4A1168493934
:202EC00049B20BB1FFF7CEFE2160C4E70023F0E7174B93F9003097E7164B1B7803F07F034E
:202EE00092E70B2390E71A238EE707238CE70220BFE70120BDE700BF2C8608403C86084015
:202F0000CC850840D4850840008608402486084066260020AF0900204086084074FA200097
:202F200058860840488608406486084060860840682600206526002008B50B4B1B68990667
:202F40000FD1FFF70FFF012308490A68D207FCD5074A1168C1F300110BB1FFF783FE0846EC
:202F600008BD0023F0E700BF48860840648608404C86084010B5072861D8DFE800F0040F7A
:202F80001A212541475B012903D1FFF7EBFE00203BE0002955D1FFF765FEF8E7A1F10B03AF
:202FA0000F2B4ED8C8B2FFF7F3FE0130EFD103202BE089B2244BCAB2090A1A605960E6E7F8
:202FC00089B2CAB2214BF7E731F0070339D1204B11F0010F1A68C1F3800014BF42F0010281
:202FE00022F001021A601B4B11F0020F1A6814BF42F0200222F020021A60FFF767FEC6E76B
:2030000031F001001DD1144B197010BD01F118031F2B16D80D23114A52F83340D800A142A3
:2030200004DC024412790E4B1A60B0E713F1FF33F2D2ACE7C9B20B4B49311960A7E7012075
:20304000E3E70220E1E700BFC8850840D08508400086084024860840AF09002074FA2000A5
:20306000408608405886084038B505460C46134A13689B07FCD4124B93F90030002B01DB28
:20308000FFF770FEEE220F4B691E1A601A60A21C43F8102C2144022000F080FA0A49013C31
:2030A00041EA0411022000F08BFA022000F092FA022000F0A7FA002038BD00BF4C860840FA
:2030C000672600203888084002C001C0F8B5224B93F90030002B18DBFFF7A8FA0446FFF7EC
:2030E00041FEC4F1FF2404F57F04F634FFF79EFAC442FBD40126194B1B7843B9184C2368A7
:20310000990609D502210846F8BD0026F3E7FFF713FF0028F2D1F5E7E9230427114D2B601D
:2031200023689A0703D4013F17F0FF070BD123689B070CD4EE2301212B602B60002EE2D02D
:20314000FFF790FDDFE70620FFF74CFAE8E7216811F00201FBD1F1E767260020AF0900203F
:203160004C860840388808400B280DD1082A0DD161B1074B074A083111F8010D43F8040BBD
:203180009342F9D1002070470120704702207047A8850840C885084070B5304E336813F0BD
:2031A000400358D02E4D2C68230605D5ED2200202C4B1A601A6070BDE4B2042CF6D9023CF8
:2031C0008C42F3DCE4B2032C1ED12B6803702B6843702B6883702968234B493949B21970C7
:2031E0002B68224D18062B70E0D589B2042004F001FB2978032001F07F0104F0FBFA1C4B8B
:203200001B78CBB12046D6E701190139032000F0CDF9184B611E43EA0111032000F0D0F952
:20322000032000F0D7F9032000F0ECF9032000F0F5F90028FAD1CEE733685A06E2D53368BD
:203240001B0603D50C4803F0F3FCDBE7ED22054B1A601A60D6E71846ADE700BF4C860840A2
:20326000288808403888084068260020652600206626002002C0010C1C060020F8B5294F13
:203280003D7815F001054BD10124F822264B7F261C605C609C60A3F59323A3F514731A60E2
:2032A0000922C3F89021152270331A600B2203F59B2303F59E731A604022A3F59B23A3F56D
:2032C000F0731A601A6842F020021A60D52243F81C5CDE62DA61154B1878FFF759FD4FF41D
:2032E0008042134B02201E60124B1A6100F07EF91149022000F05AF9032000F077F90E4936
:20330000032000F04BF90D4B1878FFF7DFFC0C48294603F075FC20463B7823433B70F8BD97
:203320000020FCE767260020A8200D40AE0900209486084000E100E028880840662600202A
:203340001C06002038B50388044653B340F2F732934233D11B4B18781A4638BB822923D147
:20336000137873B904F0FCF904F08EF98021FFF713FF002805DD80B204F06AF9124BDB6856
:203380009847124B1A7852060BD500221A70104B1D68FFF767FCFFF771FFAB0601D0FFF764
:2033A000E1FC40F2F733238001200AE01B78002BFAD0064B1B785806F6D5CFE70023038035
:2033C000032038BD66260020D8FC200067260020488608400B282DE9F74F8A4613D1082AFD
:2033E00040F08680002900F08380424B424A01F1FF3A53F8041993420AF8011FF9D10020EE
:2034000003B0BDE8F08F0C2870D1042A70D100296ED03A4A3A491368DFF8F09023F0070394
:2034200013600B68DFF8E88043F008030B60D9F80030D8F800401068DFF8D8E0DFF8D8C037
:2034400020F070001060DEF80000DCF80050DBB2240243EA0563A4B20004234300F47F0007
:20346000034328480668F4B2019400240094DDE9006746EA0306136823F0070343F0010300
:2034800013600B6843F008030B60D9F80030D8F800101568DBB225F0700545F01005156069
:2034A000DEF80020DCF80050090243EA056389B212040B4302F47F02134302680098D1B261
:2034C000894640EA0308FFF7B1F8B6EB080667EB0907F90305460C4A0023F00341EA5641C3
:2034E00009F060FF281ACAF8000088E7012087E7022085E7C4850840A48508401088084002
:20350000048808401C8808400048E8011488084018880840248808402088084008B5054BFD
:203520001B7813B9044803F083FB0022034B1A6008BD00BF662600201C060020348808400F
:20354000064B07481A68042A1FBF06490A7842F040020A7000221A6003F06ABB2C880840CE
:203560001C0600206726002010B5094C4022002120460AF0D1F90122064B1A604FF48042A2
:203580005C60054B5A604FF400425A6010BD00BF0000002004F00F4000E100E003289EBFEE
:2035A000014B0001195070470000002003289EBF024B03EB00104160704700BF0000002074
:2035C00003289EBF024B03EB00108160704700BF00000020032806D80123034A03FA00F03A
:2035E000116808431060704728F00F40032806D80123034A03FA00F0116808431060704727
:2036000020F00F40032806D80123034A03FA00F0116808431060704714F00F4003289FBF1D
:20362000044B03EB0010806800F0070088BF0020704700BF000000204FF0FF32014B1A602B
:20364000704700BF04F50F400122014B1A6070474CF00F40084B19461A68D002FCD4074B59
:203660001A6822F480321A600A68D203FCD41A6842F400321A60704704200D4000200D4076
:2036800010B50A4C236898070ED0094B1A4619684901FCD413685B01FCD5FEF7B1FFFFF775
:2036A000D9FF23680023236010BD00BF58200D4004200D4038B5264B1C6814F03F0414D131
:2036C000244D55F8243023B1984770B10134052CF7D1214D2B7843B1FEF7A2FF0446FEF7FC
:2036E000A5FF201A092800D90CB930BF27E01B4B1A6822F400321A60194A11461068C00289
:20370000FCD41A6842F480321A600B68DB03FCD5FEF78CFF201A092803D8BDE83840FFF7FA
:2037200099BF63280F4C0BD92B78022B08D1236003F034FA30B1FFF78DFF0023236038BD1C
:203740000123F4E7FEF76CFF0028F4D02368CCE748860840F00900206926002000200D4095
:2037600004200D4058200D400023064A52F82310814206D011B942F8230070470133052B48
:20378000F4D17047F00900200022054B1A60054A136943F0040313610122034B1A7070477D
:2037A00058200D4000ED00E0692600204FF48032064B10B5064CC3F89021C3F8902020680C
:2037C00018B103F035FA0023236010BD00E100E0040A002010B5134B1B780BBB124A12783A
:2037E000122A03D1114A12784B2A0FD001F52012273212E003F52012032BD4BF2C3224326E
:203800001478CA1A024402F8014C01338B42F1DB10BDD41A2478C45401338B42F9DBF7E7BC
:203820000023E3E72B0028002A00280029002800134A70B500234FF0FF341546B2F9066022
:2038400066B1967A0C32002E08BF1C460133052BF4D1631C01D100230FE023460C225A43EC
:20386000AB1898804FF0FF30A850B1F90620DA804A7A1881C2F3C002DA72184670BD00BF73
:20388000440A00202DE9F041064600254FF00C08204F8EB008FB0574B4F9063083B1B4F9C2
:2038A000041001A80AF08BFC9DF80D3003F03603022B05D10DF10E0130460AF00BF9C0B1D7
:2038C0000135052DE6D10024214601A80AF077FC9DF80D3003F03603022B0ED10DF10E0111
:2038E00030460AF0F7F840B9204601A9FFF7A0FF044620460EB0BDE8F08120469DF80D201F
:20390000BDF90A100AF099FC1F280446DCDD0024EFE700BF440A0020F0B50746184E8FB040
:20392000B6F900404FF0FF351F2C0CDC214601A80AF045FC9DF80D20910719D46B1C08D100
:20394000E3191F2B04DD4FF0FF3528460FB0F0BD25462046BDF90A100AF06FFCEB19834224
:203960000446E1DCB6F90020AA42EED13380ECE72046BDF90A100AF060FC0446D2E700BFF2
:20398000941F002070B58EB004460E46014601A815460AF014FC9DF80D3003F00602022A05
:2039A0002DD113F020022AD106BB9DF80D30214643F0040301A88DF80D300AF036FC0023FB
:2039C000174A1370F5B900234FF6FF7519461548C218B2F904600C33A64202BF95809172D4
:2039E000D1803C2BF4D100200EB070BD1B07DCD51146BDF90400FFF7C5FF0028D5DA4FF08B
:203A0000FF30F1E71D460848C218516821B1B1F90410A14208BF15720C333C2BF4D1D2E774
:203A20006A260020440A0020080A00202DE9F04F97B002908B460AB35846FFF76DFF044630
:203A4000013023D03222002109A809F065FF272202990DF12E000AF0EFF90223214609A890
:203A6000ADF82AB08DF82D300AF0DFFB09A92046FFF7DEFE38B10023036004E0FFF702FFDD
:203A80000028D9D0002017B0BDE8F08F684B1F780493002FF6D14FF00808DFF89C91DFF849
:203AA0009CA10622002107A809F036FF1FB9A9F800708AF80070BBB20193B9F90050DB00EA
:203AC0009AF800209BB20093ACB24AB1072D4EDD0822083CADF81C20A9F8004000240BE05D
:203AE000072D51DD0822083CADF81E20A2B214B2072AA9F80040F1D8BDF91C20002A24DC02
:203B0000BDF91E20002A20DD4A4ABDF90010B2F900008842C8BF1180002C13DD3222002112
:203B200009A809F0F9FE22220025009E8DF82D200836711909B209A801350AF076FB2BB259
:203B4000A342F6DB01980AF0A1FB013708F10808042F1FFA88F8A4D15846FFF7DDFE431C30
:203B600004467FF46FAF0123049A13708AE70026009B1C440FFA88F324B20393039BAAB2A9
:203B8000A34204DC002131E02E461546F0E7214609A805920AF013FB00219DF82D008AF86C
:203BA000001000F006010229A4B2059A0BD1810609D40121BDF82A508AF800102C441544F2
:203BC00024B22DB2DAE78306B1B204D5013424B24E1C36B2D2E7400705D5BDF82A2014441C
:203BE00024B25618F5E7A8EB040421B2B0B2A2F1080404440C4424B2002CA9F800409AF829
:203C0000003003DD7BB1C0F108052DB2ADF81C50ADF81E60ADF82010002B7FF45FAF072CE3
:203C20007FF76AAF5AE7C2F1080636B2EEE700BF6A260020941F0020961F00206B2600206E
:203C4000234A2DE9F8430D46814600240C21904601FB04273B7A83B10134052CF8D14FF0E7
:203C6000FF342046BDE8F883336801331AD1B6F904000AF0A8FA306014E03B814846FFF7BE
:203C800001FE064678600028EED105F00303012BE5D0012208214846FFF7C8FE78600028A8
:203CA000DDD006600C2303FB0482117A6343294315F0040511721CBF5268156808EB030206
:203CC000526848F80350937A01339372C9E700BF080A002004280CD80C22064B02FB0030F4
:203CE000037A33B10022416802728B7A013B8B7242607047080A0020042870B525D80C24DD
:203D00004443134B1E19357AFDB122B1022A18D1726812681144002917DB0C2202FB003221
:203D20005268B2F90640B1EB042F0EDC14688C4202DAAC0709D511600C225043195008467F
:203D400070BD012A01D11A59E4E74FF0FF31F6E7080A00200428F8B50F4635D80C2444438B
:203D60001B4D2B19197A79B3C9072DD55E7A5968760722D54FF0000E07EB020C1C68ACEB91
:203D800007020E681444B44214D8CB7A1446DB070ED40C264643AB59B1F90420323303EB27
:203DA0000222214638460AF0E9FAAB592344AB512046F8BD0CF801EDE0E72B590C689E1834
:203DC000A64288BFE21AE0E74FF0FF34F0E700BF080A00202DE9F04FA1B0042800AF82466E
:203DE000F960144605D94FF0FF308437BD46BDE8F08F0C235E4E03FB00631A7A002AF2D026
:203E00009107F0D55A7A5D6892070CD43B6104F13203BB603B69BA681B681344B5F90620DE
:203E2000B3EB022F1BD80C2303FB0AFA2A6856F80A309342D7DBB5F90420323303EB0222A5
:203E4000F86821460AF031FA56F80A302046234446F80A302A689342C8BF2B60C5E7B5F9D6
:203E600004B007F1180059460AF0A9F9012107F12200FFF7E5FEB0F10008B4DBB7F91E1018
:203E80000122490009B207F12200FFF7CFFD054618B94046FFF71EFFA5E74FF00009BA8B51
:203EA000C7F814D0002A08BF4FF48072D31D23F00703ADEB030D69464046FFF74BFF031EEE
:203EC0000BDA0022B5F904001146FFF75BFD4046FFF700FFD7F814D085E70BD0B5F904203D
:203EE000194609EB0222323268467B600AF0DDF97B689944D7F814D0002BD0D1F218117ABA
:203F000041B15168B1F90410594501BF5560AA7A0132AA720C333C2BF0D100220121584669
:203F2000FFF730FD0028B5F9040004DA00221146FFF728FDADE7014607F14C000AF03FF9C1
:203F4000BB8B07F14C00A7F850307B8BB5F90410A7F84E300AF069F9EB7AC5F8009023F0B2
:203F60000103EB724046FFF7B5FE3B695D6851E7080A002004280AD80C22064B02FB003024
:203F8000037A23B1437A19434172002070474FF0FF307047080A002070B504460D4EA06804
:203FA0000AF0F4FF054648B921460B480AF0F4FF2146BDE8704009480BF044B8686808B194
:203FC00001F092FF294630460BF03CF8237D013B2375E4E72C060020D00C00203806002060
:203FE00010B515480BF01AF8044640B913480AF0C3FFC0B910480BF011F8044688B13C2282
:204000000021204609F088FC4FF0FF332362A361012384F824300023201DA06063600AF091
:20402000A8FF204610BD90F8253004680BB9FFF7B3FF2046DDE700BF38060020D00C0020AE
:2040400008B505480AF095FF04480AF0D7FF04480AF0D4FF012008BDD00C00203806002053
:204060002C06002070B506461F480AF085FF05467DB9FFF7B5FF044648B131460AF0A6FD16
:2040800000280EDC214619480AF0DCFF0024204670BD314605F1260009F01CFDE8B12D68E7
:2040A000E6E731460B2204F1260009F05DFB012384F8305084F8253021460B480AF07FFF00
:2040C00094F82430012BE2D120460AF067FD0028DDDC20460AF085F9D8E795F825302C468B
:2040E000013385F82530EBE7D00C002038060020F0B5037891B007460E461BB9002420462E
:2041000011B0F0BD3C22002101A809F005FC4FF0FF33002509930793012302A88DF8283098
:20412000039002950AF025FF394601A80AF04EFD0128E3D0FFF754FF04460028DED085619F
:204140000A223946263009F077FE012E84F8305084F8246011D1314620460AF0AAFD2046FF
:2041600002F0CCF80128214603D105480AF027FFC5E704480AF066FFC0E72146F5E700BFB8
:20418000D00C0020380600202DE9F74F436B6A4F1B7D044607EB031790F84430856C990787
:2041A00011D50AF0BFFCE06101300CD16369002B00F0BF8095F8A530DA0700F1AF80032069
:2041C00003B0BDE8F08F5D4A04F11C01606A0AF0FBFDE269002802F10102E261F0DD0328EF
:2041E000E8D0554EDFF854A1DFF854B120E0B368D6F804900AEB030899F80D30012B27D14D
:20420000B8F8001049BA89B209F1100001F08AFB99F80F30DB070AD495F8A530D80706D475
:20422000F06899F80E204146584409F09DFA1036BE42DCD3D5F8A80080B995F8A530D907CF
:2042400043D49A0744D4236A013323620220B7E7022BDDD1D8F8001009BAD5E795F8A560BC
:204260000AF070FA86F00406C6F38006B042E4D00120A5E7A26861682A4468460AF098F94E
:2042800000289DDD9DF80430012B05D0022B03D01034BC42EED3EBE76368009A197B0139AA
:2042A0000329F5D8DFE801F002060D099A6801329A60EDE799680A44FAE799688A42E7DD6B
:2042C000F6E799688A42F3DBE2E71B4C1B4DE0E71B49606B0AF038FD0028B4DC6FF0020090
:2042E0006EE77368F0689A68404411128DF800108DF801209A7B694609F036FA1036BE421F
:20430000EFD395F8A5309B070CD40123236295F8A53023F0010385F8A53097E7064EDFF8DA
:204320002080ECE70649606B0AF00EFD0028ECDCD4E76FF0080043E7800A0020312700208D
:20434000E12600202DE9F04390F8443085B0DA070446D0E90B76856A27D50023E361344A87
:2043600004F11C0128460AF02FFD00280BDD032809D002AB2E4AA16B28460AF04EF800287C
:2043800004DC6FF0070005B0BDE8F083E16B02AB1A46496820460AF08DFB002845DD94F842
:2043A000443023F0010384F8443020460AF0BAFB0190013008D194F8443043F0010384F81F
:2043C0004430E3690133C9E71A4A01A930460AF0FBFC0028D7DD0328D3D00025164EDFF8BA
:2043E0005C803B7DAB4209DCA36C93F8A5309B0712D4236A022001332362C4E758F8353098
:20440000304693F80E9008EBC5034A46596809F0ABF94E440135E4E7074938460AF094FC69
:204420000028E6DC6FF00200ADE76FF00800AAE7312700207C260020E1260020000E002016
:204440002DE9F843DDF8208005460F46164699460AF082F80138033003D800242046BDE8D1
:20446000F88308F1FF330F2BF7D817480AF0D6FD04460028F1D0314600260C22103009F02A
:20448000DBFC267784F80D9084F80E8026736660E6732B69214643442B61A8680AF08FFD29
:2044A0002B7D012F03F101032B752146284608D10AF0CFFBB042D1DC214603480AF0C2FD10
:2044C000CBE701F0D3FCC9E72C0600202DE9F04F0446A264616292F8A530754E03F00203E6
:2044E000002B16BF16464FF0000A4FF0010A89B00F4630460121154609F0A2FF51463046A5
:20450000FFF7F6FD3046FFF7ADFD606300286BD06FF0700B4FF0000805F1710905F12406C5
:20452000ABEB050B95F8A2200BEB09039A4245DC666BB8F1000F03D0337D434500F3B580CB
:204540000023236284F84530E361B0680AF014FD8046B8F1000F68D1564BDFF85C912364B8
:20456000B0680AF009FD0646002E6AD1D5F8A800E0B101F0E9F9012818D8636AD5F8A880BA
:2045800098680AF0F9FC01270546002D74D16EB106AB04AA314620460AF08CFA012802BF82
:2045A00094F8443043F0020384F8443094F84430012043F0040384F844304BE03146384668
:2045C00009F01DFF024600286CD099F80030606B6BB9537B927B514600923246FFF730FFC9
:2045E00038B9606B09F0FDFE6FF0010032E00123F0E719F8013B032B037311D0042B0BD0C2
:204600008BB916F8013CDA0701D408F1010816F8013C1036C37385E74FF000438360F6E7DE
:204620006FF00043FAE70023F8E798F80F30DB075EBF94F84530013384F84530D8F80080B1
:2046400087E706F11001B86809F0BAFE014620B96FF0070009B0BDE8F08F49E90406B86854
:2046600009F09EFE002809F11009F1DB49E90608B37B3668984477E76B688BB103AB02AAEF
:2046800005F11001404601F067F9012808D8029B6E680493039B8DF81C708DF814700693D8
:2046A0002D6872E76FF00400D4E76FF00500D1E717FF2000E1260020900A00202DE9F04F66
:2046C0000023044601250362A164A0F8445091F8A530534F03F00203002B16BF0F464FF025
:2046E0000009A94685B038460E46294609F0A8FE49463846FFF7FCFC3846FFF7B3FC074642
:20470000606320B96FF0010005B0BDE8F08FD4F828A006F12408E06241465046D4F830B002
:2047200009F06DFE4146A063584609F068FEA26BE06312B96FF00500E6E70028FAD00AF056
:2047400010FA002863D096F8A230AB4217DC354BD4F8288023640023E361D4E90B399868D1
:204760000AF00AFC0646304FDFF8C4B046BB94F84430012043F0040384F84430C4E708EB39
:20478000051319465046039309F039FE039B28B91946584609F033FE0028CBD0827B437B22
:2047A0004946009200F110023846FFF749FE0028A8D094F845300135013384F84530C2E775
:2047C00006F1100A5146D8F8080009F0F9FD054670B10146D8F8080009F0E2FD0BEB00030E
:2047E000002807F1080718DB47E903533668BDE75146D9F8080009F0E3FD054650B10146F3
:20480000D9F8080009F0CCFD084B0344E8E76FF0080079E76FF0040076E76FF0070073E74D
:2048200017FF2000E1260020040E00207C260020312700202DE9F04F85B000AFD0E9055365
:2048400028467B608846934609F086FE431C05D14FF0FF301437BD46BDE8F08F0026DFF8D9
:204860009090441EA31B06EB5303FB602B69EA46073323F00703ADEB030D6A4607F10C01DE
:2048800028460AF0A1FA002801DCD546E0E74B466A467968284609F0C0FD0028F5DDD546D3
:2048A000404609F0EBFE8246484609F0E7FEFB688245CCBF5E1C03F1FF34A64208D84046B8
:2048C00009F0DCFE8246484609F0D8FE8245C9D1BBF1000F01D1F868BCE7404609F0CEFEA4
:2048E0000446034809F0CAFE8442F4D0B0E700BF300E00202DE9F04143690446174F0BBBBB
:20490000061D00F10C08304609F0B8FE0546404609F0B4FE2B1A5D425D412A4631462068DD
:20492000FFF788FF3860013006D02A4641462068FFF780FF0A4B1860636938680133636136
:20494000BDE8F081064A38681268184490429ABF013363614FF0FF30F2E700BF2C0E0020F8
:20496000280E002073B5044601F070FBA3681B78173BD9B2112956D801228A4035490A4279
:2049800051D0112B1AD8DFE803F0091F211919191B191919192319191919191D02252E4E9B
:2049A0002046326892F8A53043F0010382F8A53001F04CFBA3681B78012B0BD0032030E002
:2049C0000525ECE70625EAE70425E8E70325E6E70125E4E7204601F039FBA3681B78FE2BAE
:2049E000ECD1306890F8A230034483F871500023E16800931A4609F053FF204601F026FB63
:204A0000A3681B78022BD9D1204601F01FFBA36820461B78032B19D1FFF7A4FF0228CDD82C
:204A2000022002B070BD20460AF0A9F8204601F00DFBA3681B78FE2BC0D1002306480093B9
:204A40001A46E168006809F02BFFDDE70AF097F8E6E700BF47080200380E002010B5044683
:204A600001F0F4FAA3681B78FB2B16D0FD2B1BD10321E2680D4B186800F0AEFF204601F05F
:204A8000E5FAA36820461B78032B09D1FFF7E6FF02288CBF0020012010BDE2680121E9E791
:204AA0000AF06DF80220F7E70320F5E7380E002037B50E220446264D2B6883F8A42001F096
:204AC000C5FAA3681B78FE2B02D0032003B030BDE168286809F0CAFE204601F0B7FAA3680E
:204AE0001B78032BF1D1204601F0B0FAA3681B78FE2BEAD1E168286809F0B8FE204601F0D1
:204B0000A5FAA3681B78132BDFD1204601F09EFAA3681B78FE2BD8D10023E16800931A46AC
:204B2000286809F0BDFE204601F090FAA3681B782C2BCAD12046FFF715FF0228C5D8204623
:204B400001F084FAA3681B78002BBED10220BDE7380E002010B5044601F078FAA3681B7852
:204B6000FE2B01D0032010BD0A4BE168186809F07DFE204601F06AFAA36820461B78032BCC
:204B800005D1FFF7E7FF0228ECD80220EBE709F0F6FFFAE7380E002013B5044601F056FAF9
:204BA000A3681B78FB3B032B09D8DFE803F01C1919020221E06800F095FE012801D90320F4
:204BC0000FE0E1680C4809F03CFE0128F7D801230093002309481A46E168006809F060FE8B
:204BE000022002B010BDE3680348196809F01EFE0128E4D8F4E700BF3C0E0020380E002099
:204C00002DE9F8430546324809F090FD0646284601F01CFAAB6828461B78012B20D1FFF710
:204C2000EFFF022823D8284601F010FAAB681B78022B1CD14FF0010840F60479244F28465C
:204C400001F004FAAB681C780B2C12D808FA04F313EA090F0DD0022C12D10220BDE8F8835F
:204C600009F08DFF2846FFF797FF0228E2D90320F4E7174809F05AFD284609F080FFECE76A
:204C80002846FFF789FF022816D83146384609F035FD083C0646032CE9D8DFE804F017029C
:204CA00013151221384609F06CFD0128DFD83146384609F03DFDC2E72846FFF7A1FF0228DA
:204CC000E3D9D4E71321EDE71421EBE71121E9E73C0E002038B504462B4809F003FD0546F4
:204CE0002046FFF78DFF022801D9032040E02946254809F01DFD0546204601F0A7F9A36849
:204D00001B78043BD9B20B29EFD801228A4040F607610A42E9D00B2BE7D801A252F823F0B6
:204D20007B4D2000834D2000734D2000EB4C2000EB4C2000EB4C2000EB4C2000EB4C200008
:204D4000EB4C2000514D2000774D20007F4D200044210D4809F032FD0128C6D829460A4804
:204D600009F0E6FC2046FFF74BFF0228BDD8022038BD4521EDE74621EBE74121E9E74221D4
:204D8000E7E74321E5E700BF3C0E0020F8B50446FFF7A0FF022801D90320F8BD0025204EF1
:204DA000204601F053F9A3681B78152B09D0112B2BD0204609F0E3FE194809F056FD022053
:204DC000EBE781272946304609F098FC39460546304609F0F3FC0128DED82946304609F002
:204DE000A7FC204601F032F9A36820461B78012B0DD1FFF7CBFF0228CED8204601F026F97A
:204E0000A3681B78022BCBD0C6E78227DAE709F0B6FE2046FFF75EFF0228C1D90020BCE728
:204E20003C0E0020012270B51C4E0446336883F8A420FFF797FD022801D9032070BD2046EE
:204E400001F004F9A3681B781C2BF6D12046FFF781FE0228F1D8204601F0F8F8A3681B7805
:204E6000212B17D10E4D4FF480720E49284600F01BFD2046FFF78AFF0228DED833682046DB
:204E8000C3F8A85001F0E2F8A3681B78002BD4D10220D3E7204609F072FEF9E7380E002035
:204EA0003C0E002091270020FF2370B50C460026A44D8EB08DF80B30286000F075FD2B6885
:204EC0002146C3F8A8600DF10B020AAB06A809F050FE06A801F0BAF8C0B202282C4663D859
:204EE0009DF80B30252B58D02ED80C2B34D003D8002B59D0032057E01E2B52D0242BF9D11C
:204F000002222B6806A883F8A42001F09FF8089B1B78012BEED106A8FFF7A0FD0228E9D818
:204F200006A801F093F8089B1B78022BE2D106A801F08CF8089B1B781B2BDBD106A8FFF742
:204F400009FE022808D9D5E7272B2FD0C0F0FC80FE2B03D0FF2BCDD1022025E009992868E9
:204F600009F084FC2A6806A892F8A53043F0020382F8A53001F06AF80228BBDC089B1B7848
:204F8000102BB7D106A801F061F80228B2DC089B1B781E2B05D0252BACD106A8FFF742FF98
:204FA00002E006A8FFF784FD0EB070BD06A801F04DF8089B1B782F2B00F0B680302B39D001
:204FC000232B97D108222B6806A883F8A42001F03DF8089B1B78FE2B37D10999286809F0B9
:204FE00045FC06A801F032F8089B1B78072B2CD106A801F02BF8089B1B78FE2B25D1002308
:2050000000931A460999286809F04AFC06A801F01DF8089B1B78202B17D106A801F016F862
:20502000089A13782D2B74D02E2B7BD02B2B0CD101236FE007222B6806A883F8A42001F0C3
:2050400005F8089B1B78FE2B01D0032351E00B22099903A808F0F0FE06A88DF8176000F0D2
:20506000F5FF089B1B78292BEFD106A800F0EEFF089B1B781F2B38D02A2B1DD01A2B37D150
:20508000022501220023009303A92B46206809F007FC06A800F0DAFF089B1B78142BD4D1DE
:2050A00006A800F0D3FF089B1B78FE2BCDD10999206809F0DBFB33E006A800F0C7FF089B70
:2050C0001B78012BC1D106A800F0C0FF089B1B78FB2BBAD1099B06A81D6800F0B7FF089B1B
:2050E0001B78022BB1D10322CCE704250222C9E7FF23022B8CBF00230123002B3FF4FAAEB2
:2051000006A800F0A3FF089B1B78002B3FF424AFF0E60323216881F8A0301378FF2B94D001
:205120000223E6E70223F5E706A800F08FFF089B1B78FE2B89D109232868099980F8A430ED
:20514000B7E700BF380E002006A800F07FFF089B1B78232B68D03AD81C2B7FF4CBAE0D233F
:2051600028684B4980F8A43090F8A53043F0020380F8A53009F07AFB06A800F067FF089BC8
:205180001B78FE2B33D10999286809F06FFB06A800F05CFF089B1B78212B28D13D4D4FF479
:2051A00080723D49284600F07FFB236806A8C3F8A850FFF7EBFD02288CBF002001200228F5
:2051C0008CBF0020012000283FF494AE98E72F2B4DD0302B7FF48EAE0A222B6806A883F8BE
:2051E000A42000F033FF089B1B78FE2B01D00320E5E70999286809F039FB06A800F026FF88
:20520000089B1B78072BF2D106A800F01FFF089B1B78FE2BEBD100231A4600930999286844
:2052200009F03EFB0220CAE70B222B6806A883F8A42000F00BFF089B1B78FE2BD7D1099919
:20524000286809F013FB06A800F000FF089B1B78072BCCD106A800F0F9FE089B1B78FE2B21
:20526000C5D100963346324609992868D8E70C222B6806A883F8A42000F0E8FE089B1B7866
:20528000FE2BB4D10999286809F0F0FACAE700BF21FF20003C0E0020912700200EB42DE981
:2052A000F0430546A4B02BAB53F8042B802104A8039303F08BF84DB14C220021284608F080
:2052C0002BFB0023C5E90B336B63AB62784E04A93046FFF7E9FD0228344600F2BA8096F89B
:2052E000A470002F00F0B880092F38D00C2F56D096F8A5000E2FC0F3400000F0CF800B23D2
:2053000003FB0060FEF7AEFE0646002840F0A6806FF0040491E094F8222094F8213001211F
:2053200000923046634AFFF78BF8002814BF01246FF00504002D52D1304609F052F87CE052
:205340005C49304609F05BF80246002800F0AB80314694F8A00000F01FFD0446EAE700266B
:2053600001215348FEF7C4FE002814BF01246FF00504002E61D0DDE74E49304609F04AF8C6
:20538000EBE74C49304609F03AF8002800F08B804068002800F08A8009F078FBDDE70026C2
:2053A0000121434809F04CF80446E2E74FF0000884F8A280B06809F0DFFD0746DFF8F0907A
:2053C00097B994F8A53043F0040384F8A530002D3CD0374A31462846FFF778F8044695F8B5
:2053E00044305B07A8D528E0002307F11001CDF800801A46484609F053FA3F68E0E72E49C8
:20540000304609F049F8A8E70B2444433019FEF729FEA86248B104F10B003044FEF722FEA6
:20542000286328B9A86A08F0DCFF6FF0050404E031462846FFF742F90446204624B0BDE890
:20544000F04303B070476FF0050473E76FF00B0472E76FF00304F0E70124EEE7013F0C2F74
:20546000F1D801A353F827F0CF532000FF53200047542000475420004754200047542000BD
:205480001753200041532000615320007953200083532000A1532000AD532000002DB3D133
:2054A0006FF00B04C9E76FF0040443E7012441E7500E0020740E0020C80E0020F8B50B4CD6
:2054C0000646254604F14807237A43B1314604F1080008F0FFFA10B11834BC42F4D9641B84
:2054E0000348E4106043C0B2F8BD00BF2C0F0020ABAAAAAA2DE9F041054698B00C4609F0BB
:20550000DDF8EF68D5F800807B1CEB6018F807301A061BD4284609F0D1F8202801D0092068
:2055200041E00CA9284609F0D0F8284609F0C6F82028F4D10EA9284609F0C7F89DF8303062
:20554000002B7BD09DF83C100DAA7FE07F33DBB2012BE4D83022002168460CAE08F0DCF90F
:2055600030220021304608F0D7F969462846FFF7C1FF0128D3DC31462846FFF7BBFF012811
:20558000CDDC18F80730812B2CD100234FF0010C0DEB0302117AF018077A39B98FB90C3379
:2055A000302BF5D1012018B0BDE8F08151685DF80350E2185FB95160E550E21882F808C036
:2055C000EDE74168E2185160F258E250F5E740688842B4BF51605060F2589542D4BFE5501C
:2055E000E250EAE7822BDDD100234FF0010C0DEB0302117AF018077A21B977B90C33302B29
:20560000F5D1CFE751685DF80350E2185FB95160E550E21882F808C0F0E74168E21851604E
:20562000F258E250F5E740688142CCBF50605160F258AA42ACBFE250E550EAE79DF83830E5
:20564000002B3FF46CAF9DF834100FAA03293FF766AF0C236FF000404B43E0504FF00040BD
:20566000E118486018F80700413805283FF657AF01A555F820F000BF915620001F55200034
:205680009D562000A5562000A9562000B15620001268E2504A600120087284E7136801338B
:2056A0004B60F8E71368FBE71268013AE250F2E71268FBE72DE9F047064688461546002401
:2056C0004FF0180A86B0DFF8B09002AF304608F0F5FF102805D0202812D003200DE001249D
:2056E000F4E7F36831685A1CF260C95C07EBC4023046FFF7DFFF012807D906B0BDE8F08711
:2057000007EBC401304608F0E0FF17F8343083B1022B14D107EBC4035B684DF82430002C8B
:20572000DDD0A8F11101032921D8DFE801F00A12161A07EBC4031B790AFB0393ECE700230A
:20574000EBE7DDE90032134402226B602A700120D3E7DDE900329B1AF6E7DDE900235343BB
:20576000F2E7019A2AB1009B93FBF2F3ECE70820C3E70420C1E700BF2C0F00202DE9FF41EB
:205780000B7804461A060E4631D5832B14BF0227012700250DF10808204608F08FFF402869
:2057A00030D1E36821685A1CE26019442046FFF7E5FF012848F8250009DC0135AF42EBD169
:2057C00033780298832B05D1B0FA80F0400904B0BDE8F081812B07D101285FD10398012832
:2057E00014BF00200120F2E70128F7D1EFE700254FF018082B4F204608F060FF102805D02D
:20580000202824D00320E2E70125F4E7E36821685A1CE260C95C6A462046FFF74BFF01282F
:20582000D5DC9DF80030BBB1022B1BD1019B02AA42F82530002DE7D0DDE902033278413AC2
:20584000052A2DD8DFE802F01012161B20256946204608F03AFFE4E79DF8043008FB037370
:205860005B68E4E70023E2E79842B9E7C01A18BF0120ACE79842D4BF00200120A7E79842B9
:20588000B4BF00200120A2E79842ACBF002001209DE79842CCBF0020012098E7002096E7FF
:2058A000082094E72C0F002070B50C46054616460021204608F030F8C5E90046002460228B
:2058C0002146C5E902442C61044808F025F82146BDE870403022024808F01EB82C0F0020FE
:2058E000FC0E00202DE9F84381468846FFF7E6FD042811D018244443094D2E19377A4FB999
:2059000004F108000C224946284408F095FA377505F80480012000E00720BDE8F88300BFA6
:205920002C0F002010B50C46FFF7C8FD04281BBF1822044B022002FB00301CBF44600120BC
:2059400010BD00BF2C0F002008B50249FFF7D2FDC0B208BDFC0E00202DE9F8430D46164632
:205960001F4600244FF01808DFF8389008FB0491284608F0AFF860B90C214C4308480119BC
:205980000B7A5BB14B683360035901203B60BDE8F8830134042CE9D10220F8E70920F6E7D2
:2059A000FC0E0020340F00200021094B80F8A4101970084B80F8A11080F8A21080F8A3105F
:2059C00080F8A51005227130197007F0A5BF00BF91280020D12800202DE9F04190F8A3408B
:2059E0009046052C2FD0631C012900EBC40480F8A33084F87C1004D0032907D06FF00600B6
:205A000002E008461368A367BDE8F081104608F0B7F90E4E471C3378FA18402A02D90023D9
:205A2000A367EBE70A4D3A461D444146284607F09BFE3278002D3A443270A56714BF0120D6
:205A40006FF00600E0E74FF0FF30DDE7D12800209128002038B50446056A686809F0ECF9A2
:205A6000286809F0E9F9216A024809F0EBFA6FF0080038BD640600207FB50546174809F04B
:205A8000CDFA0446286230B30435284609F0C9F9061E09DB10230022694609F0CFF9102821
:205AA000304604D009F0C8F96FF0020011E009F0C3F9284609F0B5F92060684609F0B1F9F5
:205AC00040F2FF126060002104F1080007F024FF012004B070BD6FF00100FAE764060020BE
:205AE0002DE9F04180460846174601F075FB01F061FB06463C68114DB4F5FF7F06DC0F4A90
:205B00002146D8F8000008F013FF20B94FF0FF342046BDE8F0812B8863B96B88002BF5D0CB
:205B20006B88B34208D363000133B3F5FF7FEDDC3B60EDE7B342F3D90134DDE7981F00201C
:205B4000F0B5002589B040F2FC71064638488DF8105000F0B9FB0146002862D0371D102227
:205B6000384607F001FE334809F058FA04463062002845D04FF0FF332F49C0E900332F4896
:205B800000F0A2FB014600284ED010220DEB020007F0EAFD40F2FF12294604F1080007F03B
:205BA000BBFE384609F03DF9206004A809F039F9034660602068A8420CDA6FF00205606899
:205BC00009F03AF9206809F037F92146194809F039FA17E0002BF0DB10232A460DEB030168
:205BE00009F04EF90028E8DD4FF6FF722946204608F0ABFE002817DB0125284609B0F0BD38
:205C00006FF00105337923B1684608F023FB002333719DF81030002BEFD004A808F01AFB9C
:205C2000EBE76FF00805E8E76FF00805C7E700BF2BFF20006406002000FE030030FF20005A
:205C40002DE9F74F474C036805461F6A2368B0F80480834201D14369C3B9082300260DEB57
:205C60000309DFF808A163632673A660256049F8046D4A4641463846FFF732FF00284AF8D6
:205C8000040F15DA013E6663636B6360364E06F1060A6368002B0FDA6B68EA6893425BD0DA
:205CA000002201336A616B602846FFF7C9FF55E00136092EDDD1E7E7043354F823B03368BC
:205CC00007EB0B099F4236D1B288934533D199F808E0237BA268002125E099F80830376019
:205CE000A6F804B0002BF2D106EB8302D18809B9128912B10133802BF6D189F80830E6E749
:205D000006EB830CBCF80600013340450BD16869511C904205D16961A1602373BCF80800B1
:205D20001CE00A4601219E45EADC01B1A2606368013B6360ADE70BB10023336099F80830FF
:205D40004FEA4B22002B08BF802351469B00786809F074F80028C0DC4FF0FF3003B0BDE807
:205D6000F08F00BF941100208C0F0020A011002008B5064809F0FDF8054809F03FF9BDE878
:205D800008400021034800F03BBF00BF9C140020A0060020900600202DE9F04781460846F8
:205DA0008A46174608F0D8FBB0F1FF3F804630D07B7B013B012B07D8264C23784B452ED06E
:205DC000254C23784B452AD06FF008042046BDE8F0877D602946214809F0FEF82B7943B104
:205DE000284600F00FFB002803DCA368284698472BE06278012412F00402E7D1B8F1000F5A
:205E0000E4D0174B85F825401978164800F0D0FEDCE76FF00204D9E76FF00104D6E77E68EE
:205E2000002ED1D1104809F0F9F805460028F3D0C0E905A7C46180F825600662067180F84C
:205E40002490636898470028C3DC2946064809F0F9F8B9E744060020700600209C14002006
:205E6000D628002090060020A006002070B5064619480D4609F0D2F8044650B32A4631466C
:205E800000F08AFA002806DC2146134809F0DAF86FF0080070BD00232362104B94F8242090
:205EA0001978C4E90565914203D00D4B19789142EED1E361DB68204698470028E8DD09480F
:205EC000214609F089F800236C60012084F82530E0E76FF00100DDE7A006002044060020E5
:205EE000700600209C14002010B5C36904461B69984700280CDD0022A36921465A600648F0
:205F000009F04AF82146054809F09CF8012010BD6FF00800FBE700BF9C140020A006002079
:205F20002DE9F34103880446B3F5BA7F0DD0B3F5C47F30D0002B74D100F0CCFD3C4B187061
:205F40004FF4BA73238001206EE0394B1B788B42F9D1384809F010F8B8B9374D28600028EB
:205F6000EED0D0E905323549263310323448FFF795F9002839DC2A6892F8253023F0010395
:205F800043F0020382F82530DAE790F82530DB07E3D40068E0E78529D5D1294808F0F6FAE7
:205FA000002813DC244B1A6892F8253043F0020382F82530204B22481A6892F8253023F0AA
:205FC000010382F8253008F062FBB9E70328F1D000251B4F184EDFF86C8097F84530AB4264
:205FE0000CDC184A136801331360174B00221868852100F0DDFD4FF4C473A3E72A463946CE
:20600000684608F0F1FA002801DC3268CCE7D8F800206946306808F04AFD0028F5DD0135F7
:20602000DBE700230380032002B0BDE8F08100BFD62800209C1400202014002037FF2000B6
:20604000D4130020A0140020301600202DE9F74FFF22836804461A7006684649304607F059
:206060001DFF35186560315C074600297ED0272917D10135284607F0B9FC00285AD0FD22A8
:20608000A368461B01301A7020600F2E28BF0F2629463246E06807F067FB0022E3689A551C
:2060A0001CE007F00BFBF35D18444278520717D507F0FAFA00230A2203606946284607F08B
:2060C00099FF019088B30422E0680DEB020107F04BFBFB22A3681A70009B2360012046E09F
:2060E0002D2B06D107F0EAFA6B78184443785B07DED42149284607F029FE002814BF06464B
:206100000126721E082AD4F808A00CD8092E08BF4FF03109194BDFF868809F5618BF13F9CC
:2061200006904F4509DBFF2313E007F0BDFA0368002BC8D04FF0FF3019E03246294658F8C2
:2061400037004FEAC70B07F049FE68B9D84498F804308AF80030AB192360A3681A78FF2AFF
:20616000BCD1FE221A7090E70137DAE7084603B0BDE8F08F55FF2000B009002059FF20008E
:2061800004FB20000C30C0B20F289ABF024B53F820000248704700BF8CFC20002A00210037
:2061A0002DE9F0470746416B164C26312368164898477B6B0026986808F0DEFE0546DFF816
:2061C0005080DFF85090DFF850A097F84530B34205DC23680D4898470120BDE8F08775B175
:2061E000EB7BDB0709D405F110022368002E14BF41464946504698472D680136E5E76FF064
:206200000700EAE7AC06002041002100650021003E002100AC002100600021002DE9F347EF
:20622000214C016A06462368204898470025204FDFF88C80DFF88C9096F84530AB4205DC2D
:2062400023681C4898474FF0010A0FE02A463146684608F0C9F9B0F1000A0BDCFFF792FFCF
:20626000246803462A46316A1348A047504602B0BDE8F0879DF80410236802290BD0032932
:2062800004D001290AD10099484601E04046009998470135D0E700993846F9E7074898470D
:2062A0006FF0070AE2E700BFAC06002069002100B100210057FF200073002100B6002100D7
:2062C000A7002100AD00210037B50C46054600F071FF2B460090074A1221074809F0BFF9BA
:2062E0002146054807F0C5FF00280348B8BF002003B030BDB4012100D7280020F8B500F1F2
:2063000026050446284607F0A5FF5E21284607F0B0FF03212846FDF793FC061E0BDB0B2220
:206320002946FDF757FD0B2808D03046FDF7D2FC284607F08FFF6FF002002AE094F83170D8
:2063400077B94FF480611348FFF7BEFF01460028EBD00A2204F1310007F06EFD84F83B70D6
:2063600094F83B3004F1310583F0F60384F83B300B2229463046FDF72DFD94F83B300B284E
:2063800083F0F60384F83B303046CFD1FDF7A2FC0120F8BDBF012100F0B58DB026310746C5
:2063A0006846154607F074FC1549684607F0FEFA01216846FDF744FC061E6FF002041BDBEF
:2063C00010351D2204A93046FDF7C4FC1C2810D904A9284607F07EFB0028F2D19DF82C30CE
:2063E000102287F8243007A9381D07F0BDF90124E7E73046FDF76EFC20460DB0F0BD00BF90
:20640000BA01210030B541698DB026310446684607F03EFC1549684607F0C8FA06216846BA
:20642000FDF70EFC051E1DDBA16904A8103107F02FFC211D102207A807F096F994F82430A5
:206440001D2204A928468DF82C30FDF7C3FC1C2828468CBF01246FF00204FDF73BFC204636
:206460000DB030BD6FF00204F9E700BFBA01210038B5624C07F010FEFCF77AF808F049FD4F
:2064800000F030FB00215E4800F0BAFB00F022FAFCF744FA08F01FFD00F0F6FBFBF716FF3C
:2064A00001F0F2F900F0E4FB2368022B07DD554A5549564801F07AFF554801F077FF2368C1
:2064C000022B09DD50494F4A504801F06FFF514B5148196801F06AFF2368022B09DD4A493F
:2064E000484A4A4801F062FF4C4B4D48196801F05DFF2368022B09DD4349424A434801F0FA
:2065000055FF484B4848196801F050FF2368022B09DD3D493B4A3D4801F048FF4AF6CD319F
:20652000424801F043FF2368022B08DD3649354A364801F03BFF1A213D4801F037FF2368E8
:20654000022B09DD30492F4A304801F02FFF394B3948198801F02AFF2368022B07DD294AD0
:2065600029492A4801F022FF344801F01FFF2368022B02DD324800F04FF92368022B02DDBA
:20658000304801F013FF08222D492F4807F0ECF800212E4800F034FB4FF0FF3002F0BAFCC2
:2065A00023680546022B07DD164A1749174801F0FDFE274801F0FAFE2368022B03DDD5B173
:2065C000A81C00F019F92368022B02DD1D4801F0EDFEFBF7A1FE1F4808F073FCFCF7A4F92E
:2065E00000F098FA0446FCF7A5F914F0FF0FF7D107F05CFDF4E72846E3E700BFC00600205C
:20660000B0060020C501210087FE20008CFE2000CA01210000FD200001022100F0FC200035
:2066200010022100D8FC20001B02210026022100400221009C1F0020600221006D0221005B
:20664000FE38002057FF200054310020A80700208202210050FD200010B50446FBF7B8FF30
:20666000D4E900321344C01A024B98428CBF0020012010BDFEFFFF7F10B50E4C236813B989
:206680000D4A136010BDFBF799FF2168D1E9002313448A681B1A1AB91844074B1860F1E724
:2066A000D2E900142144091A8B4228BF0B469268F1E700BFA8140020A4140020014800F000
:2066C000B7BA00BFB00600202DE9F8430388054653B1592B47D1872920D1002024490B684C
:2066E00063B918B10B6001E0214A1360592301202B80BDE8F88301203346F1E7D3E902648F
:206700009442F8D000B10B6099680029EED0C86890420ABF89680B469960F5E78229E5D194
:20672000134F4FF00009B84600263C68002CDDD0204608F0FCFB98B122468821E06800F027
:2067400037FA58B9E060A3682EB1B360C4F80890FFF792FFE8E7C8F80030F7E7FFF7AEFF9F
:206760002646A468E2E7002303800320C1E700BFA814002010B50446FFF7A0FFE3680B4A88
:206780000BB1136833B90A4B1B68E36013681460A36004E0A34206D1054A1268DA60BDE881
:2067A0001040FFF769BF9B68ECE700BFA814002030160020024B1868003018BF01207047E8
:2067C000A814002010B50B4A04461368834208D183681360FFF750FF0023C4E9023310BDEB
:2067E0001346002BF8D09A68A242F9D1A2689A60F0E700BFA814002000B58BB002462821A6
:20680000684604F0FFFC6946024801F0CFFD0BB05DF804FB62002100F8B5054688B9BDE8B5
:20682000F8400A4801F0C2BDE30702D4384601F0BDFD295D3046013401F0B8FD082CF3D1A6
:20684000F8BD0024024E034FF3E700BFB2022100C102210066FF2000F8B503880646154607
:20686000CBB14A2B2BD188291FD1174808F084FB0446C4B1231D9D421FD12146124808F02D
:206880008BFB124D62692F682A60A2690AB1E06990472F6007E00C4808F06EFB044634B9DF
:2068A00001220B4B1A704A23338001200AE0A168201D08F011FB2468F1E72468D9E700238D
:2068C00003800320F8BD00BFAC14002030160020E928002010B50024054B06481C7008F01C
:2068E00048FB2146BDE81040034800F089B900BFE9280020AC140020C406002070B5044653
:20690000E3610B4B049D1B78C4E905526BB1094D094B2E68201D2B6008F0DEFA2E602146BC
:20692000BDE87040054808F04ABBA160F7E700BFE928002030160020C4060020AC140020B9
:2069400013B5034C24680094FFF7D8FF02B010BD3016002070B5094B05461B783BB1084CB7
:20696000084B26680430236008F0BFFA26602946BDE87040044808F022BB00BFE928002073
:2069800030160020C4060020AC14002010B5084B04461B7843B10430FFF714FF2146BDE895
:2069A0001040044808F0F8BAC0E90333F6E700BFE9280020AC14002010B50A4B04461B780E
:2069C00023B1BDE81040043008F098BA064808F0D3FA08B9012010BDA04201D00068F8E7B4
:2069E0000020F8E7E9280020AC14002038B5836804460D469BB10A4804600220A07304F1E6
:206A00000C0098470238012801D9832D05D121462046BDE8384000F005B80123A37338BD02
:206A2000301600202DE9F8431C4F89463D682C46844204D00CB9BDE8F8832468F8E7002C38
:206A4000F9D0174EA37BD6F8008063B10023A3738DB9A3683BB14C4505D034602A46832104
:206A600004F10C0098473B68A3420ED123683B60C6F80080DFE7AC4204D022468721284665
:206A800008F041FA2D68E3E71346002BF0D01A68A242F9D122681A60EAE700BF34160020F2
:206AA00030160020002238B50125084B1A70084B1C6804B938BDE37B2BB1E5810022822170
:206AC0002046FFF793FF2468F3E700BFED28002034160020024B1878421C1A70704700BFC9
:206AE000EB2800208A22064B1A700023054A1370054A1370054A1360054A1360704700BF1B
:206B0000EB280020EA280020EC28002034160020301600202DE9F0411B4D2B780BB1FFF708
:206B2000C1FF1A4C22789AB10C21194E194F3378013A59430133781803F01F0317F8018063
:206B40003370D0E90170227090B9134B1E6826B92B7820781844BDE8F0812B780BB1FFF7C8
:206B6000A1FF30463A46414608F0CDF93668EEE7B8F1810F08BF01233A4608BF83734146DF
:206B800008F0C1F9E4E700BFED280020EC280020EA280020B014002034160020024A034B36
:206BA00010781B7818447047EC280020ED280020F0B50B4E3378202B0FD00C25094C0A4F8C
:206BC00024781C4404F01F046C433D19C5E901200020013339553370F0BD0120FCE700BFD9
:206BE000EC280020EA280020B014002038B5034C256808F088F9256038BD00BF301600206A
:206C000030B40A4C0A4625682B4683420CD04BB950B101210560817320608381812130BCB9
:206C2000FFF7E4BF1B68F0E730BC70473416002038B1837B013B012B9FBF0123014AC37302
:206C400013707047ED28002010B5084C206858B100232360D0E901319847236823B1BDE8A7
:206C600010401868FBF7F4BC10BD00BF38160020034A9179D379034A03EB0123138070475C
:206C8000FE3800209C1F0020CD2182B0064B02AA42F8043D934204D30021044802B0FFF76A
:206CA000AFBF03F8011BF5E720390020D406002038B5FBF73FFE0C4C0C4D2378CD2B0DD0C3
:206CC000AC4208D3FBF736FEAC423ABF2C1BA0B24FF6FF7038BD0134EFE701342378CD2BC9
:206CE000F0D1AC42F9D3EDE7203900202041002070B50388054603B3902B27D1154808F092
:206D0000FDF808B3FFF7D4FF134C144B0646E41AA3B298420DD9124B1B68002B09DD114A91
:206D20001149124801F042FBA2B23146104801F03DFB084808F0D9F804E04FF4A061054897
:206D400008F0CAF890232B80012002E000230380032070BD3C1600202041002020390020B6
:206D6000C0060020D5022100DB0221008CFE2000DF02210010B5044690F84730084A0133F7
:206D800080F84730802103462030FFF7D9FD054B2246BDE8104019780020FFF709BF00BF23
:206DA000756D20001C3900202DE9F04103880446B3B1CB2B29D1822914D107F0AAF9BFF310
:206DC0005F8F0022134B1E681A60BFF35F8F07F0A4F90127104DDFF8448055F8040F18B9C0
:206DE000CB232380012013E090F8453007FA03F33342F2D0FFF7E0FD0028EED02B684246EF
:206E000002211846FFF79CFDE7E7002303800320BDE8F0815816002084040020396E2000B8
:206E2000034A1368184310600248FFF701BF00BF58160020E406002070B50446FFF7BCFD4A
:206E400020B304F120063046FFF7B6FD0546204608F07BF8012811D1C5B1002523460C4AA4
:206E600084F847507E213046FFF76AFD2246094B2846BDE870401978FFF79ABE30B92DB960
:206E80003046FFF783FD2246034BF1E770BD00BF756D20001D3900201B3900202DE9F8434F
:206EA000FFF718FE314B324E1870FFF713FE314B314D1870FFF70EFE304B314F1870002311
:206EC000B360304BDFF8C880DFF8C890736055F8041F39B92C48FFF793FEBDE8F84324485A
:206EE00000F04AB9012491F8453091F84620D9080903C85903F0070304FA03F320EA03037E
:206F0000CB512B6893F84530D908090351F8080003F0070304FA03F320EA030341F8083012
:206F20002B6842F08C0193F84500FBF72FFE2B6893F84530DA08120352F8091003F0070326
:206F400004FA03F30B4342F809302B680F4A93F84530DB0804FA03F313602B6893F84530B3
:206F60009C40B3681C43B460B1E700BF1D3900204C1600201B390020840400201C390020C7
:206F800020940D40216E2000E406002000E100E000940D4010940D4070B5058804466C2D0F
:206FA00009D07E2D2FD0002D33D1FFF793FD1B4B18701B4B1D601B4E194D08E00A282B684A
:206FC0000ED07E2B03DC5A1C2A60174AD054304608F084F8431CF1D16C23238001201BE06D
:206FE0005A1C2A600025104A2846D5540B4B1978FFF7DEFD0D4B2A4685211868FFF7D8FD0A
:2070000018B97E23E9E78529E8D10022044B1A60D1E700230380032070BD00BF1E390020F8
:207020005C16002060160020EE280020301600200D2810B5014616D00C4C237853B90C4812
:2070400008F039F808B9012323700A48FFF7F0FD012010BD0A28F8D1054808F02CF80028E0
:20706000F3D00023F0E70020F3E700BF6E29002060160020F406002008B505490548802239
:2070800008F012F8BDE8084000210348FFF7B8BD6F29002060160020F40600200022F0B5FB
:2070A00094460126FF270F4D40FA02F3DB0711D515F8121005EB4204CB081B03647803F130
:2070C000804301F0070103F5592306FA01F12CB143F821C00132042AE6D1F0BD43F8217004
:2070E000F8E700BF76FE2000F0B500210126FF270E4D40FA01F3DB0711D515F8112005EBCC
:207100004104D3081B03647803F1804302F0070203F5592306FA02F22CB143F8227001315F
:207120000429E6D1F0BD43F82240F8E776FE2000F0B4002101260D4F0D4D0E4C17F8113062
:207140000131DA081203505903F0070306FA03F320EA030050511059042943EA0003135192
:20716000ECD1F0BC0F20FFF7BFBF00BF76FE200020940D4000940D400146014807F01FBF69
:207180006816002038B50546064807F0F5FE044604B938BDA068284002D0636803B1984745
:2071A0002468F5E768160020014807F0E2BE00BF68160020064A136843F004031360054BC4
:2071C000186804331B6840EA032080B2704700BF00700D4014700D4010B5174A136823F03E
:2071E0000C0313600122154B1A601A68012AFCD10822134B13491A60E32203F505731A6049
:207200001A460B68DB07FCD50F4C102100232068013900F0010043EA00034FEA43039BB28A
:20722000F5D1002BF1D00949180A03F0FE0308600B60EF23136010BD00700D40A8200D403D
:2072400024860840648608409C86084014700D4008B5044807F0D2FEBDE80840024807F0D1
:20726000CDBE00BF1007002004070020014807F00DBF00BF0407002038B50E4807F0CEFE66
:20728000054650B10C4807F0C9FE0446286030B92946084807F0D6FE2546284638BD00F08D
:2072A000FBF904F19C01A4F8800004F1820000F07DFAF2E7040700201007002010B5014607
:2072C0000446074807F0D4FE48B12168054807F0B9FE2146BDE81040014807F0B3BE10BDF5
:2072E000040700201007002010B501460446094807F0BEFE68B12468B4F88010204600F09B
:207300003FFA04F19C0104F18200BDE8104000F05FBA10BD0407002030B1054B9B68C01A27
:20732000044B8010584370474FF0FF30704700BF1C070020ABAAAAAA38B50D4D002818BF06
:2073400005460C4807F018FE044610B94FF0FF3038BD211D284607F025FF20B12046BDE868
:207360003840FFF7D9BF204607F045FEECE700BF6EFE2000AC16002008B5024607F0D4FE99
:2073800042B1431C06D0044B1268185C104100F0010008BD0020FCE71F2A002050B10368A9
:2073A000072B06D8044A52F823301B1A5842584170470020704700BF8C16002010B504464C
:2073C000FFF7ECFF10B1A160012010BD054A1368072BFAD8581C1060034A2360A16042F85F
:2073E0002340F1E7701700208C160020F8B505460C460C270E4E2146284607F095FE431C52
:2074000016BFB368002007FB003007F0F4FDFFF783FF0146284607F07DFE044628B1014639
:207420002846FFF7A9FF0028E5D02046F8BD00BF1C07002038B505460B4807F09DFDFFF734
:207440006BFF0146284607F065FE044601462846FFF792FF28B921462846BDE83840FFF764
:20746000C5BF204638BD00BFAC1600202DE9F0474B4D0646002918BF0D46284690469946E5
:20748000FFF75AFF421C044652D1464C204607F0C5FD074600283FD14946404603F06EFF27
:2074A00018B900242046BDE8F087FFF745FF431C4ED0A3680C2404FB0034002C48D03A4B67
:2074C0001A5C02B11F540027DFF8E8A020465AF82720FFF721FF014682B1D2F80880B8F100
:2074E000000F0BD0104607F015FE014681461046FFF742FF012801D14846C0470137082FA8
:20750000E4D12046FFF708FF0022284B21461A54274807F041FD27463946254807F04FFDA9
:207520003846FFF7F9FE29460446381D07F037FE2146304607F0EEFD04467268002106F0AC
:20754000EBF9012322463146184807F0F8FDA9E7174807F011FD002402462746DFF848808C
:20756000DFF8489012B9002CADD19AE71046FFF7D3FE18F800304BB919F8001059B90CB115
:20758000BB4203DA1446002B9DD01F46104607F032FD0246E6E7C80748BF01334910EDE7F2
:2075A0006EFE20001C070020FF2900201F2A0020AC1600208C16002070B50A4604460D4695
:2075C00000230146054807F0BAFD064600232A462146034807F0B3FD304670BD1F2A002002
:2075E000FF2900200A4601230146014807F0A7BDFF2900200A4600230146014807F09FBD46
:20760000FF29002008B507F08FFD431C07D00C22044B9B6802FB003000B1043008BD002035
:20762000FCE700BF1C07002010B507490B88834208DB064C80B222880244181A08800120C6
:20764000228010BD0020FCE7FE24002000250020014B1880704700BFFE2400200048704796
:2076600074170020014B1888704700BFFE240020034A044B10781B781844C0B2704700BFC0
:207680002F2A00200025002008B5FFF7F1FF014B184408BD7417002070B50D4D0D4C2A78F7
:2076A000238806461344802B0FDC0B4906F05CF82B781E44FFF7E8FF22880146304606F009
:2076C00053F828782388184470BD0020FCE700BF2F2A0020FE2400207417002008B5FFF7B0
:2076E000C7FF024B1B88184480B208BDFE24002010B50146FFF7F2FF4318802B0FDC094B07
:20770000013800B25A18040405D5074B187808441870012010BDC45C14540138F3E70020CB
:20772000F8E700BF741700202F2A002038B5094D094C1A220021094806F0EEF82946204690
:2077400007F02DFD294604F10800BDE8384007F026BD00BF6EFE2000D4380020E4380020F2
:207760000023044A1380044A1380044A1370FFF7DDBF00BF00250020FE2400202F2A002002
:2077800038B50C460546FFF7EBFF802C28BF802429462246034805F0E7FF034B20461C80FB
:2077A00038BD00BF74170020FE24002010B50C461A22054905F0D8FF2046BDE8104010222E
:2077C000024905F0D1BF00BFE4380020D438002010B50C461A220146044805F0C5FF2146AC
:2077E000BDE810401022024805F0BEBFE4380020D4380020024B23F810100120704700BF1F
:20780000E4380020014B33F810007047E438002008B5044B0D3803EBC00007F0C0FC0120DF
:2078200008BD00BFD4380020024B0D3803EBC000704700BFD43800200149024807F0B2BCBD
:207840006EFE2000DC38002070B505460D480E4607F092FB044600B970BD012D0AD1A36887
:207860001BB9204607F0C7FBF4E7304698470028F7D0F1E7002DF4D16368002BF1D0984796
:20788000F5E700BFF4170020054B10B51B689847044B5B689847BDE81040034B5B68184755
:2078A0003CFA2000D8FC2000F0FC200010B50848FFF750F80748FFF7BDFD064C00B910BD48
:2078C000037A01465B0803722046FFF78FFDF5E7B82F0020280700200146014807F04CBC63
:2078E00028070020F8B531F0020307460E4615462FD10146174807F03FFC044650B90346F6
:20790000092239461348FFF7B1FD044608B307F063FCA080FAF752FE237A20602B44102B3B
:20792000A8BF10232046022E237208BF0C3507F041FC002814BF0A221922ED01ADB25543FF
:20794000A388C2F1640101FB03556423B5FBF3F5A580F8BD2807002038B505460420FFF7F6
:2079600051FF294604B20E4807F006FC034658B9092229460A48FFF779FD024618B1C4803C
:2079800007F02AFC908038BDB0F906200A205A21604301FB0202642192FBF1F2DA80F2E786
:2079A0002807002038B50848FFF744FD0446064D04B938BD21462846FFF7FEFD214628461A
:2079C000FFF714FD0446F3E72807002010B500210548FFF7F3FCBDE810400023034A4FF46D
:2079E000E1310348FEF7ACBF28070020AD782000B82F0020F8B5FAF7E1FD002504460E4FE7
:207A00000D2007EB0516FFF70FFF314607F0CAFB68B10720FFF7F6FE337B83420AD1B06865
:207A2000201AB0F5206F8CBF00200120F8BD0135102DE5D10020F9E7B818002070B5144DF8
:207A400000242E460D20FFF7EFFE05EB041107F0A9FB013408B9102CF4D12401103C0FD196
:207A60000720FFF7CFFE3073FAF7A8FDB0600D20FFF7DAFEBDE870400146054807F08FBBAE
:207A800060191022A0F1100105F06EFEE6E700BFB818002030B591B0054600F063F84FF6BB
:207AA000FF73984204D14FF0FF34204611B030BD40220021684605F02FFF274B1A782AB9E4
:207AC00001221A70FFF776FB244B18707DB10720FFF798FE58B9214C23780BB90123237026
:207AE00021780720FFF786FE237801332370FFF7A3FE6A46C1B21A4807F0E0FBFFF79CFE6C
:207B000008B34FF6FF73ADF800300D20FFF78CFE014602A807F043FBFFF7B6FD0E90FFF70E
:207B2000A1FD0F90684607F0BCFC0446002DBCD0FFF7DEFD0028B6D0FFF790FD01466846B1
:207B400007F0F7FCB1E70E20FFF76EFE0146684607F025FBD9E700BF302A0020312A002093
:207B600005782000014B1888704700BFAC0900202DE9F041012986B006460F46144603DCB0
:207B8000002006B0BDE8F08103A907F019FD0A2203A904F1100005F0E7FD9DF81130002B89
:207BA00044D0B51C02AA01A903A807F0CBFB9DF81380B8F1000F4CD0029B23B16A7815F8C6
:207BC000023B03EB0223B8F1020FA38332D13249204607F0E4FA6B78237015F8023B637029
:207BE0009DF81580B8F1000F4DD0019B002B37D06A7815F8023B03EB0223029A9BB2E3832A
:207C000002B9A383B8F1020F2DD1234904F1080007F0C5FA6B78237215F8023B6372A81B52
:207C20003B1A8742C4E90E53AADBAAE7B378F51CA376B7E7B8F1030FD2D105F10802134658
:207C4000611E13F8010D9D4201F8010FF9D11546C6E71149204607F0A2FAA4F81C80BFE7A1
:207C6000A38BE383CEE7B8F1030FD8D105F10802134604F1080113F8010D9D4201F8010B03
:207C8000F9D11546CBE7044904F1080007F087FAA4F81E80C3E700BF6EFE200070B50546AC
:207CA0000C460A4E102C07D874B12B68224668680649BDE8704018472B6810223146686800
:207CC000984710B9103CEDE7204670BD250321002DE9F04F0746144600258FB00791079B66
:207CE0001B78B3B1DDF81C8000E0B046464616F8013B0BB1252BF8D1079B98450ED0A8EBAB
:207D000003094A463B6807997868984728B14FF0FF3528460FB0BDE8F08F4D4498F80030D7
:207D2000002BF6D098F80130002BF2D04FF0000A314611F8012B33462B2A16D00AD8202ACF
:207D400016D0232A17D0A2F1310008283FD84FF0000918E02D2A04D0302AF4D14AF0100A20
:207D600001E04AF0010A0E46E2E74AF0060AFAE74AF0020AF7E74AF0080AF4E70A2303FB1F
:207D80000929A9F13009334616F8012BA2F130010929F3D91A782E2A35D159785A1CA1F1A0
:207DA0003000092828D8002611781346A1F13000092802F101021AD91A786C2A40F0928014
:207DC0005A786C2A22D14AF0800A023321E02A2A0AD1D4F800900B46B9F1000F04F10404BC
:207DE000B8BF4AF0010AD5E74FF00009D2E70A2303FB0616303ED7E72A2903D126680233AD
:207E00000434D9E713464FF0FF36D5E701334AF0600A1A78642A00F0928000F28580462A80
:207E200000F0AF8071D8252A00F0C08066D8002A3FF46FAF013307930AF4E063B3F5806FFC
:207E400000F0568200F2B580B3F5807F00F0EA80B3F5407F7FF443AFAF4B1AF4804FAF4A96
:207E600018BF1A460DF1330300211E462068043450EA010C40F07482F61A04BF302203F8C5
:207E8000012C4FF0780208BF03F1FF3303F8012C4FF0300208BF012603F8022C23220336E1
:207EA000B1458CBFA9EB06094FF000091AF0010AA3F1030803F8032C06D149463846FFF7DE
:207EC000EDFE00287FF423AF3B68324641467868984700287FF41BAF3544BAF1000F00F061
:207EE0003682ACE1682A94D15A78682A02D14AF0200A6AE701334AF0400A8AE7412A4CD0AA
:207F0000452A97D14AF4424A94E7582A33D004D8472A8FD14AF4A13A8CE7612A3AD0632A65
:207F200088D14AF4A06A85E76E2A3CD00AD8662A24D029D3672A2AD0692A7FF47BAF4AF435
:207F4000245A77E7732A2BD007D86F2A10D0702A7FF470AF4AF4407A6CE7752A05D0782AC8
:207F60007FF468AF4AF4C85A64E74AF4106A61E74AF4885A5EE74AF4B24A5BE74AF4007A33
:207F800058E74AF4844A55E74AF4024A52E74AF4813A4FE74AF4C13A4CE74AF4E13A49E773
:207FA0004AF4806A46E74AF4E06A43E74AF4C06A40E7B3F5C06F2BD0B3F5E06F00F0DF8112
:207FC000B3F5A06F7FF48BAEB9F1010F38BF4FF0010923681AF0010604F104048DF82030D6
:207FE00009F1FF3807D141463846FFF757FE00287FF48DAE45443B68012208A97868984793
:2080000000287FF484AE002E00F0A181414617E13B68012242497868984700287FF477AE04
:2080200001355CE6002EACBF2AF0100A01261AF400520AF0E003069243D0402B3AD009D896
:20804000002B3AD0202B11D000220023CDE90023002319E0602B30D0802BF5D1073424F03A
:20806000070303F10804D3E9002303E094F90020D3170434002A73F10001E7DA524263EB33
:208080004303CDE90023012305930AF4C053B3F5805F00F0EB80B3F5C05F00F0EC80B3F547
:2080A000006F40F00381DDE900230DF1360BCDE9022348E0B4F90020DAE722680434D31738
:2080C000D8E7402B1FD009D8FBB1202B14D00023002205930023CDE90023D6E7602B14D0C6
:2080E000802BF4D1073424F0070303F10804D3E90023CDE9002304E022780023CDE9002385
:208100000434069BC0E72288F7E72368002219460434CDE90012F4E745032100560321008D
:2081200074032100DDE902010A22002305F03AF9DDE9020130320BF8012D00230A2205F0C7
:2081400031F9CDE90201DDE902231343EAD10DF13603A3EB0B030293029B41F608029E421A
:2081600088BFF61A41F208030AEA020298BF00269A4202D1002E08BF012641F60801029B4D
:208180008A42334440F09680DDE900120A4300F091807D491AF4804F7C4A08BF0A464FF071
:2081A00002080092069A82B1059A002A40F087800AF00602022A00F08780062A744A0099A4
:2081C00004BF11464FF001080091434499458CBFA9EB03094FF000091AF00103059304D199
:2081E0001AF0100F74D04E449946D7E90030B8F1000F05D042460099984700287FF487AD55
:20820000B246029B1D44BAF1100FD7E9003066D8BAF1000F05D052465E49984700287FF428
:2082200076AD3B68029A594678684544984700287FF46DAD059B3544002B00F08880494675
:208240003846FFF72BFD002800F081805FE502F0070130310BF8011DD10841EA4371D80811
:208260000A46034652EA0301F1D170E7DDE900230DF1360BF6E7484B1AF4804F0DF1360B58
:20828000464918BF1946DDE9002352EA03003FF45EAF02F00F00085C4FEA131C0BF8010DD3
:2082A000100940EA037002466346EEE70DF1360B002350E74FF00008CDF8008072E74FF085
:2082C0000108374A009280E74FF00108354AF9E749463846FFF7E2FC002886D017E51022E7
:2082E0002C49984700287FF412ADAAF1100A8AE7D4F800B00434BBF1000F2CD0D84698F891
:20830000003008F1010223BBA8EB0B08002E02DBB04528BFB046C1458CBFA9EB08094FF09B
:2083200000091AF0010606D149463846FFF7B6FC00287FF4ECAC3B684246594678689847DB
:2083400000287FF4E4AC4544002E7FF478AF4D44C5E49046D3E7DFF850B04FF00608D5E7F7
:2083600000F00F0C12F80CC04FEA111E03F801CD4FEA101C4CEA017C6046714678E523688E
:2083800004341D60ABE400BF670321006A03210068FF2000350321004503210056032100FE
:2083A0007AFF20003F0021006D0321000FB407B504AA52F8041B04480192FFF789FC03B090
:2083C0005DF804EB04B07047380700201FB51446074ACDE90001029221461A4602A8CDF88F
:2083E0000CD0FFF775FC0022009B1A7004B010BD37F62000014B1B6A184700BF3CFA2000E0
:20840000014B5B6A184700BF3CFA200007B5FFF729F903281BD00F4B9B689847002816DB98
:208420000E20FFF701FA0C4906F0BCFE58B1FFF7E1FA60B9FFF702FB084B9B68019303B095
:208440005DF804EB1847FFF7F7F90028EFD103B05DF804FBCCFC2000FE380020F0FC20005A
:2084600070B590F82D100546012994BFCC1C0524FEF7A0FE0121A1400139B0FBF1F42B4668
:2084800004FB1101034A05F10C00BDE87040FEF757BA00BF158520002DE9F0470D461446AE
:2084A0008B688046D3E90067506B92F82C9006F073FD6868FEF702FFA968124806F0C2FD93
:2084C0002946114806F0BEFD606B06F055FD60B100232046A385FFF7C3FF4B4642463946FE
:2084E0003046BDE8F04706F098BE04F10C00FEF74DFA2146054806F04FFD2146044806F002
:20850000A1FDEAE74007002058070020181A00204C0700202DE9F743044600283DD0406BC7
:2085200006F02AFD002838D04068FEF7DDFE6D490D20FFF76DF901210820FFF75BF96A4BEE
:208540005B68984700286ADBFFF788F8674E87787568FFF783F88046FFF7C0F80146404653
:20856000A847FFF769F9D6F818808146C04708B101250CE0B9F1000F12D0B568FFF7AEF861
:20858000A847054688B102280CBF01250425606B06F0F2FC0646002843D103B0BDE8F08322
:2085A000F36998470028E8D0E2E7B9F1000FEED1FAF73CF80546FAF7BDF9C5F1FF2505F574
:2085C0007F05F335FAF732F8C542FBD4C047D6F81C80D8B1FAF72AF80546FAF7ABF9C5F15B
:2085E000FF2505F57F05EB35FAF720F8C542FBD4C04790B13369032101A898470328B7D197
:208600009DF80630BB42B3D10025C0E7C0470028E0D1736998470028DCD00225B7E70525E4
:20862000B5E70721706806F06FFD07460720FFF7E9F8874244D0304606F0DDFCAAE700201E
:208640002246314694F82C3084F82D00013384F82C30FFF721FFA0E7002384F82D3094F879
:208660002C300133DBB284F82C30127A9A421CD8224631460220ECE794F82D300133DBB22B
:20868000052B84F82D3007D9002194F82C3084F82D10013384F82C3094F82C10137A9942F3
:2086A00003D3224631460120D3E72046FFF7D8FE706806F023FD70E7224631462846C8E7B7
:2086C000B268002A3FF469AF032DF5D801A353F825F000BF3F862000798620005986200048
:2086E0009B852000FE380020CCFC20003CFA20002DE9F04107460E208846FFF795F8454B03
:2087000005461A78444C22B901221A70FEF752FD207023780BB901232370217807204B1C53
:208720002370FFF767F801210C20FFF763F83B4806F022FC0446002840D1394806F06EFCB7
:20874000044600285BD02946201D06F028FD002304F13000C4E90C30A38506F00AFC2146F9
:208760002E4806F02CFC606B06F03EFC072846DC2C4806F053FC0546002834D02A4806F081
:208780004DFCA86058B3FEF777FD686018B30620AE68FFF737F8C0B2D0B13072C6E9007864
:2087A0002946606B06F00BFC606B06F0E5FB85422DD12046BDE8F041FFF752BE2946201D2E
:2087C00006F0F0FC0028CED1204606F014FCB1E708233372E2E7A968134806F033FC294653
:2087E000104806F02FFC606B06F0FEFB38B921460A4806F0D1FB2146094806F023FC414686
:208800003846BDE8F0410123042206F006BDBDE8F08100BF322A0020452A0020181A0020CF
:208820004C070020580700204007002008B5064806F0E4FB054806F0E1FB054806F0DEFBC4
:20884000BDE80840FEF704BD58070020400700204C07002005289ABF024B33F810000020EE
:20886000704700BF0225002010B5044C0C220021204605F051F80023238110BD0225002058
:208880002DE9FF476F46234C234D04F108030FCB87E80F002B7894F80780BBB13A221F49AA
:2088A000A2710A88D21A92B20A80A2F128010812207103F128002044C3F1040361712C3A7F
:2088C000011D184404F0C6FF00232B70144806F053FB0646DFF844A03EB9104B2E701E8072
:2088E000FFF7C2FF04B0BDE8F087D6F80490B9F1000F09D0BAF800302A782C3B38329BB25B
:20890000224441463846C847304606F074FB0646E2E700BF5C310020592A00204C31002041
